:020000040000fa
:080000000001040000000000f3
:020000040000fa
:100200008fec20000eff20000e018800000000008f
:100210000c000700403424000100200011000700fa
:10022000000020000000e000020032000000020098
:1002300000000000da180200000000000040da00b0
:100240000000fe004440a900800a20000000e000f9
:100250000300320000002000a00188004440a800f4
:100260000000060091018800800078000000eb008b
:1002700015003700e280400032a0b4009101ba00be
:10028000e280400032a0b4009102ba00e280400057
:1002900032a0b4000002eb00472bde00f507b200ed
:1002a000602ce10004003a000059eb008301e900f2
:1002b000fdff3e00040037006128e100010032002c
:1002c0000082eb00040007001101ba000200e00008
:1002d000e8ff3a00000006003159ba008301e90046
:1002e0000c0032002159ba008301e90008003200f5
:1002f0000400e00003003a00e280400032a0b400b5
:10030000f5ff370011d9ba008301e900faff3a007e
:100310008100e800e180400032a0b4000000060047
:100320009183a80000000600901c8800a11c880092
:1003300000000600e14f500007003200e24f50007d
:10034000070032008000eb000004e00009003a00e2
:100350006ec3bf00030037005ec3bf00010037005b
:100360004ec3bf000080fb004300de000000a2007f
:10037000e10060000100780000000600881f78009e
:10038000401bde0007002000e1cf520003003200d6
:10039000e2cf52000500320008003700801a8800c2
:1003a000961a8800a21a880007003700001a8800f1
:1003b000161a8800221a880003003700001b8800e4
:1003c000161b8800221b88000001eb000480fb0044
:1003d000673520006634200010003700e1cf52005e
:1003e00003003200e2cf5200040032000600370062
:1003f000914178008373790006003700114478003a
:100400000873790003003700633620001144780038
:10041000887179000201e8008100e800800f510036
:10042000eeff3500e1cf520003003200e2cf520070
:100430000c003200160037006f4062004300dd0000
:10044000413520009140780072c8b30082c060003e
:1004500080c070000100780054e3b7005e63a8001c
:10046000150037006f4062004300dd00413420007a
:100470009140780072c8b30082c0600080c07000f4
:100480000100780044e3b7004e63a8000a0037007b
:100490006f4062004300dd0041362000914078004b
:1004a00072c8b30082c0600080c070000100780094
:1004b00064e3b7006e63a8004f04780000000600f4
:1004c000401ade000500200004037800e24f5000cf
:1004d0001300320005003c000004e0000900320077
:1004e000e14f50001e003a0009003700e44f500071
:1004f000130032000e003500e54f500018003a009e
:1005000013003700011888001418880016003700ff
:1005100041188800541888006218880000000600fe
:100520008118880094188800a2188800000006002e
:10053000c1188800d4188800e2188800000006005e
:10054000011988001419880022198800000006008b
:1005500041198800541988006219880000000600bb
:10056000011888001618880022188800000006006c
:10057000401ade00050020000004e0000600320002
:10058000e14f500004003a00c1198800d4198800d6
:10059000e21988000000060081198800941988007b
:1005a000a219880000000600801c880000000600d8
:1005b0000004e00004003200e14f500002003a0065
:1005c000f11b880000000600711c88000000060076
:1005d000e14f500003003200e24f500003003200b0
:1005e00004003700f11a880000000600711a880024
:1005f00000000600711b8800000006009623ef0033
:100600008760a900c01c8800e7c16000c419dd0034
:10061000a1c0bf00f2c8b3000240600003407000f8
:10062000a1e0b700e8806000c308de00c308dd0079
:100630008fc0bf000034a100014070008fe0b70000
:10064000000006008460a900e7416000c419dd00d5
:100650005109200091407800f2c8b30082c06000c8
:1006600083c070008000fd0095e0b7008000fd00b1
:10067000680060004300de004300dd00c108200088
:10068000914078000134a10080c070000100780022
:100690008ce0b7000000060084c0a900e7416000bc
:1006a000710920009140780082cfb30082c06000c1
:1006b00083c070008000fd0097e0b7008000fd005f
:1006c000680060004300de004600dd00c108200035
:1006d000914078000164a10080c0700001007800a2
:1006e0008ce0b700000006000021ef001108880030
:1006f00020088800000006000621ef00610888003d
:10070000800888001061a900000006000008880029
:100710000000060030088800000006003200f800e3
:10072000910188000008bb00410424006210e10030
:1007300004003200000220000010e1000a003a002c
:1007400051042400013b88000500fc0051052000f5
:10075000313b8800a10a2000313b880061e7a800f6
:1007600000000000000000003200f9000000060058
:100770003200f80060042400003b8800f2ff3700dc
:100780003200f8009101880041002400013b8800fc
:100790000208bb00ecff37003200f800910188002e
:1007a00051002400013b8800030120003218bb00e7
:1007b0008301e900fdff3a00e3ff37003200f80053
:1007c000910188008002780062004000e0804800cb
:1007d0003549ba003204e0000410a70010003200ce
:1007e0008301e9000e0032002549ba003204e0001e
:1007f0000410a7000a0032008301e900080032005b
:100800000408a300eeff320015c9ba003204e0006c
:100810000410a700020032008301e900e8ff3a005b
:080820003200f900000006009f
:020000040000fa
:0200000401f009
:04000000febf00003f
:020000040000fa
:0200000401f009
:04000400ff7f00007a
:020000040000fa
:0200000401f009
:04000800efff000006
:020000040000fa
:0200000401f009
:04001400ffff0000ea
:020000040000fa
:10000800e2440000444400004c4400005444000012
:100018005c440000e2440000e2440000e2440000c6
:10002800e2440000e2440000e2440000ea17000055
:10003800e2440000e2440000fa170000e244000035
:10004800e2440000e2440000e24400002c440000c6
:10005800e2440000e2440000e2440000e244000000
:10006800e2440000e2440000e2440000e2440000f0
:10007800e2440000e2440000e2440000e2440000e0
:10008800e2440000e2440000e2440000921800004c
:10009800e2440000e2440000e2440000e2440000c0
:1000a800e2440000e2440000e2440000e2440000b0
:1000b800e2440000e2440000e2440000e2440000a0
:1000c800e2440000e2440000e2440000e244000090
:1000d800e2440000e2440000e2440000e244000080
:1000e800e2440000e2440000e2440000e244000070
:0800f800e2440000e2440000b4
:020000040000fa
:10010800e2440000644400006c44000074440000b1
:100118007c440000e2440000e2440000e2440000a5
:10012800e2440000e2440000e2440000ea17000054
:10013800e2440000e2440000fa170000e244000034
:10014800e2440000e2440000e24400002c440000c5
:10015800e2440000e2440000e2440000e2440000ff
:10016800e2440000e2440000e2440000e2440000ef
:10017800e2440000e2440000e2440000e2440000df
:10018800e2440000e2440000e2440000921800004b
:10019800e2440000e2440000e2440000e2440000bf
:1001a800e2440000e2440000e2440000e2440000af
:1001b800e2440000e2440000e2440000e24400009f
:1001c800e2440000e2440000e2440000e24400008f
:1001d800e2440000e2440000e2440000e24400007f
:1001e800e2440000e2440000e2440000e24400006f
:0801f800e2440000e2440000b3
:020000040000fa
:100828002c2d00002e2f00000c0d00000e0f0000d4
:1008380000000000000000000000000000000000b0
:10084800010000000100000001000000010000009c
:10085800010000000100000001000000010000008c
:100868000400000004000000040000000400000070
:100878000400000004000000040000000400000060
:100888008000000080000000800000008000000060
:100898008000000080000000800000008000000050
:1008a8008000000080000000800000008000000040
:1008b8008000000080000000800000008000000030
:1008c8008000000080000000800000008000000020
:1008d8008000000080000000800000008000000010
:1008e8008000000080000000800000008000000000
:1008f80080000000800000008000000080000000f0
:10090800a00000009000000098000000980000007f
:10091800c8000000a000000068000000b800000047
:10092800d0000000a8000000a80000009800000007
:10093800a8000000a800000060000000a800000057
:10094800000000000000000000000000000000009f
:10095800000000000000000000000000000000008f
:10096800000000000000000000000000000000007f
:020000040000fa
:100978000400fa00004f78000000eb00200c88000b
:100988000000eb00500c88000000eb00100a880003
:100998000000eb00300a88001e80fb00100798005a
:1009a8001e0090000000e000040032001e009000cd
:1009b800e10f50000700320008003700dec2a9002e
:1009c800d202a900d242a900d262a900d222a9006b
:1009d80002003700d822a900d802a9000080fa0036
:1009e800000006000400fa00004f78001e80fb009b
:1009f800100798001e0090000000e000040032007c
:100a08001e009000e10f5000180032002a00370045
:100a1800d202a900d242a900d262a900d222a9001a
:100a2800e0c2a80050002000170b0700e0c2a90090
:100a3800f0002000a016880050002000120b0700cc
:100a4800e0c2a800f0002000a01688005000200096
:100a58000d0b0700e0c2a9000000eb00a0168800fb
:100a680050002000080b070013003700d802a90027
:100a7800da22a80050002000030b0700da22a900a0
:100a8800da02a80050002000ff0a0700da22a800b6
:100a9800da02a80050002000fb0a0700da22a900a9
:100aa800d0168000e1ff2f0001006000d0168800fa
:100ab80050002000f40a07000080fa000000060039
:100ac8000800fa004047980051479800624798008c
:100ad8007347980010c0b300104798005e4090001c
:100ae80000404000004f78006e409000204798007a
:100af8004e409000aa0607004e409000b806070036
:100b08009e4078004e409000c40707000004e000b3
:100b180012003a00ae4090004e409000bf07070018
:100b28000004e00008003a00fe4090004e409000ab
:100b3800ba0707004e409000790707000040eb0015
:100b480010479800090037004e40900074070700ce
:100b58000040eb0010479800040037004e4090001a
:100b68006f0707000040eb00104798001e409000f8
:100b78000080fb000080fa00000006001400fa0064
:100b8800204f9800314f980062079800634f9800f3
:100b9800040f9800150f980010c0b3001047980074
:100ba8003e48900000404000004f7800ee00900062
:100bb80000f02f00008060004800de0050479800d9
:100bc8006e009000604798002e4890007406070059
:100bd8002e489000820607009e4078002e4890001c
:100be8008e0707000004e0003f003a00de40900056
:100bf8002e489000890707000004e00035003a00fd
:100c0800ee4090002e489000840707000004e000a2
:100c18002b003a000040eb002047980021003700e5
:100c28002e4090008080fb001e089000008040004d
:100c380000004000800078000e089000008040000e
:100c480090007800410798004e00900040479800b7
:100c5800ce00900000f02f00008060004800de0009
:100c680030479800be4090002e4890006b07070060
:100c78000004e00004003a00ce4090002e489000a6
:100c880066070700040037002e4890002407070075
:100c98000040eb00104798002e4090000040e8000c
:100ca80020479800ae4090006e48900080cf5000da
:100cb800dbff39002e489000190707000e003700a7
:100cc8002e489000160707000040eb0010479800d8
:100cd800090037002e489000110707000040eb007c
:100ce80010479800040037002e4890000c070700b2
:100cf8000040eb00104798001e4090000080fb0069
:100d08000080fa00000006001200fa004047980030
:100d18005147980032079800034f980054079800ed
:100d28006507980076079800070f980010c0b30071
:100d3800104798005e40900000404000004f780047
:100d48004e409000160607004e409000240607000b
:100d58009e4078004e409000300707000004e000f5
:100d680096003a003e0090001040780080407800dd
:100d78004e409000290707000004e0008a003a006e
:100d88004e409000160607005e4090000080fb0071
:100d9800000040000004a000004f78009e4078004a
:100da8004e4090001d0707000004e00079003a005b
:100db8000ef89700e14f500014003a0011c0b3003c
:100dc8004e409000e6070700c2cebf008080fb00bf
:100dd8005e00900001087800c3cebf008080fb0051
:100de8006e00900001087800c4cebf008080fb0030
:100df8007e00900001087800c5cebf008080fb000f
:100e08000e089000010878005f0037000040eb00f2
:100e1800204798002a0037008040eb004e409000a1
:100e2800cf0707002e4090000080fb000000400024
:100e3800800078005e00900080804000c2cebf0035
:100e48000080fb00800878002e4090000080fb00a6
:100e580000004000800078006e0090008080400014
:100e6800c3cebf000080fb00800878002e409000b1
:100e78000080fb0000004000800078007e009000a9
:100e880080804000c4cebf000080fb00800878004e
:100e98002e4090000080fb00000040008000780099
:100ea8000e08900080804000c5cebf000080fb0087
:100eb800800878002e4090000040e8002047980005
:100ec8002e4090008080fb000ef897000080fb0009
:100ed8000000e900808f5000cfff350011c0b3003b
:100ee8004e4090009e0707000ef897000080fb0018
:100ef80000004000800078005e0090000080400004
:100f08008080e900c2cebf000080fb008008780026
:100f18000ef897000080fb00000040008000780079
:100f28006e009000008040008080e900c3cebf00c2
:100f38000080fb00800878000ef897000080fb0016
:100f480000004000800078007e0090000080400093
:100f58008080e900c4cebf000080fb0080087800d4
:100f68000ef897000080fb00000040008000780029
:100f78000e089000008040008080e900c5cebf00c8
:100f88000080fb00800878004e409000640607004f
:100f98000e0037004e409000610607000040eb004d
:100fa80010479800090037004e4090005c06070083
:100fb8000040eb0010479800040037004e409000b6
:100fc800570607000040eb00104798001e409000ad
:100fd8000080fb000080fa00000006001000fa0004
:100fe800404798005147980032079800034f9800ef
:100ff8005407980065079800664f980010c0b30022
:10100800104798005e40900000404000004f780074
:101018004e409000620507004e40900070050700a2
:101028009e4078004e4090007c0607000004e000d7
:1010380068003a003e009000104078008040780038
:101048004e409000750607000004e0005c003a007e
:101058004e409000620507005e4090000080fb0053
:10106800000040000004a000004f78009e40780077
:101078004e409000690607000004e0004b003a006b
:101088006e489000e14f50000c003a0011c0b300c8
:101098004e40900032070700c2cebf008080fb00a0
:1010a8005e00900001087800c3cebf008080fb007e
:1010b8006e00900001087800390037000040eb000e
:1010c80020479800180037008040eb004e40900001
:1010d800230707002e4090000080fb00000040001e
:1010e800800078005e00900080804000c2cebf0083
:1010f8000080fb00800878002e4090000080fb00f4
:1011080000004000800078006e0090008080400061
:10111800c3cebf000080fb00800878002e409000fe
:101128000040e800204798002e4090008080fb0097
:101138006e4890000080fb000000e900808f50009e
:10114800e1ff350011c0b3004e40900004070700ce
:101158006e4890000080fb0000004000800078008e
:101168005e009000008040008080e900c2cebf0091
:101178000080fb00800878006e4890000080fb002b
:1011880000004000800078006e0090000080400061
:101198008080e900c3cebf000080fb008008780093
:1011a8004e409000de0507000e0037004e409000cc
:1011b800db0507000040eb001047980009003700e6
:1011c8004e409000d60507000040eb0010479800fd
:1011d800040037004e409000d10507000040eb00a6
:1011e800104798001e4090000080fb000080fa0025
:1011f800000006001000fa00404798005147980088
:101208003207980043079800244f98006507980014
:10121800664f980010c0b300104798005e409000d9
:1012280000404000004f78004e409000dc0407006a
:10123800be0090004e4090009b0507001e417800bc
:10124800be0090004e4090007a0607000004e000bf
:1012580057003a004e009000104078000041780096
:10126800be0090004e409000720607000004e000a7
:1012780049003a00be0090004e4090008a050700e1
:101288005e4090000080fb00000040000004a000c9
:10129800004f78001e417800be0090004e4090003c
:1012a800640607000004e00035003a006e4890002c
:1012b800e14f500008003a0011c0b3004e409000c2
:1012c800a7060700c2cebf008080fb006e0090001a
:1012d80001087800260037000040eb0020479800fe
:1012e8000f0037008040eb004e4090009c0607003e
:1012f8002e4090000080fb00000040008000780035
:101308006e00900080804000c2cebf000080fb00cd
:10131800800878002e4090000040e80020479800a0
:101328002e4090008080fb006e4890000080fb00fb
:101338000000e900808f5000eaff350011c0b300bb
:101348004e409000860607006e4890000080fb0023
:1013580000004000800078006e009000008040008f
:101368008080e900c2cebf000080fb0080087800c2
:10137800be0090004e409000910507001100370014
:10138800be0090004e4090008d0507000040eb0025
:10139800104798000b003700be0090004e409000a8
:1013a800870507000040eb0010479800050037004c
:1013b800be0090004e409000810507000040eb0001
:1013c800104798001e4090000080fb000080fa0043
:1013d800000006001200fa004047980051479800a4
:1013e800320798004307980054079800650798004b
:1013f800760798000757980010c0b3001047980068
:101408005e40900000404000004f78004e40900041
:10141800630407004e409000710407009e40780066
:101428004e4090007d0507000004e000bd003a0032
:101438003e00900010007800804078004e409000f8
:10144800760507000004e000b1003a003e00900075
:101458000080e80010007800804078004e4090003e
:101468006e0507000004e000a4003a003e0090006a
:101478006400400010007800804078004e409000e2
:10148800660507000004e00097003a003e0090005f
:101498006600400010007800804078004e409000c0
:1014a8005e0507000004e0008a003a004e40900004
:1014b8004b0407005e4090000080fb0000004000e5
:1014c8000004a000004f78009e4078004e40900035
:1014d800520507000004e00079003a000e50900021
:1014e800e14f500014003a0011c0b3004e40900084
:1014f8001b060700c2cebf008080fb004e00900094
:1015080001087800c3cebf008080fb005e00900019
:1015180001087800c4cebf008080fb006e009000f8
:1015280001087800c5cebf008080fb007e009000d7
:10153800010878005f0037000040eb002047980062
:101548002a0037008040eb004e4090000406070058
:101558002e4090000080fb000000400080007800d2
:101568004e00900080804000c2cebf000080fb008b
:10157800800878002e4090000080fb0000004000aa
:10158800800078005e00900080804000c3cebf00dd
:101598000080fb00800878002e4090000080fb004f
:1015a80000004000800078006e00900080804000bd
:1015b800c4cebf000080fb00800878002e40900059
:1015c8000080fb0000004000800078007e00900052
:1015d80080804000c5cebf000080fb0080087800f6
:1015e8002e4090000040e800204798002e409000d0
:1015f8008080fb000e5090000080fb000000e90096
:10160800808f5000cfff350011c0b3004e409000ce
:10161800d30507000e5090000080fb00000040003a
:10162800800078004e009000008040008080e90033
:10163800c2cebf000080fb00800878000e509000ea
:101648000080fb0000004000800078005e009000f1
:10165800008040008080e900c3cebf000080fb000e
:10166800800878000e5090000080fb0000004000c9
:10167800800078006e009000008040008080e900c3
:10168800c4cebf000080fb00800878000e50900098
:101698000080fb0000004000800078007e00900081
:1016a800008040008080e900c5cebf000080fb00bc
:1016b800800878004e409000990407001d0037000c
:1016c8004e409000960407000040eb001047980039
:1016d800180037004e409000910407000040eb00ce
:1016e80010479800130037004e4090008c04070004
:1016f8000040eb00104798000e0037004e40900065
:10170800870407000040eb001047980009003700e5
:101718004e409000820407000040eb0010479800fc
:10172800040037004e4090007d0407000040eb00a5
:10173800104798001e4090000080fb000080fa00cf
:10174800000006000e00fa00404798005147980034
:10175800320798004307980054079800454f9800af
:1017680010c0b300104798005e4090000040400051
:10177800004f78004e40900089030700be0090009b
:101788004e409000480407009e4078004e4090006c
:10179800a20407000004e00084003a004e00900014
:1017a8001000780000417800be0090004e40900084
:1017b800200507000004e00076003a004e00900083
:1017c8000080e8001000780000417800be0090001a
:1017d8004e409000170507000004e00067003a003b
:1017e8004e0090006400400010007800004178002e
:1017f800be0090004e4090000e0507000004e00077
:1018080058003a004e009000660040001000780032
:1018180000417800be0090004e409000050507008a
:101828000004e00049003a00be0090004e409000dd
:101838001d0407005e4090000080fb00000040008f
:101848000004a000004f78001e417800be00900000
:101858004e409000f70407000004e00035003a000d
:101868004e489000e14f500008003a0011c0b30004
:101878004e4090003a050700c2cebf008080fb00b2
:101888005e00900001087800260037000040eb0059
:10189800204798000f0037008040eb004e40900032
:1018a8002f0507002e4090000080fb00000040003c
:1018b800800078005e00900080804000c2cebf00ab
:1018c8000080fb00800878002e4090000040e8006f
:1018d800204798002e4090008080fb004e489000e2
:1018e8000080fb000000e900808f5000eaff35000f
:1018f80011c0b3004e409000190507004e489000f3
:101908000080fb0000004000800078005e0090002e
:10191800008040008080e900c2cebf000080fb004c
:1019280080087800be0090004e4090002404070014
:1019380023003700be0090004e40900020040700ae
:101948000040eb00104798001d003700be009000d3
:101958004e4090001a0407000040eb001047980022
:1019680017003700be0090004e4090001404070096
:101978000040eb001047980011003700be009000af
:101988004e4090000e0407000040eb0010479800fe
:101998000b003700be0090004e409000080407007e
:1019a8000040eb001047980005003700be0090008b
:1019b8004e409000020407000040eb0010479800da
:1019c8001e4090000080fb000080fa000000060026
:1019d8001800fa00204f980061079800624f98009d
:1019e800030f980024579800250f9800360f980089
:1019f80010c0b300104798006e48900000404000a7
:101a0800004f78008e08900000f02f0000806000e2
:101a18004800de00504798000e0890006047980084
:101a28002e489000de020700ee0090002e4890003d
:101a38009d0307001e417800ee0090002e4890009c
:101a48007c0407000004e00047003a005e41900073
:101a5800ee0090002e489000760407000004e00095
:101a68003b003a006e419000ee0090002e48900036
:101a7800700407000004e0002f003a000040eb006b
:101a880020479800240037002e4090008080fb00fb
:101a98003e08900000804000000040008000780070
:101aa8002e089000008040009000780041079800c0
:101ab8004e00900040479800ce00900000f02f00a4
:101ac800008060004800de00304798003e419000ea
:101ad800ee0090002e489000560407000004e00035
:101ae80005003a004e419000ee0090002e4890000c
:101af8005004070005003700ee0090002e489000c3
:101b0800af0307000040eb00104798002e409000fc
:101b18000040e80020479800ae4090002e5090000a
:101b280080cf5000d8ff3900ee0090002e4890007a
:101b3800a303070011003700ee0090002e48900024
:101b48009f0307000040eb00104798000b00370088
:101b5800ee0090002e489000990307000040eb002b
:101b68001047980005003700ee0090002e489000be
:101b7800930307000040eb00104798001e409000b8
:101b88000080fb000080fa00000006000a00fa004e
:101b9800404798005147980062479800734798005b
:101ba800440798005e4090001047980010c0b300aa
:101bb800204798006e40900000404000004f780099
:101bc8004e409000760207004e40900084020700c5
:101bd8009e4078004e409000900307000004e0000b
:101be80028003a00fe4090004e4090008b0307000a
:101bf8000004e0001e003a004e4090007802070002
:101c08006e4090000080fb00000040000004a0002f
:101c1800004f78009e4078004e4090007f030700f8
:101c28000004e0000d003a0011c0b3004e409000df
:101c38004b0407001e4090008080fb0020ec200031
:101c480000804000904078004e00900001487800e5
:101c58004e409000320307000e0037004e409000bf
:101c68002f0307000040eb002047980009003700c9
:101c78004e4090002a0307000040eb0020479800e0
:101c8800040037004e409000250307000040eb0099
:101c9800204798002e4090000080fb000080fa004a
:101ca800000006001c00fa00604f9800714f980071
:101cb800020f980023579800240f9800350f9800ba
:101cc800460f9800570f980010c0b30010479800af
:101cd8007e48900000404000004f78008e08900039
:101ce80000f02f00008060004800de0030479800b8
:101cf8000e089000404798006e48900028020700a0
:101d08006e489000360207009e4078006e489000aa
:101d1800420307000004e0006f013a00be40900053
:101d28006e4890003d0307000004e00065013a009a
:101d3800ce4090006e489000380307000004e00091
:101d48005b013a006e489000250207007e4890002b
:101d58000080fb00000040000004a000004f780055
:101d68009e4078006e4890002c0307000004e000b5
:101d78004a013a002e509000e14f50005f003a00af
:101d88008040eb006e489000f503070021ec20002e
:101d980091407800690047000148780031ec200044
:101da80091407800690047001140980041ec2000fc
:101db80091407800690047002140980051ec2000cc
:101dc80091407800690047003140980011c0b30085
:101dd8006e489000e203070021ec20009140780053
:101de800650047000148780031ec200091407800f8
:101df800650047001140980041ec200091407800b0
:101e0800650047002140980051ec2000914078007f
:101e180065004700314098004eb897000000400028
:101e2800800078002e08900000814000690047007b
:101e3800104078000080fb00c800dd006500470006
:101e4800104078000080fb000080700000097800d6
:101e58004eb8970000004000800078003e089000cf
:101e68000081400069004700104090000080fb009e
:101e7800c800dd0065004700104090000080fb00ae
:101e880000807000000978004eb8970000004000fc
:101e9800800078004e0890000081400069004700eb
:101ea800204090000080fb00c800dd00650047006e
:101eb800204090000080fb0000807000000978003e
:101ec8004eb8970000004000800078005e0890003f
:101ed8000081400069004700304090000080fb000e
:101ee800c800dd0065004700304090000080fb001e
:101ef8000080700000097800e50037000040eb0022
:101f0800204798006d0037008040eb006e48900035
:101f18009303070021ec20009140780069004700f6
:101f28000148780031ec20009140780069004700b2
:101f38001140980041ec200091407800690047006a
:101f48002140980051ec200091407800690047003a
:101f5800314098008040eb006e48900080030700f5
:101f680021ec200091407800650047000148780086
:101f780031ec20009140780065004700114098003e
:101f880041ec20009140780065004700214098000e
:101f980051ec2000914078006500470031409800de
:101fa8002e4090008080fb004eb8970000804000d3
:101fb80000004000800078002e089000008140005a
:101fc80069004700104078000080fb00c800dd0071
:101fd80065004700104078000080fb00008070001a
:101fe800000978002e4090008080fb004eb89700d2
:101ff8000080400000004000800078003e0890000b
:102008000081400069004700104090000080fb00fc
:10201800c800dd0065004700104090000080fb000c
:1020280000807000000978002e4090008080fb003e
:102038004eb8970000804000000040008000780003
:102048004e08900000814000690047002040900041
:102058000080fb00c800dd006500470020409000bc
:102068000080fb0000807000000978002e4090007e
:102078008080fb004eb897000080400000004000c0
:10208800800078005e0890000081400069004700e9
:10209800304090000080fb00c800dd00650047006c
:1020a800304090000080fb0000807000000978003c
:1020b8002e4090000040e800204798002e409000f5
:1020c8008080fb002e5090000080fb000000e9009b
:1020d800808f50008cff35008040eb006e489000e8
:1020e8001f03070021ec2000914078006900470099
:1020f8000148780031ec20009140780069004700e1
:102108001140980041ec2000914078006900470098
:102118002140980051ec2000914078006900470068
:102128003140980011c0b3006e4890000c030700be
:1021380021ec2000914078006500470001487800b4
:1021480031ec20009140780065004700114098006c
:1021580041ec20009140780065004700214098003c
:1021680051ec20009140780065004700314098000c
:102178002e5090008080fb004eb8970000804000f1
:1021880000004000800078002e0890000080400089
:102198000081e90069004700104078000080fb00da
:1021a800c800dd0065004700104078000080fb0093
:1021b80000807000000978002e5090008080fb009d
:1021c8004eb8970000804000000040008000780072
:1021d8003e089000008040000081e9006900470047
:1021e800104090000080fb00c800dd00650047003b
:1021f800104090000080fb0000807000000978000b
:102208002e5090008080fb004eb897000080400060
:1022180000004000800078004e08900000804000d8
:102228000081e90069004700204090000080fb0021
:10223800c800dd0065004700204090000080fb00da
:1022480000807000000978002e5090008080fb000c
:102258004eb89700008040000000400080007800e1
:102268005e089000008040000081e9006900470096
:10227800304090000080fb00c800dd00650047008a
:10228800304090000080fb0000807000000978005a
:102298006e489000a2010700130037006e489000b6
:1022a8009f0107000040eb00104798000e00370020
:1022b8006e4890009a0107000040eb001047980014
:1022c800090037006e489000950107000040eb00b8
:1022d80010479800040037006e48900090010700ee
:1022e8000040eb00104798001e4090000080fb0063
:1022f8000080fa00000006001200fa00004f980063
:10230800114f9800224f980063079800644f980077
:10231800050f98001e4890001047980010c0b300a1
:10232800204798002e48900000404000004f780059
:102338006e009000604798000e48900098000700d3
:102348000e489000a60007009e4078000e489000b6
:10235800b20107000004e00089003a00ee40900056
:102368000e489000ad0107000004e0007f003a002d
:102378000e4890009a0007002e4890000080fb004d
:10238800000040000004a000004f78009e40780044
:102398000e489000a10107000004e0006e003a001a
:1023a8006e489000e14f50001c003a008040eb005e
:1023b8000e4890006a0207001e4090008080fb00d3
:1023c80020ec2000008040009040780041479800b1
:1023d80011c0b3000e489000610207001e40900033
:1023e8008080fb0020ec20000080400090407800b6
:1023f800514798004e4090000080fb00c800dd0067
:102408005e4090000080fb00008070008000780033
:102418000e089000010878004c0037000040eb00df
:1024280030479800220037008040eb000e489000ab
:102438004b0207001e4090008080fb0020ec20002b
:102448000080400090407800414798008040eb00b1
:102458000e489000420207001e4090008080fb005a
:1024680020ec200000804000904078005147980000
:102478003e4090000080fb00000040008000780093
:102488000e089000008140004e4090000080fb0044
:10249800c800dd005e4090000080fb0000807000f6
:1024a800000978003e4090000040e800304798005e
:1024b8003e4090008080fb006e4890000080fb004a
:1024c8000000e900808f5000d7ff35008040eb0006
:1024d8000e489000220207001e4090008080fb00fa
:1024e80020ec200000804000904078004147980090
:1024f80011c0b3000e489000190207001e4090005a
:102508008080fb0020ec2000008040009040780094
:10251800514798006e4890000080fb000000400082
:10252800800078000e089000008040000081e900db
:102538004e4090000080fb00c800dd005e40900027
:102548000080fb0000807000000978000e489000b1
:10255800f30007000e0037000e489000f000070057
:102568000040eb0020479800090037000e48900013
:10257800eb0007000040eb002047980004003700fc
:102588000e489000e60007000040eb002047980046
:102598002e4090000080fb000080fa00000006003a
:1025a8000400fa00004f78001e80fb001007980016
:1025b8001e0090000000e000040032001e009000a1
:1025c800e10f50000300320003003700dec2a9000b
:1025d80001003700d822a9000080fa000000060098
:1025e8000400fa00004f78001e80fb0010079800d6
:1025f8001e0090000000e000040032001e00900061
:10260800e10f50001800320029003700d202a8005c
:10261800d242a800d262a800d222a800500020000e
:1026280019040700e0c2a8005000200016040700a3
:102638005000200014040700d202a900d242a900c9
:10264800d262a900d222a9000000eb00a0168800df
:10265800500020000c040700e0c2a9005000200030
:102668000904070012003700d802a8005000200013
:1026780005040700da22a800500020000204070021
:102688005000200000040700d802a900d0168000de
:10269800e1ff2f0001006000d016880050002000e4
:1026a800f9030700da22a90050002000f60307000a
:1026b8000080fa00000006000600fa00000f78000b
:1026c800214798001e007800200798002e009000ef
:1026d800e10f5000140032002e009000e10f50006e
:1026e800070039002e009000e20f50001900320058
:1026f8002e009000e30f5000210032002a0037001e
:102708002e4090006140600061416000212d200052
:1027180091407800e0cfb30000c060000240700034
:10272800d2e2b700200037002e40900061406000e0
:10273800614060004201dd00212d200091407800b9
:10274800b0cfb30000c0600002407000d2e2b70012
:10275800150037002e409000614060006140600025
:102768004301dd00212d20009140780070cfb30097
:1027780000c0600002407000d2e2b7000a003700d3
:102788002e409000614060006140600000414000c0
:10279800212d200091407800d0cfb30000c0600008
:1027a80002407000d2e2b7000080fa000000060084
:1027b8000600fa00000f7800214798001e007800f4
:1027c800200798002e009000e10f500014003200fe
:1027d8002e009000e10f5000070039002e009000f5
:1027e800e20f5000190032002e009000e30f500055
:1027f800210032002a0037002e409000614060001e
:1028080061416000412d200091407800e0cfb30085
:1028180000c0600002407000d4e2b700200037001a
:102828002e40900061406000614060004201dd0080
:10283800412d200091407800b0cfb30000c0600067
:1028480002407000d4e2b700150037002e40900017
:1028580061406000614060004301dd00412d2000bf
:102868009140780070cfb30000c060000240700053
:10287800d4e2b7000a0037002e40900061406000a3
:102888006140600000414000412d200091407800e7
:10289800d0cfb30000c0600002407000d4e2b7009f
:1028a8000080fa00000006000400fa00004f7800db
:1028b800110798001e80fb000000e00001003200b4
:1028c8001500370011c0b3001e0090007aff070002
:1028d800500020006c030700e0c2a8005000200050
:1028e8006903070050002000670307008040eb00e1
:1028f8001e00900070ff07008040eb001e00900053
:10290800abff0700500020005f030700e0c2a900ea
:10291800500020005c0307000080fa000000060059
:102928000400fa00004f78001e80fb001007980092
:102938001e0090000000e000040032001e0090001d
:10294800e10f5000110032001b003700d202a9002d
:10295800d242a900d262a900d222a9000000eb004d
:10296800a01688005000200047030700e0c2a80016
:102978005000200044030700d202a800d242a80059
:10298800d262a800d222a8000b003700d802a90002
:10299800d0168000e1ff2f0001006000d0168800eb
:1029a8005000200038030700da22a8005000200059
:1029b80035030700d802a8000080fa0000000600ce
:1029c8000400fa00004f7800110798001e80fb00f1
:1029d8000000e000010032000e0037008040eb00ec
:1029e8001e00900034ff07008040eb001e0090009e
:1029f8006fff07005000200023030700e0c2a80073
:102a0800500020002003070011c0b3001e009000f2
:102a180029ff07000080fa00000006000600fa00ff
:102a280020479800314798000040eb00004f78009d
:102a38002e4090000080fb00200798002e00900098
:102a48000000e000040032002e009000e10f50006a
:102a58004000320074003700d202a900d242a90017
:102a6800d262a900d222a90080c0b3001047980002
:102a780021003700e0c2a9003e4090000080fb0022
:102a88004700de000004e00003003200f0002000f0
:102a9800a0168800020037000000eb00a01688008e
:102aa80050002000f8020700e0c2a80050002000f3
:102ab800f5020700e0c2a9001e409000e14f500057
:102ac80005003a00d202a800d242a800d262a800ab
:102ad800d222a8000500370050002000ea020700b3
:102ae8003e40900000404000304798001e40900053
:102af8000040e900104798001e4090000004e000e4
:102b0800dcff3a000000eb00a0168800d202a80003
:102b1800d242a800d262a800d222a800e0c2a9002e
:102b280050002000d8020700e0c2a8000040eb00d7
:102b3800004f780050002000d3020700e0c2a9002f
:102b4800d202a900d242a900d262a900d222a900c9
:102b580035003700d802a90080c0b300104798009c
:102b68001f003700da22a9003e4090000080fb00d9
:102b78004700de000004e00002003200da02a8008c
:102b880004003700d0168000e1ff2f00010060002c
:102b9800d016880050002000bb020700da22a800e7
:102ba80050002000b8020700da22a9001e40900059
:102bb800e14f500002003a00d802a8000500370093
:102bc80050002000b00207003e4090000040400046
:102bd800304798001e4090000040e90010479800d8
:102be8001e4090000004e000deff3a00d11680008d
:102bf800e0ff2f0000806000d0168800d802a800ef
:102c0800da22a900500020009f020700da22a8005b
:102c18000040eb00004f7800500020009a020700a7
:102c2800da22a900d802a9001e80fb000080fa0061
:102c3800000006000800fa002047980021079800c5
:102c4800624798000040eb00004f78002e4090004b
:102c58000080fb000000e000010032003d0037006a
:102c68008040eb002e00900093fe070080c0b30068
:102c78001047980022003700e0c2a9006e4090007b
:102c88000080fb004700de000004e0000400320082
:102c980011c0b3002e009000c5fe070003003700e6
:102ca8008040eb002e009000c1fe0700500020007d
:102cb80075020700e0c2a800500020007202070059
:102cc800e0c2a9001e409000e14f500004003a0005
:102cd80011c0b3002e00900077fe070005003700f2
:102ce80050002000680207006e409000004040003d
:102cf800604798001e4090000040e9001047980087
:102d08001e4090000004e000dbff3a008040eb002a
:102d18002e009000a6fe070011c0b3002e00900000
:102d280065fe0700e0c2a900500020005602070017
:102d3800e0c2a8000040eb00004f780050002000df
:102d480051020700e0c2a9008040eb002e0090006d
:102d580059fe07001e80fb000080fa0000000600f4
:102d68000600fa0020479800314798002e4090004e
:102d78000080fb00200798002e0090000000e00073
:102d8800040032002e009000e10f50004d00320088
:102d98008c003700d202a800d242a800d262a80054
:102da800d222a800e0c2a90080c0b300004f78007a
:102db8002f0037005000200033020700c2cebf00aa
:102dc80000404000c2eeb700c3cebf000040400044
:102dd800c3eeb700c4cebf0000404000c4eeb70049
:102de800c5cebf0000404000c5eeb700e0c2a80055
:102df80021ec200091407800d4c2bf0061406000ff
:102e080000c07000c2eeb70031ec2000914078009d
:102e1800d4c2bf000080fb004200de0061406000b9
:102e280000c07000c3eeb70041ec2000914078006c
:102e3800d4c2bf000080fb004300de006140600098
:102e480000c07000c4eeb70051ec2000914078003b
:102e5800d4c2bf000080fb000000d10061406000c8
:102e680000c07000c5eeb700e0c2a9001e4fe9001f
:102e78001e04e000cfff3a00d202a900d242a90006
:102e8800d262a900d222a9003e409000e14f500032
:102e980003003a00f0002000a01688000200370066
:102ea8000000eb00a016880050002000f601070083
:102eb800e0c2a80050002000f3010700e0c2a9000a
:102ec80040003700d802a800da22a90080c0b30069
:102ed800004f78002900370050002000ea01070061
:102ee800c2cebf0000404000c2eeb700c3cebf0054
:102ef80000404000c3eeb700c4cebf000040400011
:102f0800c4eeb700c5cebf0000404000c5eeb70014
:102f1800da22a80021ec200091407800dac2bf0034
:102f28006140600000c07000c2eeb70031ec2000c4
:102f380091407800dac2bf006140600000c07000b4
:102f4800c3eeb70041ec200091407800dac2bf0020
:102f58006140600000c07000c4eeb70051ec200072
:102f680091407800dac2bf006140600000c0700084
:102f7800c5eeb700da22a9001e4fe9001e04e000e2
:102f8800d5ff3a00d802a9003e409000e14f50001a
:102f980002003a00da02a80004003700d0168000c8
:102fa800e1ff2f0001006000d016880050002000cb
:102fb800b5010700da22a80050002000b20107007e
:102fc800da22a9000080fa0000000600801f7800bd
:102fd8000000fa0010c0b30060e8b7008460a900e0
:102fe8000080fa004f007800004006003600f80024
:102ff800809fbe00829fbe00849fbe00869fbe0049
:103008000000fa0010c0b30061e8b70086cebf0028
:103018000004e0003900320060758000800078000c
:1030280000f02f00008060004800de009ceeb70032
:10303800607580008040780000c0eb0000c0600030
:103048009deeb700707580008000780000f02f00ba
:10305800008060004800de009eeeb70070758000ba
:103068008040780000c0eb0000c060009feeb70011
:10307800807580008000780000f02f0000806000dc
:103088004800de00a0eeb700807580008040780020
:1030980000c0eb0000c06000a1eeb70010c0b30094
:1030a800a2f407000004e000fcff32004174800035
:1030b800007c2000008060004501dd004174800034
:1030c800f0032000008060004200dd000000710075
:1030d800800078003100b300c08f2f0000806000ae
:1030e80015c0b30064c0b300c1e92000821f2000ee
:1030f800030020009ff40700a022a80084c0a900b4
:103108000080fa004f03be004f02be004f01be0010
:103118004f00be003600f900004006003600f800f7
:10312800809fbe00829fbe00849fbe00869fbe0017
:103138000000fa0096c3bf00644060000004e0008d
:1031480008003a0096c3bf00684060000004e00031
:1031580004003a0096c3bf00704060000004e0001d
:1031680001003200a007070096c3bf00614060005d
:103178000004e00004003a0096c3bf00624060000b
:103188000004e00001003200d00707008760a900b2
:103198000080fa004f03be004f02be004f01be0080
:1031a8004f00be003600f900004006000a00fa0091
:1031b8000000eb00100798000000eb00000f7800fb
:1031c800241507002bcebf000080fb00c0728800ca
:1031d800f0738000e31507000040eb00e4f50700fa
:1031e800c7150700d20607000000eb00400798004b
:1031f8000d003700ce009000804128006140780023
:103208003b050700ce00900080412800614078000f
:103218000d060700c0d129001b0107004e009000d1
:103228000000e800400798004e009000e30f5000af
:10323800f0ff36000000eb00400798002800370038
:103248000000eb00300798001f0037000000eb007b
:103258002007980016003700ce0190003e0090002d
:103268002e0290006300b900000178006c18b900c4
:1032780000004100040040008000400020c32000fe
:10328800808040000000eb00800878002e0090004d
:103298008000400020c92000808040000000eb0032
:1032a800800878002e0090000000e80020079800b1
:1032b8002e009000e20f5000e7ff36003e0090001d
:1032c8000000e800300798003e009000e30f50002f
:1032d800deff36004e0090000000e800400798002e
:1032e8004e009000e30f5000d5ff36000000eb00c1
:1032f80040079800320037004e0090004065880073
:1033080022e52000ce00900080412800e1407800ae
:1033180076c0b30025b0200024af200013c0b3004e
:103328000040eb002df707000000eb002007980095
:103338001d0037004e019000ae0190002e00900055
:103348008000400020af200000804000100278007c
:103358004310dd00030040008000400020b320003f
:1033680000804000040878004e019000ae019000f3
:103378002e0090008000400020b020000080400017
:10338800100278004310dd00030040008000400078
:1033980020b7200000804000040878002e0090002c
:1033a8000000e800200798002e009000e70f50006a
:1033b800e0ff36004e0090000000e800400798004b
:1033c8004e009000e30f5000cbff36000000eb00ea
:1033d80040079800320037004e0090004065880092
:1033e80022e52000ce00900080412800e1407800ce
:1033f80076c0b30025b0200024af200013c0b3006e
:103408000040eb00f5f607000000eb0020079800ed
:103418001d0037004e019000ae0190002e00900074
:103428008000400020af200000804000100278009b
:103438004310dd00030040008000400020b320005e
:1034480000804000040878004e019000ae01900012
:103458002e0090008000400020b020000080400036
:10346800100278004310dd00030040008000400097
:1034780020b7200000804000040878002e0090004b
:103488000000e800200798002e009000e70f500089
:10349800e0ff36004e0090000000e800400798006a
:1034a8004e0090000000e000cbff32000000eb006f
:1034b80010079800e2a2a8008f60a8008c60a900fd
:1034c8008cc0a9000040eb0060e8b70061c8bf00ed
:1034d8008acebf000004e00006003a008ccebf0090
:1034e8000004e00003003a008bcebf000004e000b7
:1034f8000500320061c8bf000004e000020032008d
:103508000040eb0061e8b70060c8bf00e14f500021
:103518005a003a000000eb00000f78000040eb0072
:1035280060e8b7000000eb00400798001e0090001c
:10353800f40f500009003a00e2c2bf000042b20096
:103548000004e00002003200e2a2a90001003700f6
:10355800e2a2a8000000eb00100798001e009000ef
:103568000000e800100798000000eb0040079800f2
:103578003f0037004e009000406588000000eb00d7
:10358800200798001d0037004e019000ae01900002
:103598002e0090008000400020af200000804000f6
:1035a800100278004310dd00030040008000400056
:1035b80020b3200000804000040878004e019000ed
:1035c800ae0190002e0090008000400020b0200046
:1035d80000804000100278004310dd000300400026
:1035e8008000400020b720000080400004087800d8
:1035f8002e0090000000e800200798002e009000a0
:10360800e70f5000e0ff360022e52000ce009000d2
:1036180080412800e140780076c0b30025b0200042
:1036280024af200013c0b3000040eb006bf6070086
:103638000000eb0030079800070037003e009000bc
:10364800804078000040eb00370007003e00900003
:103658000000e800300798003e009000e10f50009d
:10366800f6ff36004e0090000000e8004007980082
:103678004e009000e30f5000beff3600c07280007d
:103688000107070092ff37000200fa00000f7800d8
:10369800010037001e0fe9001e00e000fdff3a00a0
:1036a8000080fa00000006000800fa00000f780009
:1036b800110798001e007800300798009e009000bf
:1036c800210798002e009000be009000810f500046
:1036d800020031003e009000200798002e00900064
:1036e8000080fa00000006000800fa00000f7800c9
:1036f800110798001e007800300798009e0090007f
:10370800210798002e009000be009000810f500005
:10371800020036003e009000200798002e0090001e
:103728000080fa00000006000c00fa00204f980004
:10373800314f980000702000b06588003e48900026
:103748000080fb004200dd008000780040658000ba
:10375800808070002bcebf000080fb004400dd009d
:1037680080807000b065800000807000b0658800bf
:103778003e4890000004e00017003a000000eb000b
:10378800000f78000b0037001e0178001e0078003b
:103798008000400020af200000804000100078002a
:1037a800804078000e80e800000041000148780061
:1037b8001e0fe800600020009e0f1000f2ff360088
:1037c8003e4890000040e800804078000e80e80005
:1037d800714098004d0037003e489000e14f50007e
:1037e80017003a000000eb00000f78000b003700cc
:1037f8001e0178001e0078008000400020b02000e4
:103808000080400010007800804078000e80e800ba
:1038180000004100014878001e0fe8006000200009
:103828009e0f1000f2ff36003e4890000040e8006e
:10383800804078000e80e80071409800330037001f
:103848003e489000e24f500017003a000000eb009d
:10385800000f78000b0037001e0178001e0078006a
:103868008000400020b12000008040001000780057
:10387800804078000e80e800000041000148780090
:103888001e0fe800600020009e0f1000f2ff3600b7
:103898003e4890000040e800804078000e80e80034
:1038a80071409800190037003e489000e34f5000df
:1038b80016003a000000eb00000f78000b003700fc
:1038c8001e0178001e0078008000400020b2200011
:1038d8000080400010007800804078000e80e800ea
:1038e80000004100014878001e0fe8006000200039
:1038f8009e0f1000f2ff36003e4890000040e8009e
:10390800804078000e80e80071409800b46580001f
:103918000e80e8008001780082c0b30011c0b300b7
:10392800040078004d0507000080fa00000006003a
:103938001600fa00889fbe0000579800110f9800e3
:1039480042579800000b200030079800a00f200075
:1039580020079800a0002000100798006800470082
:10396800c141280007000900315878008000b100e3
:1039780000702000b06588004e5090000080fb0069
:103988004200dd0080007800406580008080700083
:103998002bcebf000080fb004400dd00808070005b
:1039a800b065800000807000b06588004e509000bf
:1039b8000004e000cf003a000000eb00000f7800a0
:1039c8000b0037001e0178001e00780080004000c0
:1039d80020af200000804000100078008040780070
:1039e8006800470000004100014878001e0fe80009
:1039f800700020009e0f1000f2ff36000000eb0060
:103a0800000f7800b70037001e0478001e00780009
:103a1800000040000000e8008000400020af2000c7
:103a280000804000100178001e0890009e00780079
:103a38004300dd00010040008000400020b320006a
:103a480000804000100078008200780016ff070010
:103a5800800478001e007800000040000000e800a4
:103a68008000400020af2000008040001001780056
:103a78001e0890009e0078004300dd000100400011
:103a88008000400020b32000008040001000780033
:103a98008200780014ff07000080540000017800bd
:103aa8008800440020c920000080400002087800f7
:103ab8001e0078008000400020c9200000804000df
:103ac800900078003e009000808f5000550035002f
:103ad8001e0890009e0078004300dd0001004000b1
:103ae8008000400020b320000080400010017800d2
:103af8001e007800000040000000e8008000400040
:103b080020af20000080400010007800800f510096
:103b1800180036009e0a90004e5090008081fb00ed
:103b28001e0378006318b900000178006c28b900fa
:103b380000004100060040008000400020c3200033
:103b480000804000100078000002e8006318b90007
:103b5800000178006c28b900000041000600400010
:103b68008000400020c32000008040000408780046
:103b78002c0037001e0890009e0078004300dd00ee
:103b8800010040008000400020b320000080400079
:103b9800100178001e007800000040000000e800d6
:103ba8008000400020af2000008040001000780016
:103bb800800f51001b0031009e0a90004e5090006b
:103bc8000083fb009e0378009e0990004e509000f1
:103bd8000080fb001e0278006300b9000001780035
:103be8006c18b9000000410004004000800040004b
:103bf80020c3200000804000100078008001e90008
:103c08006330b900000178006c28b9000000410059
:103c1800070040008000400020c3200000804000d2
:103c2800030878009e0990004e5090000080fb0029
:103c38001e0278006300b900000178006c18b90012
:103c480000004100040040008000400020c3200024
:103c580000804000100078000000e00009003400f7
:103c68001e007800000040000001e8002e009000cf
:103c78008040780068004700000041000148780053
:103c8800170037009e0990004e5090000080fb00fe
:103c98001e0278006300b900000178006c18b900b2
:103ca80000004100040040008000400020c32000c4
:103cb80000804000100078000000e00008003d008f
:103cc8001e007800000040000001e8001e0090007f
:103cd80080407800680047000000410001487800f3
:103ce8001e0fe800210020009e8f100046ff3600be
:103cf800750237004e509000e14f5000cf003a0057
:103d08000000eb00000f78000b0037001e01780060
:103d18001e0078008000400020b020000080400095
:103d280010007800804078006800470000004100db
:103d3800014878001e0fe800700020009e0f100058
:103d4800f2ff36000000eb00000f7800b7003700e4
:103d58001e0478001e007800000040000000e80003
:103d68008000400020b02000008040001001780052
:103d78001e0890009e0078004300dd00010040000e
:103d88008000400020b7200000804000100078002c
:103d98008200780044fe0700800478001e00780046
:103da800000040000000e8008000400020b0200033
:103db80000804000100178001e0890009e007800e6
:103dc8004300dd00010040008000400020b72000d3
:103dd80000804000100078008200780042fe070052
:103de80000805400000178008800440020c92000a9
:103df80000804000020878001e0078008000400023
:103e080020c9200000804000900078003e0090000b
:103e1800808f5000550035001e0890009e007800e5
:103e28004300dd00010040008000400020b7200072
:103e380000804000100178001e007800000040005b
:103e48000000e8008000400020b020000080400012
:103e580010007800800f5100180036009e0a90006c
:103e68004e5090008081fb001e0378006318b90053
:103e7800000178006c28b9000000410006004000ed
:103e88008000400020c3200000804000100078001f
:103e98000002e8006318b900000178006c28b90036
:103ea80000004100060040008000400020c32000c0
:103eb80000804000040878002c0037001e0890009d
:103ec8009e0078004300dd000100400080004000b3
:103ed80020b7200000804000100178001e00780004
:103ee800000040000000e8008000400020b02000f2
:103ef8000080400010007800800f51001b00310046
:103f08009e0a90004e5090000083fb009e037800ac
:103f18009e0990004e5090000080fb001e02780021
:103f28006300b900000178006c18b9000000410076
:103f3800040040008000400020c3200000804000b2
:103f4800100078008001e9006330b90000017800b2
:103f58006c28b900000041000700400080004000c4
:103f680020c3200000804000030878009e099000cc
:103f78004e5090000080fb001e0278006300b900dc
:103f8800000178006c18b9000000410004004000ee
:103f98008000400020c3200000804000100078000e
:103fa8000000e000090034001e0078000000400016
:103fb8000001e8002e00900080407800680047006b
:103fc8000000410001487800170037009e09900062
:103fd8004e5090000080fb001e0278006300b9007c
:103fe800000178006c18b90000004100040040008e
:103ff8008000400020c320000080400010007800ae
:104008000000e00008003d001e00780000004000ad
:104018000001e8001e00900080407800680047001a
:1040280000004100014878001e0fe8002100200030
:104038009e8f100046ff3600a30137004e509000b7
:10404800e24f5000cf003a000000eb00000f78006c
:104058000b0037001e0178001e0078008000400029
:1040680020b12000008040001000780080407800d7
:104078006800470000004100014878001e0fe80072
:10408800700020009e0f1000f2ff36000000eb00c9
:10409800000f7800b70037001e0478001e00780073
:1040a800000040000000e8008000400020b120002f
:1040b80000804000100178001e0890009e007800e3
:1040c8004300dd00010040008000400020bb2000cc
:1040d80000804000100078008200780072fd070020
:1040e800800478001e007800000040000000e8000e
:1040f8008000400020b120000080400010017800be
:104108001e0890009e0078004300dd00010040007a
:104118008000400020bb2000008040001000780094
:104128008200780070fd07000080540000017800cc
:104138008800440020c92000008040000208780060
:104148001e0078008000400020c920000080400048
:10415800900078003e009000808f50005500350098
:104168001e0890009e0078004300dd00010040001a
:104178008000400020bb2000008040001001780033
:104188001e007800000040000000e80080004000a9
:1041980020b120000080400010007800800f5100fe
:1041a800180036009e0a90004e5090008081fb0057
:1041b8001e0378006318b900000178006c28b90064
:1041c80000004100060040008000400020c320009d
:1041d80000804000100078000002e8006318b90071
:1041e800000178006c28b90000004100060040007a
:1041f8008000400020c320000080400004087800b0
:104208002c0037001e0890009e0078004300dd0057
:10421800010040008000400020bb200000804000da
:10422800100178001e007800000040000000e8003f
:104238008000400020b1200000804000100078007d
:10424800800f51001b0031009e0a90004e509000d4
:104258000083fb009e0378009e0990004e5090005a
:104268000080fb001e0278006300b900000178009e
:104278006c18b900000041000400400080004000b4
:1042880020c3200000804000100078008001e90071
:104298006330b900000178006c28b90000004100c3
:1042a800070040008000400020c32000008040003c
:1042b800030878009e0990004e5090000080fb0093
:1042c8001e0278006300b900000178006c18b9007c
:1042d80000004100040040008000400020c320008e
:1042e80000804000100078000000e0000900340061
:1042f8001e007800000040000001e8002e00900039
:1043080080407800680047000000410001487800bc
:10431800170037009e0990004e5090000080fb0067
:104328001e0278006300b900000178006c18b9001b
:1043380000004100040040008000400020c320002d
:1043480000804000100078000000e00008003d00f8
:104358001e007800000040000001e8001e009000e8
:10436800804078006800470000004100014878005c
:104378001e0fe800210020009e8f100046ff360027
:10438800d10037004e509000e34f5000ce003a0065
:104398000000eb00000f78000b0037001e017800ca
:1043a8001e0078008000400020b2200000804000fd
:1043b8001000780080407800680047000000410045
:1043c800014878001e0fe800600020009e0f1000d2
:1043d800f2ff36000000eb00000f7800b70037004e
:1043e8001e0478001e007800000040000000e8006d
:1043f8008000400020b220000080400010017800ba
:104408001e0890009e0078004300dd000100400077
:104418008000400020bf200000804000100078008d
:1044280082007800a0fc0700800478001e00780055
:10443800000040000000e8008000400020b220009a
:1044480000804000100178001e0890009e0078004f
:104458004300dd00010040008000400020bf200034
:104468000080400010007800820078009efc070061
:1044780000805400000178008800440020c9200012
:1044880000804000020878001e007800800040008c
:1044980020c9200000804000900078003e00900075
:1044a800808f5000550035001e0890009e0078004f
:1044b8004300dd00010040008000400020bf2000d4
:1044c80000804000100178001e00780000004000c5
:1044d8000000e8008000400020b22000008040007a
:1044e80010007800800f5100180036009e0a9000d6
:1044f8004e5090008081fb001e0378006318b900bd
:10450800000178006c28b900000041000600400056
:104518008000400020c32000008040001000780088
:104528000002e8006318b900000178006c28b9009f
:1045380000004100060040008000400020c3200029
:1045480000804000040878002c0037001e08900006
:104558009e0078004300dd0001004000800040001c
:1045680020bf200000804000100178001e00780065
:10457800000040000000e8008000400020b2200059
:104588000080400010007800800f51001b003100af
:104598009e0a90004e5090000083fb009e03780016
:1045a8009e0990004e5090000080fb001e0278008b
:1045b8006300b900000178006c18b90000004100e0
:1045c800040040008000400020c32000008040001c
:1045d800100078008001e9006330b900000178001c
:1045e8006c28b9000000410007004000800040002e
:1045f80020c3200000804000030878009e09900036
:104608004e5090000080fb001e0278006300b90045
:10461800000178006c18b900000041000400400057
:104628008000400020c32000008040001000780077
:104638000000e000090034001e007800000040007f
:104648000001e8002e0090008040780068004700d4
:104658000000410001487800170037009e099000cb
:104668004e5090000080fb001e0278006300b900e5
:10467800000178006c18b9000000410004004000f7
:104688008000400020c32000008040001000780017
:104698000000e00008003d001e0078000000400017
:1046a8000001e8001e009000804078006800470084
:1046b80000004100014878001e0fe800210020009a
:1046c8009e8f100046ff3600b465800068004700e2
:1046d8008001780082c0b30011c0b30004007800e4
:1046e800de0107004f04be000080fa00000006004b
:1046f8005400fa0020d798000000eb00700f9800d3
:1047080000072000600f9800200320000e004000e2
:104718004143280007000900311878000001b10062
:10472800c0002000500f98000000eb00400f9800d8
:1047380000002600300f98000000eb00200f9800c2
:104748000000eb00100f980000402000000f9800b8
:10475800003c2000700798000000eb0060079800fc
:104768000000eb0050079800000220004007980066
:10477800200420000e0040004142280007000900e4
:10478800311878000001b10040012000300798007e
:104798000000eb00200798000000eb0010179800bd
:1047a800790037009e1190001e1090002103200010
:1047b8008e80400000004000608078004401dd00e9
:1047c800210320008e8040000380410002b0780061
:1047d8009e1190001e109000210420008e80400041
:1047e80000004000608078004501dd0021042000c1
:1047f8008e8040000380410002b078001e109000b7
:10480800210320008e80400000004000e0807800f6
:104818007e089000808070005e08900080807000a4
:10482800400220000e00400001087800ce089000e9
:104838003e089000808070002e08900080807000f4
:104848001e089000808070000e0890008080700024
:104858007e009000808070006e0090008080700064
:10486800400220000e004000110098001e10900029
:10487800210420008e80400000004000e080780085
:104888005e009000808070003e0090008080700084
:104898002e00900080807000400220000e00400032
:1048a800210098001e1090008000d100804128004f
:1048b800614078000080fb00100798001e109000ef
:1048c800610f60000000eb00001798002800370017
:1048d80081c9200000062000800878000e10900092
:1048e800410220008e80400000004000e0807800f7
:1048f80000f02f00008060004800de008000780093
:1049080080c92000110098000e109000410220007c
:104918008e804000000040006080780080007800b1
:10492800f00f20008080600080c9200021009800de
:104938000e1090004200dd008000780080c9200041
:10494800310098001e0090008040780015c0b30028
:1049580024ae200083c920001e0178000040eb002f
:1049680078f307000e1090000000e8000017980088
:104978000e109000e20f5000d5ff36001e10900078
:104988000000e800101798001e109000e70f500074
:1049980084ff360040002000101798001a003700e6
:1049a80081c92000000620008008780081c9200005
:1049b8000000eb009000980081c920000000eb0087
:1049c800a00098001e1090004200dd0080007800d2
:1049d80080c920003100980017c0b30026b220001b
:1049e80025b1200024b0200023af200082c9200078
:1049f800aed090000040eb0076f207001e10900049
:104a08000000e800101798001e109000e60f5000f4
:104a1800e3ff360042e5200016c0b30025b02000b1
:104a280024af200013c0b300aed090000040eb00cc
:104a38006af107008040eb000040eb003afb0700fa
:104a48000080fa00000006007a00fa0000ff9800d3
:104a5800f20047000008200080087800f2004700b4
:104a68000008200090009800f2004700c0002000d5
:104a7800a000980078004700414428002f00090052
:104a8800311878000006b10062e5200016c0b300b6
:104a980025b0200024af200013c0b3008ef890008a
:104aa8000040eb004df107008040eb000040eb00b8
:104ab8001dfb0700c0d12900f3fa0700ec004700ee
:104ac8000000280080087800ec004700000028005b
:104ad80090009800ec00470000002500a000980016
:104ae8000000eb00500798003c0037000000eb0086
:104af80040079800330037005e009000ce00900019
:104b0800780147004400dd0001004000000040003b
:104b1800e0007900310798003e0090004800dd0071
:104b2800300798004e0090008000d1008041280096
:104b3800614078000080fb00100798004e0090004c
:104b4800610f600081c920000006200080087800fd
:104b5800be00900000f02f00008060004800de00da
:104b68008000780080c9200011009800be009000e5
:104b7800f00f20008080600080c92000210098008c
:104b88005e009000640040004200dd008000780074
:104b980080c92000310098001e00900080407800f5
:104ba80015c0b30024ae200083c920001e01780080
:104bb8000040eb00e3f207004e0090000000e80020
:104bc800400798004e009000e70f5000caff3600db
:104bd8005e0090000000e800500798005e0090001a
:104be800e20f5000c1ff360042e5200016c0b300b6
:104bf80025b0200024af200013c0b3008ef8900029
:104c08000040eb00f5f007000080fa000000060005
:104c18000000fa008f60a90000c0200060ee0700c5
:104c280090c3bf000080fb004500de000080fb0051
:104c3800e30f5000faff34002bcebf008080fb004a
:104c48000020200080807000007c20000080600030
:104c58004201dd002bcebf008080fb000020200039
:104c680080807000f0032000008060004200dd00ba
:104c7800000071000000a00080007800c0ff210043
:104c8800808060006011b8000040eb000aee070069
:104c98002bcebf008080fb00007020008080700059
:104ca800007c2000008060004201dd002bcebf00a8
:104cb8008080fb000070200080807000f0032000de
:104cc800008060004200dd00000071000000a000cc
:104cd80080007800c0ff2100808060006011b8006b
:104ce80020c0b300f4ed07006011b800c1c3210073
:104cf80010c0b300f0ed07006011b800d1c3210067
:104d08000040eb0018ee07006011b800d1c3210085
:104d180010c0b30014ee07007fed070000802000ec
:104d28001fee07008f60a8000080fa000000060050
:104d38000600fa000040eb00404798000000eb0036
:104d4800100798000000eb00000f78008f60a900a2
:104d5800a1ff2f007000200026ee07000080eb0066
:104d6800306688000000eb00406688000000eb0019
:104d7800506688000000eb00100798001900370003
:104d88000000eb00000f7800090037001e009000bb
:104d98001e0178006e00b9008200400040de20004d
:104da800808040000040eb00804878001e0fe8003b
:104db800700020009e0f1000f4ff36001e009000c7
:104dc800c27280006e00b900e800400040de20009a
:104dd80000804000020878001e0090000000e800f3
:104de800100798001e009000e30f5000e4ff360003
:104df80000c02000eaed070090c3bf000080fb0060
:104e08004500de000080fb00e30f5000faff34008d
:104e1800014920000000eb0041ed07007cff07007e
:104e2800310020004e409000e7ed070041002000cf
:104e38004e409000dced07000040eb003bed070022
:104e48000004e000fcff320000802000d4ed0700e1
:104e58008f60a9000080fa00000006000a00fa002e
:104e68001007980041479800524798003307980068
:104e78000040eb00004f78008f60a900306680008a
:104e8800f20f500030003c00306680000000e8005f
:104e980030668800306680006e00b900e800400087
:104ea800c0cc2000008040009e00900001087800df
:104eb800306680006e00b900ec004000c0cc2000d5
:104ec80000804000de409000014878000040eb0080
:104ed800004f78000d003700326680009e81fb008d
:104ee8001e80fb00800078003e009000008040009b
:104ef800104278006e10b90083004000c0cc20003a
:104f080000804000044878001e4fe8005e40900092
:104f18009e4f1000f0ff3900306680000000e0006e
:104f280005003a000040eb0000ed07000004e00037
:104f3800fcff32009643a8008f60a8000000eb0039
:104f480040079800250037000080eb003066880095
:104f58000070200010079800c0728000c400dd00b7
:104f68001e00900001007000100798001e009000bd
:104f78005000b300100798000040eb00ebec07006e
:104f88000004e000fcff32009e009000007c20003e
:104f9800008060004501dd009e009000f0032000c5
:104fa800008060004200dd00000071008000780091
:104fb8003100b300c08f2f00008060008042eb00fa
:104fc8000042eb00be009000821f2000030020007a
:104fd800e8ec0700f10f2000410798004e00900010
:104fe8000080fa00000006000200fa000040eb0012
:104ff800004f780030668000e10f40002c0032003e
:105008001e417800306680006e00b900ec00400058
:10501800c0cc2000008040009041780030668000bd
:105028006e00b90080007800c0cc200000834000ea
:10503800306680006e00b900e8004000c0cc200057
:105048000080400090007800007c20000080600014
:105058004502dd00306680006e00b900e8004000bf
:10506800c0cc20000080400090007800f0032000b1
:10507800008060004200dd000000720080007800bf
:105088003100b300c08f2f0000806000824278009a
:105098000342780086007800821f20000300200069
:1050a800b4ec0700306680000000e9003066880034
:1050b80090c3bf006e406000e84f500001003a0006
:1050c8009643a9000080fa00000006000600fa00d6
:1050d8000000eb002007980096c3bf006140600005
:1050e8000004e000040032009603a9000000eb0071
:1050f800200798000700370096c3bf006240600091
:105108000004e000030032009623a90010002000ec
:105118002007980040668000e30f500003003c0021
:10512800406680000000e80040668800800020009b
:10513800000f78000000eb00100798004b003700c4
:105148002e0090000000e00023003a004066800036
:105158000001e9009e0190009e0090006038200048
:1051680000804000104278006e10b90083004000b3
:1051780040de20000080400004487800406680003f
:105188000001e900001c80004200de00f17f2000e1
:1051980001006000800178006e10b900e80040004e
:1051a80040de200000804000030878004066800050
:1051b8008000e90084c3bf006f40600000417800b0
:1051c8006e08b900ec00400040de2000008040007e
:1051d8000248780022003700406680000001e9009c
:1051e8009e0190009e0090006037200000804000e3
:1051f800104278006e10b9008300400040de2000a5
:105208000080400004487800406680000001e90002
:10521800801b80004200de00f17f2000010060005a
:10522800800178006e10b900e800400040de2000e0
:105238000080400003087800406680008000e90094
:1052480074c3bf006f406000004178006e08b90069
:10525800ec00400040de200000804000024878005a
:105268001e0090000000e800100798001e00900043
:105278009e0f5000b2ff39008ee3a9007ee3a9001b
:105288000080fa00000006002200fa00400f980093
:105298000000eb00200f9800e8043700406680000b
:1052a8000000e9006e00b900e800400040de200080
:1052b80000804000900078000070200000806000ae
:1052c800300f9800c0728000c400dd003e089000d6
:1052d80001007000300f9800406680000000e9006f
:1052e8006e00b900e800400040de20000080400069
:1052f800100078004400de00ef0060003e089000d7
:1053080001007000300f9800406680000000e9003e
:105318006e00b900e800400040de20000080400038
:1053280090007800007020008080600000702000ed
:10533800808f50000b003a00406680000000e900b2
:105348006e00b900e800400040de20000080400008
:1053580010007800ef006000c0728000808f50005d
:105368000a003200406680000000e9006e00b900c3
:10537800e800400040de2000008040001000780077
:105388006f006000ef0f5000fa003a008c60a9002f
:105398008cc0a900406680000000e9006e00b900da
:1053a8008000780040de2000008040001040780037
:1053b8000080fb00001798000e109000ec0f5000c2
:1053c800cd0032008e109000ec8f500007003c009a
:1053d8000e1090000000e000670032008e10900070
:1053e800e48f50003d003200e20037000e109000bc
:1053f800ed0f500088003200f00f20008e10900052
:10540800808f500001003200da00370040668000cb
:105418000000e9006e00b9008000780040de20003e
:105428008080400000c0eb00804878004066800023
:105438000000e9006e00b9008000e80040de2000ae
:105448008080400050c0b3008048780040668000eb
:105458000000e9006e00b9008080e80040de20000e
:105468008080400020c0b3008048780040668000fb
:105478000000e9006e00b900e300400040de2000b3
:105488008080400010c1b3008048780040668000ea
:105498000000e9006e00b900e400400040de200092
:1054a800808040000040eb00804878004066800023
:1054b8000000e9006e00b9008000780040de20009e
:1054c800008040008001780052c0b30011c0b300d2
:1054d8003e08900061fe0700a60037004066800085
:1054e8000000e9006e00b900e800400040de20003e
:1054f8000080400010007800ef006000c07280005b
:10550800808f50009b003a00406680000000e90050
:105518006e00b9008000780040de200080804000e6
:1055280040c0b30080487800406680000000e90071
:105538006e00b9008000e80040de20008080400056
:1055480010c0b30080487800406680000000e90081
:105558006e00b9008000780040de20000080400026
:105568008001780022c0b30011c0b3003e0890004b
:105578003afe07007f003700406680000000e9001f
:105588006e00b9008000780040de20008080400076
:105598000040eb0080487800406680000000e90089
:1055a8006e00b9008000e80040de200080804000e6
:1055b80010c0b30080487800406680000000e90011
:1055c8006e00b9008000780040de200000804000b6
:1055d8008001780022c0b30011c0b3003e089000db
:1055e8001efe0700406680000000e9006e00b9005a
:1055f800e800400040de20000080400010007800f5
:10560800ef006000c0728000808f500059003a009f
:105618000000fe0057003700406680000000e900e7
:105628006e00b900e800400040de20000080400025
:1056380010007800ef006000c0728000808f50007a
:105648004c003a000000eb00200f98001c003700c7
:10565800406680000000e9006e00b9008000e800a4
:1056680040de200000804000104078000080fb00f1
:105678004200dd00800078002e0890008081400004
:10568800406680008000e9002e0890000081e80054
:105698006e08b9008200400040de20000080400013
:1056a80010417800e4804100a0e220000080400022
:1056b800024878002e0890000000e800200f9800ab
:1056c8002e089000e30f5000e1ff3600c4ccbf0065
:1056d800e74f500004003a000040eb00c4ecb7006c
:1056e8008b0b070023003700c4ccbf000040e80044
:1056f800c4ecb7001f003700406680000000e900d6
:105708006e00b900e800400040de20000080400044
:1057180010007800ef006000c0728000808f500099
:1057280014003a000000eb00200f98000d0037002d
:105738002e0990002e089000e4004000a0e220000e
:10574800008040001040780080407800c0e52000cc
:1057580000004100014878002e0890000000e80091
:10576800200f98002e089000ff0f5000f0ff360021
:10577800c7030700406680000000e9006e00b9001a
:10578800e800400040de20000080400090007800e3
:10579800f0702000008160002bcebf008080fb00ed
:1057a8000020200000807000800f51009e033a0006
:1057b800406680000000e9006e00b90080007800b3
:1057c80040de200000804000104078000080fb0090
:1057d800700f9800c0042000fe089000808f5000d1
:1057e8002e003200c0042000fe089000808f500078
:1057f8000b003c007e089000fc0f5000290332008b
:1058080020032000fe089000808f50001500320011
:105818007e089000e70f50000b0332008203370028
:10582800e0042000fe089000808f500067013200dd
:10583800e0042000fe089000808f500040023500f0
:10584800f0042000fe089000808f5000c90132004b
:1058580000052000fe089000808f50007902320079
:1058680071033700406680000000e9006e00b9004f
:105878008000e80040de20000080400010407800f2
:105888002beeb7002bcebf000080fb00c072880053
:105898001f0b0700defc070063033700406680002b
:1058a8000000e9006e00b9008000e80040de20003a
:1058b80000804000104078006f4060005beeb70049
:1058c800406680000000e9006e00b9008000e80032
:1058d80040de200000804000104078008080fb00ff
:1058e800000f2000008060004480de00b074880053
:1058f800b0748000600f9800ee089000e18f5000af
:10590800380032006e089000e10f5000070039009f
:10591800ee089000e28f50008d0032006e08900073
:10592800e40f50005c003200b6003700406680008b
:105938000000e9006e00b9008080e80040de200029
:1059480000804000104078000080fb006f0060007d
:10595800e10f500004003a00000b2000e0738800bb
:10596800c0d12300f0738800406680000000e90081
:105978006e00b9008080e80040de20000080400012
:10598800104078000080fb006f006000e20f5000bc
:1059980004003a00001b2000e073880000d02200b9
:1059a800f0738800406680000000e9006e00b900ce
:1059b8008080e80040de2000008040001040780031
:1059c8000080fb006f006000e30f50008d003a007c
:1059d800002b2000e073880000a02100f0738800ed
:1059e80088003700406680000000e9006e00b900ba
:1059f8008080e80040de20000080400010407800f1
:105a08000080fb006f006000e10f500004003a00c6
:105a180000022000e073880000a02200f0738800d4
:105a2800406680000000e9006e00b9008080e80050
:105a380040de200000804000104078000080fb001d
:105a48006f006000e20f500004003a0000122000ce
:105a5800e073880000a02200f07388004066800090
:105a68000000e9006e00b9008080e80040de2000f8
