:020000040000fa
:080000000001040000000000f3
:020000040000fa
:10020000cfe120000eff20000e018800000000005a
:100210000c00070000e62400010020001100070088
:10022000000020000000e000020032000000020098
:1002300000000000ce060200000000000040da00ce
:100240000000fe004440a900001720000000e0006c
:100250000300320000002000a00188004440a800f4
:100260000000060091018800800078000000eb008b
:1002700015003700e280400032a0b4009101ba00be
:10028000e280400032a0b4009102ba00e280400057
:1002900032a0b4000002eb00472bde00f507b200ed
:1002a000602ce10004003a000059eb008301e900f2
:1002b000fdff3e00040037006128e100010032002c
:1002c0000082eb00040007001101ba000200e00008
:1002d000e8ff3a00000006003159ba008301e90046
:1002e0000c0032002159ba008301e90008003200f5
:1002f0000400e00003003a00e280400032a0b400b5
:10030000f5ff370011d9ba008301e900faff3a007e
:100310008100e800e180400032a0b4000000060047
:100320009183a80000000600901c8800a11c880092
:1003300000000600e14f500007003200e24f50007d
:10034000070032008000eb000004e00009003a00e2
:100350006ec3bf00030037005ec3bf00010037005b
:100360004ec3bf000080fb004300de000000a2007f
:10037000e10060000100780000000600881f78009e
:10038000401bde0007002000e1cf520003003200d6
:10039000e2cf52000500320008003700801a8800c2
:1003a000961a8800a21a880007003700001a8800f1
:1003b000161a8800221a880003003700001b8800e4
:1003c000161b8800221b88000001eb000480fb0044
:1003d000673520006634200010003700e1cf52005e
:1003e00003003200e2cf5200040032000600370062
:1003f000914178008373790006003700114478003a
:100400000873790003003700633620001144780038
:10041000887179000201e8008100e800800f510036
:10042000eeff3500e1cf520003003200e2cf520070
:100430000c003200160037006f4062004300dd0000
:10044000413520009140780072c8b30082c060003e
:1004500080c070000100780054e3b7005e63a8001c
:10046000150037006f4062004300dd00413420007a
:100470009140780072c8b30082c0600080c07000f4
:100480000100780044e3b7004e63a8000a0037007b
:100490006f4062004300dd0041362000914078004b
:1004a00072c8b30082c0600080c070000100780094
:1004b00064e3b7006e63a8004f04780000000600f4
:1004c000401ade000500200004037800e24f5000cf
:1004d0001300320005003c000004e0000900320077
:1004e000e14f50001e003a0009003700e44f500071
:1004f000130032000e003500e54f500018003a009e
:1005000013003700011888001418880016003700ff
:1005100041188800541888006218880000000600fe
:100520008118880094188800a2188800000006002e
:10053000c1188800d4188800e2188800000006005e
:10054000011988001419880022198800000006008b
:1005500041198800541988006219880000000600bb
:10056000011888001618880022188800000006006c
:10057000401ade00050020000004e0000600320002
:10058000e14f500004003a00c1198800d4198800d6
:10059000e21988000000060081198800941988007b
:1005a000a219880000000600801c880000000600d8
:1005b0000004e00004003200e14f500002003a0065
:1005c000f11b880000000600711c88000000060076
:1005d000e14f500003003200e24f500003003200b0
:1005e00004003700f11a880000000600711a880024
:1005f00000000600711b8800000006009623ef0033
:100600008760a900c01c8800e7c16000c419dd0034
:10061000a1c0bf00f2c8b3000240600003407000f8
:10062000a1e0b700e8806000c308de00c308dd0079
:100630008fc0bf000034a100014070008fe0b70000
:10064000000006008460a900e7416000c419dd00d5
:100650005109200091407800f2c8b30082c06000c8
:1006600083c070008000fd0095e0b7008000fd00b1
:10067000680060004300de004300dd00c108200088
:10068000914078000134a10080c070000100780022
:100690008ce0b7000000060084c0a900e7416000bc
:1006a000710920009140780082cfb30082c06000c1
:1006b00083c070008000fd0097e0b7008000fd005f
:1006c000680060004300de004600dd00c108200035
:1006d000914078000164a10080c0700001007800a2
:1006e0008ce0b700000006000021ef001108880030
:1006f00020088800000006000621ef00610888003d
:10070000800888001061a900000006000008880029
:100710000000060030088800000006003200f800e3
:10072000910188000008bb00410424006210e10030
:1007300004003200000220000010e1000a003a002c
:1007400051042400013b88000500fc0051052000f5
:10075000313b8800a10a2000313b880061e7a800f6
:1007600000000000000000003200f9000000060058
:100770003200f80060042400003b8800f2ff3700dc
:100780003200f8009101880041002400013b8800fc
:100790000208bb00ecff37003200f800910188002e
:1007a00051002400013b8800030120003218bb00e7
:1007b0008301e900fdff3a00e3ff37003200f80053
:1007c000023b8800910188000008bb000500fc0086
:1007d00051052000313b8800a10a2000313b8800f0
:1007e00061e7a80000000000000000003200f900ee
:1007f000000006000400a100010037000400a00072
:100800003200f8009101880011002400013b8800ab
:10081000f10f20003208bb000400a700b2007800ee
:100820000198bb008301e900faff3a00680151001a
:100830000400a70068015100680050001208bb00c6
:10084000e2ff3700f30f20003200f800910188002a
:1008500031002400013b88000208bb000388bb0074
:10086000daff37003200f800003b8800d7ff37007e
:100870003200f80091018800800278006200400098
:10088000e08048003549ba003204e0000410a700b7
:10089000100032008301e9000e0032002549ba0041
:1008a0003204e0000410a7000a0032008301e900ce
:1008b000080032000408a300eeff320015c9ba0098
:1008c0003204e0000410a700020032008301e900b6
:0c08d000e8ff3a003200f90000000600ca
:020000040000fa
:0200000401f009
:04000000febf00003f
:020000040000fa
:0200000401f009
:04000400ff7f00007a
:020000040000fa
:0200000401f009
:04000800efff000006
:020000040000fa
:0200000401f009
:04001400ffff0000ea
:020000040000fa
:10000800e2480000624f00006a4f0000724f000093
:100018007a4f0000e2480000e2480000e248000091
:10002800e2480000e2480000e2480000de05000067
:10003800e2480000e2480000ee050000e248000047
:10004800e2480000e2480000e24800004a4f000091
:10005800e2480000e2480000e2480000e2480000f0
:10006800e2480000e2480000e2480000e2480000e0
:10007800e2480000e2480000e2480000e2480000d0
:10008800e2480000e2480000e2480000860600005e
:10009800e2480000e2480000e2480000e2480000b0
:1000a800e2480000e2480000e2480000e2480000a0
:1000b800e2480000e2480000e2480000e248000090
:1000c800e2480000e2480000e2480000e248000080
:1000d800e2480000e2480000e2480000e248000070
:1000e800e2480000e2480000e2480000e248000060
:0800f800e2480000e2480000ac
:020000040000fa
:10010800e2480000824f00008a4f0000924f000032
:100118009a4f0000e2480000e2480000e248000070
:10012800e2480000e2480000e2480000de05000066
:10013800e2480000e2480000ee050000e248000046
:10014800e2480000e2480000e24800004a4f000090
:10015800e2480000e2480000e2480000e2480000ef
:10016800e2480000e2480000e2480000e2480000df
:10017800e2480000e2480000e2480000e2480000cf
:10018800e2480000e2480000e2480000860600005d
:10019800e2480000e2480000e2480000e2480000af
:1001a800e2480000e2480000e2480000e24800009f
:1001b800e2480000e2480000e2480000e24800008f
:1001c800e2480000e2480000e2480000e24800007f
:1001d800e2480000e2480000e2480000e24800006f
:1001e800e2480000e2480000e2480000e24800005f
:0801f800e2480000e2480000ab
:020000040000fa
:1008dc002c2d00002e2f00000c0d00000e0f000020
:1008ec000049000000000000184900000000000052
:1008fc0030490000000000004849000000000000e2
:10090c006049000000000000784900000000000071
:10091c009049000000000000a84900000000000001
:10092c00c049000000000000d84900000000000091
:10093c00f049000000000000084a00000000000020
:10094c00204a000000000000384a000000000000af
:10095c00504a000000000000684a0000000000003f
:10096c00804a000000000000864a000000000000e1
:10097c008c4a000000000000924a000000000000b9
:10098c00984a0000000000009e4a00000000000091
:10099c00a44a000000000000aa4a00000000000069
:1009ac00b04a000000000000b64a00000000000041
:1009bc00bc4a000000000000c24a00000000000019
:1009cc00c84a000000000000ce4a000000000000f1
:1009dc00d44a000000000000da4a000000000000c9
:1009ec0000000000000000000000000000000000fb
:1009fc0000000000000000000000000000000000eb
:100a0c0000000000000000000000000000000000da
:100a1c0046000000600000005300000026000000ab
:100a2c002600000046000000000000002d00000021
:100a3c004d000000a4000000000000004d0000006c
:100a4c000100000001000000010000000100000096
:100a5c000100000001000000010000000100000086
:100a6c000100000001000000010000000100000076
:100a7c000100000001000000010000000100000066
:100a8c00070000000700000007000000070000003e
:100a9c00070000000700000007000000070000002e
:100aac00070000000700000007000000070000001e
:100abc00070000000700000007000000070000000e
:100acc00800000008000000080000000800000001a
:100adc00800000008000000080000000800000000a
:100aec0080000000800000008000000080000000fa
:100afc0080000000800000008000000080000000ea
:100b0c0080000000800000008000000080000000d9
:100b1c0080000000800000008000000080000000c9
:100b2c0080000000800000008000000080000000b9
:100b3c0080000000800000008000000080000000a9
:100b4c009000000090000000900000009000000059
:100b5c009000000090000000900000009000000049
:100b6c009000000090000000900000009000000039
:100b7c009000000090000000900000009000000029
:100b8c000000000000000000000000000000000059
:100b9c000000000000000000000000000000000049
:100bac000000000000000000000000000000000039
:020000040000fa
:100bbc00801f78000000fa0010c0b300a0e8b70056
:100bcc008460a9000080fa004f0078000040060005
:100bdc003600f800809fbe00829fbe00849fbe003e
:100bec00869fbe000000fa0010c0b300a1e8b70059
:100bfc00d8cdbf000004e000390032000070800046
:100c0c008000780000f02f00008060004800de00bb
:100c1c00f0edb700007080008040780000c0eb0061
:100c2c0000c06000f1edb70010708000800078000b
:100c3c0000f02f00008060004800de00f2edb700ed
:100c4c00107080008040780000c0eb0000c0600095
:100c5c00f3edb700207080008000780000f02f00ca
:100c6c00008060004800de00f4edb70020708000ca
:100c7c008040780000c0eb0000c06000f5edb700cc
:100c8c0010c0b300a8fd07000004e000fcff320018
:100c9c00d16e8000007c2000008060004501dd00ea
:100cac00d16e8000f0032000008060004200dd0067
:100cbc0000007100800078003100b300c08f2f005d
:100ccc000080600015c0b30064c0b30001df2000d9
:100cdc00821f200003002000a5fd0700a022a80011
:100cec0084c0a9000080fa004f03be004f02be0072
:100cfc004f01be004f00be003600f9000040060058
:100d0c003600f800809fbe00829fbe00849fbe000c
:100d1c00869fbe000000fa0096c3bf0064406000ce
:100d2c000004e00008003a0096c3bf006840600071
:100d3c000004e00004003a0096c3bf00704060005d
:100d4c000004e000010032002515070096c3bf0027
:100d5c00614060000004e00004003a0096c3bf004c
:100d6c00624060000004e0000100320055150700ed
:100d7c008760a9000080fa004f03be004f02be003e
:100d8c004f01be004f00be003600f90000400600c7
:100d9c001200fa000000eb00100798000000eb00b6
:100dac00000f7800b82307007dcdbf000080fb004a
:100dbc00506d8800806e8000782407000040eb00a6
:100dcc00000b07005c24070057140700d8cdbf00a8
:100ddc000004e0000c003200906e80007a240700c2
:100dec0000502000d06e88007dcdbf000080fb003d
:100dfc004400dd0080007800d06e80000080700020
:100e0c00d06e8800f2230700dccdbf000004e000a8
:100e1c0006003a00decdbf000004e00003003a00fb
:100e2c00ddcdbf000004e00002003200906e8000b7
:100e3c00652407000040eb00004f98000040eb00d9
:100e4c00104f98000000eb00200798000040eb00ca
:100e5c0070479800280037007e4090000080fb000f
:100e6c0042dd2000124178006600b9008000780055
:100e7c000084200000804000024878007e409000f2
:100e8c000080fb00626f80006600b900e400400047
:100e9c000084200000804000020878007e40900012
:100eac008080fb007e4090000080fb004200de0052
:100ebc00004178006608b9008080e80000842000ba
:100ecc0000804000024878007e4090008080fb004b
:100edc007e409000634160006608b9008000780095
:100eec000084200000804000124098007e4090005a
:100efc000040e800704798007e409000ef4f500093
:100f0c00d5ff36000040eb00104f98000f00370063
:100f1c001e4890008080fb0020472800614078002c
:100f2c00450907001e4890008080fb0020472800e0
:100f3c00614078001f0a0700c0d12900ec020700ad
:100f4c001e4890000040e800104f98001e4890008a
:100f5c00e34f5000eeff36000040eb00104f9800be
:100f6c00300037000040eb00704798002700370036
:100f7c000040eb00604798001e0037001e489000b0
:100f8c008081fb007e4090008080fb006e409000d2
:100f9c000082fb006308b900000178006c18b900ee
:100fac0000004100040040008000400020b72000f9
:100fbc00808040000000eb00800878007e409000ac
:100fcc008080fb006e4090000081fb006308b9003c
:100fdc00020040008000400020bd200080804000c6
:100fec000000eb00800878006e4090000040e800a4
:100ffc00604798006e409000e24f5000dfff3600d3
:10100c007e4090000040e800704798007e409000c1
:10101c00e34f5000d6ff36001e4890000040e80019
:10102c00104f98001e489000e34f5000cdff360043
:10103c000040eb00104f98005f0037001e489000f6
:10104c000080fb00d05f880042da20001e48900030
:10105c008080fb0020472800e14078008f87e80063
:10106c0070c0b300e0ff9f0027a6200026a520003b
:10107c0025a4200024a3200013c0b3000040eb00e3
:10108c00360b07008f87e9000040eb0060479800a3
:10109c00430037001e4890000081fb006e4090001a
:1010ac008081fb006e4090000080fb0080004000bf
:1010bc0020a3200000804000100278004310dd00c7
:1010cc00030040008000400020a72000008040006a
:1010dc00040878001e4890000081fb006e409000d0
:1010ec008081fb006e4090000080fb00800040007f
:1010fc0020a4200000804000100278004310dd0086
:10110c00030040008000400020ab20000080400025
:10111c00040878001e4890000081fb006e4090008f
:10112c008081fb006e4090000080fb00800040003e
:10113c0020a5200000804000100278004310dd0044
:10114c00030040008000400020af200000804000e1
:10115c00040878001e4890000081fb006e4090004f
:10116c008081fb006e4090000080fb0080004000fe
:10117c0020a6200000804000100278004310dd0003
:10118c00030040008000400020b32000008040009d
:10119c00040878006e4090000040e800604798001a
:1011ac006e409000e74f5000baff36001e4890008a
:1011bc000040e800104f98001e489000e34f50008c
:1011cc009eff36000000eb0010079800e2a2a8007a
:1011dc008f60a8008c60a9008cc0a9000040eb00b7
:1011ec00a0e8b700a1c8bf00dccdbf000004e00040
:1011fc0006003a00decdbf000004e00003003a0018
:10120c00ddcdbf000004e00005003200a1c8bf0026
:10121c000004e000020032000040eb00a1e8b7003f
:10122c00a0c8bf00e14f50004d013a000000eb0098
:10123c00000f78000040eb00a0e8b7000040eb0086
:10124c00104f98001e009000f40f500009003a0057
:10125c00e2c2bf000042b2000004e0000200320013
:10126c00e2a2a90001003700e2a2a8000000eb00f6
:10127c00100798001e0090000000e800100798006e
:10128c00accdbf000080fb00000f98000e08900052
:10129c00e10f5000040032000e089000e30f5000e4
:1012ac00940032002e013700e8cdbf000080fb0017
:1012bc00700798007e009000e10f5000790032001a
:1012cc007e009000e20f5000800032007e00900003
:1012dc000000e00001003200210137000040eb006b
:1012ec00104f98006b0037001e4890000080fb00e8
:1012fc00d05f88000040eb00604798004300370047
:10130c001e4890000081fb006e4090008081fb0025
:10131c006e4090000080fb008000400020a3200065
:10132c0000804000100278004310dd0003004000f4
:10133c008000400020a720000080400004087800b6
:10134c001e4890000081fb006e4090008081fb00e5
:10135c006e4090000080fb008000400020a4200024
:10136c0000804000100278004310dd0003004000b4
:10137c008000400020ab2000008040000408780072
:10138c001e4890000081fb006e4090008081fb00a5
:10139c006e4090000080fb008000400020a52000e3
:1013ac0000804000100278004310dd000300400074
:1013bc008000400020af200000804000040878002e
:1013cc001e4890000081fb006e4090008081fb0065
:1013dc006e4090000080fb008000400020a62000a2
:1013ec0000804000100278004310dd000300400034
:1013fc008000400020b320000080400004087800ea
:10140c006e4090000040e800604798006e409000ed
:10141c00e74f5000baff360042da20001e48900019
:10142c008080fb0020472800e14078008f87e8008f
:10143c0070c0b300e0ff9f0027a6200026a5200067
:10144c0025a4200024a3200013c0b3000040eb000f
:10145c00420a07008f87e9000040eb0070479800b4
:10146c0006003700fe4090000040eb000e0607001f
:10147c007e4090000040e800704798007e4090004d
:10148c00e34f5000f7ff36001e4890000040e80084
:10149c00104f98001e489000e34f500092ff36000a
:1014ac00af0037000040eb00104f980003003700ee
:1014bc001e4890000040e800104f98001e48900015
:1014cc00ef4f5000faff3600a50037000040eb004c
:1014dc00104f9800030037001e4890000040e800b1
:1014ec00104f98001e489000ef4f5000faff360046
:1014fc009b00370010c0b300acedb700e8cdbf00c7
:10150c000080fb00600798006e009000e10f500017
:10151c00490032006e009000e10f500004003c00c6
:10152c006e0090000000e000080032008c003700d4
:10153c006e009000e20f5000770032006e009000b9
:10154c00e40f500058003200850037000040eb00db
:10155c00104f98001d0037001e4890000080fb00c3
:10156c006600b9008080e800008420000080400004
:10157c00104090000004e000110032001e48900062
:10158c000080fb006600b900e400400000842000ed
:10159c0000804000100078009e4890004104070035
:1015ac001e4890000080fb006600b9008080e800b7
:1015bc0000842000808040000040eb0090409800a8
:1015cc001e4890000040e800104f98001e48900004
:1015dc00ef4f5000e0ff36000040eb00a0e8b700f2
:1015ec000040eb00204f98000000eb0044fc07008b
:1015fc000000eb0020079800a0c8bf000004e0002a
:10160c00fdff32000040eb00a0e8b7000000eb004b
:10161c003bfc0700a0c8bf000004e000fdff320047
:10162c00e1cdbf000004e0004d003a0010c0b30053
:10163c00f51807004a0037000040eb00104f9800e7
:10164c00030037001e4890000040e800104f98003f
:10165c001e489000e34f5000faff36000040eb00ac
:10166c00a0e8b7000040eb00204f98000000eb0012
:10167c0023fc07000000eb0020079800a0c8bf0067
:10168c000004e000fdff32000040eb00a0e8b700d2
:10169c000000eb001afc0700a0c8bf000004e0002b
:1016ac00fdff32002e0037000040eb00104f980079
:1016bc00030037001e4890000040e800104f9800cf
:1016cc001e489000e34f5000faff36000040eb003c
:1016dc00a0e8b7000040eb00204f98000000eb00a2
:1016ec0007fc07000000eb0020079800a0c8bf0013
:1016fc000004e000fdff32000040eb00a0e8b70062
:10170c000000eb00fefb0700a0c8bf000004e000d7
:10171c00fdff3200120037000040eb00a0e8b700dc
:10172c000040eb00204f98000000eb00f4fb07009a
:10173c000000eb0020079800a0c8bf000004e000e8
:10174c00fdff32000040eb00a0e8b7000000eb000a
:10175c00ebfb0700a0c8bf000004e000fdff320057
:10176c00506d8000461307009ffe37000600fa00fc
:10177c00404798000000eb00100798004000200044
:10178c00000f7800e4004700000028008008780073
:10179c000000eb0010079800280037001e00900096
:1017ac007800b90080007800209c20000080400068
:1017bc00800378001e0090007800b900800078004b
:1017cc002096200000804000800178001e009000d0
:1017dc007800b90080007800209020000080400044
:1017ec00000278001e0090007800b900800078009c
:1017fc00208a200000804000000178009e009000ac
:10180c00e0462800e14078000000eb00801f7800e3
:10181c00030378008402780002027800c3c0b3008e
:10182c00b20020000040eb00ad0c07008f87e900f0
:10183c001e0090000000e800100798001e009000a9
:10184c009e0f5000d5ff39000080fa000000060002
:10185c001e00fa00405f98000000eb001007980093
:10186c0040002000000f7800e40047000000280032
:10187c00a00098000000eb0010079800280037002b
:10188c001e0090007800b90080007800209c200099
:10189c0000804000800378001e0090007800b900a2
:1018ac0080007800209620000080400080017800a5
:1018bc001e0090007800b900800078002090200075
:1018cc0000804000000278001e0090007800b900f3
:1018dc0080007800208a2000008040000001780001
:1018ec009e009000e0462800e14078000000eb00ec
:1018fc00801f7800030378008402780002027800cd
:10190c0013c0b300b20020000040eb00740c0700c1
:10191c008f87e9001e0090000000e8001007980077
:10192c001e0090009e0f5000d5ff39000080fa0079
:10193c00000006000600fa00404798000000eb008b
:10194c001007980040002000000f78000000eb000a
:10195c0010079800280037001e0090007800b9008e
:10196c0080007800209c20000080400080037800dc
:10197c001e0090007800b9008000780020962000ae
:10198c0000804000800178001e0090007800b900b3
:10199c008000780020902000008040000002780039
:1019ac001e0090007800b90080007800208a20008a
:1019bc0000804000000178009e009000e046280066
:1019cc00e14078000000eb00801f780003037800f2
:1019dc00840278000202780033c0b300b200200009
:1019ec000040eb003e0c07008f87e9001e009000c2
:1019fc000000e800100798001e0090009e0f500099
:101a0c00d5ff39000080fa00000006000600fa003d
:101a1c00404798000000eb001007980040002000a1
:101a2c00000f7800e40047000000280080087800d0
:101a3c000000eb0010079800280037001e009000f3
:101a4c007800b90080007800209c200000804000c5
:101a5c00800378001e0090007800b90080007800a8
:101a6c002096200000804000800178001e0090002d
:101a7c007800b900800078002090200000804000a1
:101a8c00000278001e0090007800b90080007800f9
:101a9c00208a200000804000000178009e00900009
:101aac00e0462800e14078000000eb00801f780041
:101abc0003037800840278000202780023c0b3008c
:101acc00b20020000040eb00050c07008f87e900f6
:101adc001e0090000000e800100798001e00900007
:101aec009e0f5000d5ff39000080fa000000060060
:101afc000200fa00000f7800010037001e0fe90009
:101b0c001e00e000fdff3a000080fa000000060015
:101b1c004e00fa0040cf98000000eb00000f780058
:101b2c000090240001002000100798002107980065
:101b3c000000eb00500798000d0037001204240041
:101b4c001e009000ae00900019fb07001e009000d4
:101b5c00ae0090000004b0000180b00010079800a7
:101b6c00210798005e0090000000e80050079800e4
:101b7c005e009000e50f5000f0ff34000000eb0019
:101b8c0040079800009024000100200010079800e6
:101b9c00210798000000eb00500798005200370016
:101bac005e0090004200dd008080e8000080200094
:101bbc00808040000000eb00800878000000eb0003
:101bcc00300798002f003700ce0190005e00900087
:101bdc003e0190006c00b900020040008000400003
:101bec00208a20000080400010007800000178005e
:101bfc00ec0047000380410002b078004e009000da
:101c0c000000e80040079800ce0090000002200081
:101c1c00808f50000d003a006c0147000302200039
:101c2c001e009000ae009000effa07001e0090001e
:101c3c00ae0090000004b0000180b00010079800c6
:101c4c00210798000000eb00400798005e00900010
:101c5c003e0190006c00b900020040008000400082
:101c6c00208a20000080400010007800e10f400026
:101c7c0001003a001e0fe8003e0090000000e80052
:101c8c00300798003e009000eb0f5000ceff340060
:101c9c00c00020009e0f10000e003a00de019000e4
:101cac005e0090004200dd008080e8000080200093
:101cbc000080400010007800000178000210a000a5
:101ccc004218dd008080e800008020000080400089
:101cdc00020878000000eb00000f78005e00900016
:101cec000000e800500798005e009000ef0f5000d5
:101cfc00abff34000080fa00000006004c00fa0034
:101d0c0020cf980000a8240001002000008fbe0006
:101d1c000000eb00400798000a0037001204240072
:101d2c001e00be00a2fa07000004200001002000e3
:101d3c001e0f40005e9748004e0090000000e80027
:101d4c00400798004e009000e20f5000f3ff340063
:101d5c000000eb003007980000a8240001002000d0
:101d6c00008fbe000000eb00400798002a003700ef
:101d7c000000eb002007980021003700be01900006
:101d8c004e0090002e0190006c00b9000200400043
:101d9c0080004000208a2000008040001000780065
:101dac0000017800ea0047000380410002b078008f
:101dbc003e0090000000e80030079800be00900044
:101dcc0000022000808f50000a003a006a01470090
:101ddc00030220001e00be0083fa0700000420004e
:101dec00010020001e0f40005e9748000000eb0031
:101dfc00300798002e0090000000e80020079800a3
:101e0c002e009000e20f5000dcff34004e009000da
:101e1c000000e800400798004e009000ef0f5000c3
:101e2c00d3ff34006a014700030220001e00be00ed
:101e3c006dfa070000042000010020001e0f400076
:101e4c005e9748000080fa00000006006000fa006f
:101e5c0040df980051df98000000eb00200798004d
:101e6c00c00220000e004000e15028000b000900c9
:101e7c00311878008001b100400420000e004000b1
:101e8c00614f28000b000900311878008001b10067
:101e9c00d7cdbf008080fb00f00f20000101500067
:101eac005ed890000080fb006600b90080007800ce
:101ebc000084200000804000104078000080fb006f
:101ecc000010dd0010079800d7cdbf000081fb008b
:101edc005ed890000080fb006600b900800078009e
:101eec000084200000804000104078000080fb003f
:101efc000010dd00000f78005ed890000080fb0021
:101f0c00c200dd0060472800008040001000be00c9
:101f1c006c004000e0804800a201800000f0a400aa
:101f2c008180d200a101880010007800a2018800f5
:101f3c00f05f88005ed890000080fb007800b9004c
:101f4c00ec004000208a2000008040001000780047
:101f5c00006088005ed890000080fb00c200dd00ad
:101f6c0060472800008040001000be007600400052
:101f7c00e0804800a201800000f0a4008180d20023
:101f8c00a101880010007800a20188001060880070
:101f9c005ed890000080fb007800b900f60040008d
:101fac00208a20000080400010007800206088000b
:101fbc005ed890000080fb004200dd008080e800cd
:101fcc0000802000808040000000eb00800878003a
:101fdc005ed890000080fb00c200dd000080200075
:101fec00808040000000eb00800878000000eb00cf
:101ffc00200798000000eb0050079800fe00370007
:10200c005ed890000080fb00c200dd006047280015
:10201c00008040001001be005e0090000100200016
:10202c000000400081804800000041008180490090
:10203c00a201800000f0a4008180d200a1018800e0
:10204c0010007800a20188000000e0001b003200a4
:10205c005ed890000080fb005e0190006c00b9001f
:10206c000200400080004000208a200000804000d8
:10207c00100078000000e00010003a005ed89000dc
:10208c008081fb005ed890000080fb004200dd00e8
:10209c008080e80000802000008040001000780064
:1020ac00000178000200a0004218dd008080e800ea
:1020bc00008020000080400002087800dfcdbf00c7
:1020cc00e14f500052003a00206f8000702f9800b2
:1020dc00fe2890000100e000040032007e289000f1
:1020ec00e10f5000240032004600370001608000f0
:1020fc00f05f8000808f50000e0034000160800083
:10210c00f05f8000008050004280de00000178000b
:10211c005e009000c10220008e8040000000400054
:10212c00608078000090b9004500de0030608800c7
:10213c000e003700f15f80000060800000805000ce
:10214c004280de00000178005e009000c102200099
:10215c008e80400000004000608078000090b90044
:10216c004500de000000ea0030608800306080002e
:10217c00106d8800280037002160800010608000fe
:10218c00808f50000e0034002160800010608000b1
:10219c00008050004280de00000178005e0090005c
:1021ac00410420008e8040000000400060807800d8
:1021bc000090b9004500de00306088000e0037004a
:1021cc001160800020608000008050004280de00a2
:1021dc00000178005e009000410420008e804000d9
:1021ec0000004000608078000090b9004500de00df
:1021fc000000ea003060880030608000106d8800bc
:10220c00050037000000eb0030608800020037004a
:10221c000000eb00306088005ed890000080fb006e
:10222c005e0190006c00b90002004000800040008c
:10223c00208a200000804000100278005ed89000b8
:10224c000080fb00c200dd006047280000804000d9
:10225c001001be005e009000010020000000400054
:10226c00818048000000410081804900a20180006b
:10227c0000f0a4008180d200a10188001000780039
:10228c00a201880080005200306080000080500065
:10229c00300798001e0090008000ea003e0090007d
:1022ac00808f5000050035005e00900074014700df
:1022bc0080004000f00f2000803079003e0090003c
:1022cc009e0f5000050035005e0090007401470021
:1022dc00800040000000eb00803079001e00900070
:1022ec008000ea003e009000808f500015003d00f9
:1022fc003e0090009e0f500012003d00de01900049
:10230c00d7cdbf000081fb005ed890000080fb00a1
:10231c006600b90080007800008420000080400036
:10232c00104078008080fb003e0090000180de00b1
:10233c000000510000017800f400470003804100c8
:10234c0002b078001e009000000040008000ea00ff
:10235c003e009000808f500006003d001e0078006b
:10236c0000004000800078003e009000808f5000fc
:10237c0010003c005ed890008081fb005ed890007d
:10238c000080fb00c200dd000080200000804000c7
:10239c0010017800de009000100020000100dd002c
:1023ac0000017100c218dd00008020000080400098
:1023bc00020878005ed890000080fb005e0190005f
:1023cc006c00b9000200400080004000208a200010
:1023dc000080400010007800e10f400003003a003c
:1023ec002e0090000000e800200798005e0090008e
:1023fc000000e800500798005e009000eb0f5000c2
:10240c00fffe36002e009000ec0f500008003a0042
:10241c005ed890000080fb004200dd008080e80068
:10242c000080200080804000200020008008780080
:10243c00e2cdbf000004e0000300320000402000a9
:10244c0040608800020037000030200040608800a7
:10245c005ed890008080fb007dcdbf000080fb002b
:10246c004400dd0000807000800078004060800037
:10247c000080700040608800ec00470000c4b3008e
:10248c008048780010002000500798000d0037009d
:10249c005e0190005e0090000000e900f40047002f
:1024ac000000400060807800804078006c0047009d
:1024bc0000004100014878005e0090000000e80038
:1024cc00500798005e009000e70f5000f0ff3600b8
:1024dc00446080006c0047008001780082c0b3002b
:1024ec0011c0b30004007800da0e0700ec004700be
:1024fc0000ccb300804878001000200050079800f2
:10250c000d0037005e0190005e00900066004000f8
:10251c00f4004700000040006080780080407800a4
:10252c006c00470000004100014878005e009000fc
:10253c000000e800500798005e009000e50f500086
:10254c00f0ff36005ed890000080fb00c200dd007a
:10255c0000802000008040009000780000ff2000e8
:10256c00008060004400de00804078006c00470072
:10257c00614098005ed890000080fb00c200dd0036
:10258c000080200000804000100078006f40600048
:10259c004401dd005ed890000080fb004200dd00ad
:1025ac008080e8000080200000804000100078004f
:1025bc00804071006c0047007140980044608000be
:1025cc006c0047008001780082c0b30011c0b300da
:1025dc00040078009f0e07005ed890000080fb007e
:1025ec004200dd008080e800008020000080400078
:1025fc00100078000000e000190032005ed8900056
:10260c000080fb004200dd008080e800008020009c
:10261c000080400010007800e20f500010003200e3
:10262c005ed890000080fb004200de000080fb00c2
:10263c00400798005ed890000080fb004200dd004f
:10264c008080e80000802000808040000000eb00cb
:10265c0080087800e9cdbf000040e800e9edb70044
:10266c00e9cdbf00e54f50000c003a005ed8900059
:10267c000080fb006600b9008080e8000084200028
:10268c008080400010c0b3009040980030c0b30070
:10269c00acedb7000040eb00e9edb7000080fa00ac
:1026ac00000006000400fa00000f78002147980093
:1026bc00726e80002e4090000080fb006600b90016
:1026cc008000780000842000008040009042900040
:1026dc002e4090000080fb006600b9008080e8006e
:1026ec000084200000804000904078001e0278009a
:1026fc0082017800054178000040eb009d1707002f
:10270c000080fa00000006000600fa00200798007e
:10271c002e009000100798000040eb00004f78004e
:10272c0007003700726e80009e80fb000e80e80070
:10273c00800178000040eb00271607001e4fe800d0
:10274c0030c0b3009e4f1000f6ff36000080fa0038
:10275c00000006002600fa004067980051679800b8
:10276c000000eb00100798005e6090000080fb00fa
:10277c00c200dd00604b2800008040001001be004c
:10278c001e009000010020000000400081804800e5
:10279c000000410081804900a201800000f0a400eb
:1027ac008180d200a101880010007800a20188006d
:1027bc00800178005e6090000080fb001e0190009c
:1027cc006c00b9000200400080004000208a20000c
:1027dc000080400010007800808f510031003900db
:1027ec005e6090000080fb00c200dd00604b2800a2
:1027fc00008040001001be001e009000010020006f
:10280c0000004000818048000000410081804900a8
:10281c00a201800000f0a4008180d200a1018800f8
:10282c0010007800a2018800800178005e609000a2
:10283c000080fb001e0190006c00b90002004000fb
:10284c0080004000208a20000080400010007800aa
:10285c0080805100d6cdbf000080fb000008de0058
:10286c00000f7800900020009e0f1000060036002c
:10287c001e0090006c01470080004000f00f20000b
:10288c0080307900360037001e009000410f200088
:10289c001e814000ec0047000000400002b07800b0
:1028ac002f0037005e6090000080fb001e0190003e
:1028bc006c00b9000200400080004000208a20001b
:1028cc0000804000100278005e6090000080fb00e9
:1028dc00c200dd00604b2800008040001001be00eb
:1028ec001e00900001002000000040008180480084
:1028fc000000410081804900a201800000f0a4008a
:10290c008180d200a101880010007800a20188000b
:10291c0080005200d6cdbf000080fb000008de0016
:10292c00000f7800200f20009e0f100006003600cc
:10293c001e0090006c014700800040001000200039
:10294c0080307900060037001e019000400f2000f7
:10295c009e015000ec0047000200410003b07800db
:10296c0000302000406088005e6090008080fb009a
:10297c007dcdbf000080fb004400dd0000807000b6
:10298c00800078004060800000807000406088000b
:10299c00e400470000c4b300804878006c00470096
:1029ac0010007800804078006400470011409800c7
:1029bc0044608000640047008001780022c0b300ae
:1029cc0011c0b30004007800a20d07000080fa00cb
:1029dc00000006002600fa00406798005167980036
:1029ec000000eb0010079800810037005e6090003b
:1029fc000080fb00c200dd00604b2800008040001e
:102a0c001001be001e0090000100200000004000dc
:102a1c00818048000000410081804900a2018000b3
:102a2c0000f0a4008180d200a10188001000780081
:102a3c00a2018800800178005e6090000080fb009d
:102a4c001e0190006c00b9000200400080004000a4
:102a5c00208a20000080400010007800808f5100f8
:102a6c00310039005e6090000080fb00c200dd0088
:102a7c00604b2800008040001001be001e0090003a
:102a8c00010020000000400081804800000041004f
:102a9c0081804900a201800000f0a4008180d20056
:102aac00a101880010007800a20188008001780044
:102abc005e6090000080fb001e0190006c00b9006d
:102acc000200400080004000208a2000008040006e
:102adc001000780080805100d5cdbf000080fb0035
:102aec000008de00000f7800900020009e0f100000
:102afc00060036001e0090006c014700800040006c
:102b0c00f00f200080307900360037001e00900056
:102b1c00410f20001e814000ec00470000004000e7
:102b2c0002b078002f0037005e6090000080fb0040
:102b3c001e0190006c00b9000200400080004000b3
:102b4c00208a200000804000100278005e60900017
:102b5c000080fb00c200dd00604b280000804000bc
:102b6c001001be001e00900001002000000040007b
:102b7c00818048000000410081804900a201800052
:102b8c0000f0a4008180d200a10188001000780020
:102b9c00a201880080005200d5cdbf000080fb0050
:102bac000008de00000f7800200f20009e0f1000a0
:102bbc00060036001e0090006c01470080004000ab
:102bcc001000200080307900060037001e019000b4
:102bdc00400f20009e015000ec0047000200410015
:102bec0003b078001e0090000000e8001007980069
:102bfc001e009000e20f50007cff360000302000d9
:102c0c00406088005e6090008080fb007dcdbf003e
:102c1c000080fb004400dd00008070008000780024
:102c2c00406080000080700040608800e400470035
:102c3c0000c4b300804878001000200010079800f2
:102c4c000d0037001e0190001e0090000000e900ee
:102c5c00ec00470000004000608078008040780065
:102c6c006400470000004100014878001e009000fd
:102c7c000000e800100798001e009000e30f5000c1
:102c8c00f0ff36004460800064004700800178004b
:102c9c0042c0b30011c0b30004007800ed0c070073
:102cac000080fa00000006000c00fa00204f98008b
:102cbc00314f980000702000406088003e48900022
:102ccc000080fb004200dd0080007800d05f8000b7
:102cdc00808070007dcdbf000080fb004400dd00d3
:102cec008080700040608000008070004060880030
:102cfc003e4890000004e00017003a000000eb0092
:102d0c00000f78000b0037001e0178001e007800c1
:102d1c008000400020a320000080400010007800bc
:102d2c00804078000e80e8000000410001487800e7
:102d3c001e0fe800600020009e0f1000f2ff36000e
:102d4c003e4890000040e800804078000e80e8008b
:102d5c00714098004d0037003e489000e14f500004
:102d6c0017003a000000eb00000f78000b00370052
:102d7c001e0178001e0078008000400020a4200076
:102d8c000080400010007800804078000e80e80041
:102d9c0000004100014878001e0fe8006000200090
:102dac009e0f1000f2ff36003e4890000040e800f5
:102dbc00804078000e80e8007140980033003700a6
:102dcc003e489000e24f500017003a000000eb0024
:102ddc00000f78000b0037001e0178001e007800f1
:102dec008000400020a520000080400010007800ea
:102dfc00804078000e80e800000041000148780017
:102e0c001e0fe800600020009e0f1000f2ff36003d
:102e1c003e4890000040e800804078000e80e800ba
:102e2c0071409800190037003e489000e34f500065
:102e3c0016003a000000eb00000f78000b00370082
:102e4c001e0178001e0078008000400020a62000a3
:102e5c000080400010007800804078000e80e80070
:102e6c0000004100014878001e0fe80060002000bf
:102e7c009e0f1000f2ff36003e4890000040e80024
:102e8c00804078000e80e80071409800446080001b
:102e9c000e80e8008001780082c0b30011c0b3003e
:102eac00040078006b0c07000080fa00000006009c
:102ebc001800fa004057980051579800320f9800ac
:102ecc00000b200050079800a00f2000400798002e
:102edc00a00020003007980000702000406088009f
:102eec005e5090000080fb004200dd008000780006
:102efc00d05f8000808070007dcdbf000080fb0023
:102f0c004400dd0080807000406080000080700014
:102f1c00406088005e5090000004e000ea003a0037
:102f2c005e5090008081fb003e0890004400dd0064
:102f3c008080e80020a720000080400090007800ee
:102f4c00a051800000805000000178006618b90084
:102f5c008000780020bd200000804000020878002e
:102f6c005e5090000081fb003e0890004400dd00a4
:102f7c00e600400020a72000008040009000780070
:102f8c00c051800000805000800178006610b900ac
:102f9c008080e80020bd20000080400003087800fd
:102fac005e5090000081fb003e0890004400dd0064
:102fbc00ea00400020a7200000804000900078002c
:102fcc00e051800000805000800178006610b9004c
:102fdc00e400400020bd2000008040000308780081
:102fec000000eb00100798004c0037005e5090007a
:102ffc000080fb001e0190006300b900020040003d
:10300c008000400020bd200000804000900078002f
:10301c005e009000808f500018003500be0a9000b2
:10302c005e5090008081fb001e0390006318b90075
:10303c00000178006c28b900000041000600400037
:10304c008000400020b72000008040001000780075
:10305c000002e8006318b900000178006c28b90080
:10306c0000004100060040008000400020b7200016
:10307c000080400004087800250037005e50900066
:10308c000080fb001e0190006300b90002004000ac
:10309c008000400020bd200000804000100178001e
:1030ac00de0090000080eb000088b900800f51001a
:1030bc0017003c00be0a90005e5090008081fb001f
:1030cc001e0390006318b900000178006c28b90049
:1030dc0000004100060040008000400020b72000a6
:1030ec0000804000100078000002e9006318b9006d
:1030fc00000178006c28b900000041000600400077
:10310c008000400020b720000080400004087800b8
:10311c001e0090000000e800100798001e009000b0
:10312c00e20f5000b1ff36000000eb0010079800d2
:10313c000d0037001e0190001e0090008000400022
:10314c0020a3200000804000100078008040780010
:10315c006c00470000004100014878001e00900000
:10316c000000e800100798001e009000e60f5000c9
:10317c00f0ff36000000eb00100798004900370004
:10318c00be0990005e5090000080fb006600b90004
:10319c00000178007818b9008000410020b72000a9
:1031ac00808040000080eb0080087800be09900011
:1031bc005e5090000080fb006600b90000017800b2
:1031cc007818b900000041008080e80020b720008a
:1031dc00808040000080eb0080087800be099000e1
:1031ec005e5090000080fb001e0290006300b9004e
:1031fc00000178006c18b900000041000400400088
:10320c008000400020b720000080400010007800b3
:10321c000000e000090034001e0090000000400097
:10322c000001e8004e009000804078006c004700e0
:10323c00000041000148780017003700be099000db
:10324c005e5090000080fb001e0290006300b900ed
:10325c00000178006c18b900000041000400400027
:10326c008000400020b72000008040001000780053
:10327c000000e00008003d001e009000000040002f
:10328c000001e8003e009000804078006c00470090
:10329c0000004100014878001e0090000000e8008a
:1032ac00100798001e009000e20f5000b4ff36008b
:1032bc005e5090000040e800804078006c004700b1
:1032cc0071409800530037005e509000e14f500061
:1032dc0019003a000000eb00200798000d003700a1
:1032ec002e0190002e0090008000400020a42000b1
:1032fc000080400010007800804078006c0047008f
:10330c0000004100014878002e0090000000e80009
:10331c00200798002e009000e60f5000f0ff3600ba
:10332c005e5090000040e800804078006c00470040
:10333c0071409800370037005e509000e24f50000b
:10334c0019003a000000eb00200798000d00370030
:10335c002e0190002e0090008000400020a520003f
:10336c000080400010007800804078006c0047001e
:10337c0000004100014878002e0090000000e80099
:10338c00200798002e009000e60f5000f0ff36004a
:10339c005e5090000040e800804078006c004700d0
:1033ac00714098001b0037005e509000e34f5000b6
:1033bc0018003a000000eb00200798000d003700c1
:1033cc002e0190002e0090008000400020a62000ce
:1033dc000080400010007800804078006c004700ae
:1033ec0000004100014878002e0090000000e80029
:1033fc00200798002e009000e60f5000f0ff3600da
:10340c005e5090000040e800804078006c0047005f
:10341c0071409800446080006c0047008001780087
:10342c0082c0b30011c0b30004007800090b070080
:10343c000080fa00000006007400fa0020f79800e3
:10344c000000eb00700f980000072000600f980040
:10345c00200320000e004000615428000f000900da
:10346c00311878000002b100c0002000500f980005
:10347c000000eb00400f980000002600300f980071
:10348c000000eb00200f98000000eb00100f9800dc
:10349c0000402000000f9800003c200070079800ae
:1034ac000000eb00600798000000eb00500798004c
:1034bc000002200040079800200520000e0040006c
:1034cc00615228000f000900311878000002b10089
:1034dc0040012000300798000000eb002007980006
:1034ec000000eb00101798007a0037009e11900036
:1034fc001e109000210320008e8040000000400030
:10350c00608078004401dd00210320008e804000a3
:10351c000380410002b078009e1190001e109000b4
:10352c00210520008e804000000040006080780063
:10353c004501dd00210520008e8040000380410004
:10354c0002b078001e109000210320008e804000f5
:10355c0000004000e08078007e08900080807000c1
:10356c005e08900080807000400220000e00400039
:10357c0001087800ce0890003e0890008080700012
:10358c002e089000808070001e08900080807000d3
:10359c000e089000808070007e009000808070008b
:1035ac006e00900080807000400220000e004000f1
:1035bc00110098001e109000210520008e80400004
:1035cc0000004000e08078005e0090008080700079
:1035dc003e009000808070002e0090008080700073
:1035ec00400220000e004000210098001e109000a8
:1035fc0063006000100798001e109000c200de00ef
:10360c0020472800614078000080fb00000f780004
:10361c000000eb000017980028003700a1be200026
:10362c0000062000800878000e1090004102200057
:10363c008e80400000004000e080780000f02f00f9
:10364c00008060004800de0080007800a0be2000f2
:10365c00110098000e109000410220008e80400056
:10366c00000040006080780080007800f00f20009f
:10367c0080806000a0be2000210098000e109000f9
:10368c004200dd0080007800a0be200031009800d0
:10369c001e0078008040780015c0b30024a22000e2
:1036ac00a3be20001e0190000040eb00b4030700f5
:1036bc000e1090000000e800001798000e1090000b
:1036cc00e20f5000d5ff36001e1090000000e800fd
:1036dc00101798001e109000ef0f500083ff36005b
:1036ec0040002000101798001d003700a1be2000dc
:1036fc000006200080087800a1be20000000eb002e
:10370c0090009800a1be20000000eb00a0009800e3
:10371c001e1090004200dd0080007800a0be20004a
:10372c003100980017c0b30026a6200025a5200064
:10373c0024a4200023a32000a2be2000aef0900001
:10374c000040eb00b20207008040eb000040eb00b1
:10375c0055fd07001e1090000000e800101798009f
:10376c001e109000e60f5000e0ff360062da2000d9
:10377c008f87e80010c0b300e0ff9f0027a6200051
:10378c0026a5200025a4200024a3200013c0b300ec
:10379c00aef090000040eb00700107008f87e9004d
:1037ac008040eb000040eb003ffd07000080fa007a
:1037bc00000006008a00fa00004f9900fa0047004a
:1037cc000008200080087800fa004700000820005c
:1037dc0090009800fa004700c0002000a00098005c
:1037ec00800220000e004000615628002f000900c6
:1037fc00311878000006b10082da20008f87e800cb
:10380c0010c0b300e0ff9f0027a6200026a52000d3
:10381c0025a4200024a3200013c0b3008e489100df
:10382c000040eb004d0107008f87e9008040eb0062
:10383c000040eb001cfd0700c0d12900acf80700cc
:10384c00ec00470000002800c0009800ec00470086
:10385c0000002800d0009800ec0047000000250074
:10386c00e00098004000200050079800400037000e
:10387c000000eb0040079800370037005e00900016
:10388c0064005000ce009000820220000e01410026
:10389c004400dd000100400000004000e000790021
:1038ac00310798003e0090004800dd00300798007a
:1038bc004e009000c200de002047280061407800d6
:1038cc000080fb00100798004e009000630f600012
:1038dc00a1be20000006200080087800be009000e9
:1038ec0000f02f00008060004800de0080007800af
:1038fc00a0be200011009800be009000f00f200028
:10390c0080806000a0be2000210098005e00900026
:10391c004200dd0080007800a0be2000310098003d
:10392c001e0090008040780015c0b30024a2200037
:10393c00a3be20001e0178000040eb00100307001e
:10394c008040eb000040eb00d7fc07004e009000dd
:10395c000000e800400798004e009000ef0f500068
:10396c00c6ff36005e0090000000e800500798008b
:10397c005e009000e60f5000bdff360062da2000ba
:10398c008f87e80010c0b300e0ff9f0027a620003f
:10399c0026a5200025a4200024a3200013c0b300da
:1039ac008e4891000040eb00ec0007008f87e90087
:1039bc008040eb000040eb00bbfc07000080fa00ed
:1039cc00000006000400fa00004f78000000eb0035
:1039dc00200c88000000eb00500c88000000eb006d
:1039ec00100a88000000eb00300a88001e80fb00e3
:1039fc00100798001e0090000000e0000400320048
:103a0c001e009000e10f5000070032000800370044
:103a1c00dec2a900d202a900d242a900d262a9003a
:103a2c00d222a90002003700d822a900d802a9008e
:103a3c000080fa00000006000400fa00004f780035
:103a4c001e80fb00100798001e0090000000e00094
:103a5c00040032001e009000e10f500018003200ec
:103a6c002a003700d202a900d242a900d262a900d2
:103a7c00d222a900e0c2a800500020001cf80700c8
:103a8c00e0c2a900f0002000a01688005000200021
:103a9c0017f80700e0c2a800f0002000a01688006c
:103aac005000200012f80700e0c2a9000000eb0053
:103abc00a0168800500020000df8070013003700f6
:103acc00d802a900da22a8005000200008f807004c
:103adc00da22a900da02a8005000200004f807003e
:103aec00da22a800da02a8005000200000f8070033
:103afc00da22a900d0168000e1ff2f00010060003f
:103b0c00d016880050002000f9f707000080fa005a
:103b1c00000006000800fa00404798005147980042
:103b2c00624798007347980010c0b3001047980084
:103b3c005e40900000404000004f78006e409000c6
:103b4c00204798004e409000240607004e409000fd
:103b5c00320607009e4078004e4090003e0707005a
:103b6c000004e00012003a00ae4090004e4090007d
:103b7c00390707000004e00008003a00fe409000fe
:103b8c004e409000340707004e409000f3060700ab
:103b9c000040eb0010479800090037004e409000a1
:103bac00ee0607000040eb001047980004003700b9
:103bbc004e409000e90607000040eb0010479800cb
:103bcc001e4090000080fb000080fa000000060000
:103bdc001400fa00204f9800314f980062079800ab
:103bec00634f9800040f9800150f980010c0b30095
:103bfc00104798003e48900000404000004f78006d
:103c0c00ee00900000f02f00008060004800de0005
:103c1c00504798006e009000604798002e48900026
:103c2c00ee0507002e489000fc0507009e4078002a
:103c3c002e489000080707000004e0003f003a00ff
:103c4c00de4090002e489000030707000004e000bf
:103c5c0035003a00ee4090002e489000fe0607001a
:103c6c000004e0002b003a000040eb0020479800d5
:103c7c00210037002e4090008080fb001e08900031
:103c8c000080400000004000800078000e0890008a
:103c9c000080400090007800410798004e00900092
:103cac0040479800ce00900000f02f00008060008c
:103cbc004800de0030479800be4090002e4890002f
:103ccc00e50607000004e00004003a00ce40900036
:103cdc002e489000e0060700040037002e489000a4
:103cec009e0607000040eb00104798002e40900005
:103cfc000040e80020479800ae4090006e489000cd
:103d0c0080cf5000dbff39002e489000930607004f
:103d1c000e0037002e489000900607000040eb0084
:103d2c0010479800090037002e4890008b060700ba
:103d3c000040eb0010479800040037002e4890001c
:103d4c00860607000040eb00104798001e409000cc
:103d5c000080fb000080fa00000006001200fa0050
:103d6c00404798005147980032079800034f98003d
:103d7c00540798006507980076079800070f98007d
:103d8c0010c0b300104798005e4090000040400007
:103d9c00004f78004e409000900507004e40900078
:103dac009e0507009e4078004e409000aa06070032
:103dbc000004e00096003a003e00900010407800ad
:103dcc00804078004e409000a30607000004e000fd
:103ddc008a003a004e409000900507005e4090002b
:103dec000080fb00000040000004a000004f7800a1
:103dfc009e4078004e409000970607000004e000bb
:103e0c0079003a000ef89700e14f500014003a0088
:103e1c0011c0b3004e4090006007070016cebf00e3
:103e2c008080fb005e0090000108780017cebf0078
:103e3c008080fb006e0090000108780018cebf0057
:103e4c008080fb007e0090000108780019cebf0036
:103e5c008080fb000e089000010878005f0037009e
:103e6c000040eb00204798002a0037008040eb0010
:103e7c004e409000490707002e4090000080fb0048
:103e8c0000004000800078005e00900080804000c0
:103e9c0016cebf000080fb00800878002e409000fa
:103eac000080fb0000004000800078006e00900055
:103ebc008080400017cebf000080fb008008780097
:103ecc002e4090000080fb00000040008000780035
:103edc007e0090008080400018cebf000080fb0068
:103eec00800878002e4090000080fb00000040000d
:103efc00800078000e0890008080400019cebf0032
:103f0c000080fb00800878002e4090000040e80004
:103f1c00204798002e4090008080fb000ef8970000
:103f2c000080fb000000e900808f5000cfff3500bf
:103f3c0011c0b3004e409000180707000ef8970010
:103f4c000080fb0000004000800078005e009000c4
:103f5c00008040008080e90016cebf000080fb008e
:103f6c00800878000ef897000080fb0000004000ed
:103f7c00800078006e009000008040008080e90096
:103f8c0017cebf000080fb00800878000ef8970069
:103f9c000080fb0000004000800078007e00900054
:103fac00008040008080e90018cebf000080fb003c
:103fbc00800878000ef897000080fb00000040009d
:103fcc00800078000e089000008040008080e9009e
:103fdc0019cebf000080fb00800878004e40900096
:103fec00de0507000e0037004e409000db05070091
:103ffc000040eb0010479800090037004e4090003d
:10400c00d60507000040eb0010479800040037006d
:10401c004e409000d10507000040eb00104798007f
:10402c001e4090000080fb000080fa00000006009b
:10403c001000fa004047980051479800320798004a
:10404c0043079800244f980065079800664f980026
:10405c0010c0b300104798005e4090000040400034
:10406c00004f78004e409000dc040700be0090002a
:10407c004e4090009b0507001e417800be0090004a
:10408c004e4090007a0607000004e00057003a000a
:10409c004e0090001040780000417800be00900067
:1040ac004e409000720607000004e00049003a0000
:1040bc00be0090004e4090008a0507005e409000c4
:1040cc000080fb00000040000004a000004f7800be
:1040dc001e417800be0090004e4090006406070020
:1040ec000004e00035003a006e489000e14f5000ab
:1040fc0008003a0011c0b3004e409000a70607001c
:10410c0016cebf008080fb006e0090000108780086
:10411c00260037000040eb00204798000f003700c6
:10412c008040eb004e4090009c0607002e40900013
:10413c000080fb0000004000800078006e009000c2
:10414c008080400016cebf000080fb008008780005
:10415c002e4090000040e800204798002e40900030
:10416c008080fb006e4890000080fb000000e9009e
:10417c00808f5000eaff350011c0b3004e40900014
:10418c00860607006e4890000080fb00000040008f
:10419c00800078006e009000008040008080e90074
:1041ac0016cebf000080fb0080087800be00900097
:1041bc004e4090009105070011003700be009000a2
:1041cc004e4090008d0507000040eb001047980012
:1041dc000b003700be0090004e4090008705070092
:1041ec000040eb001047980005003700be0090001f
:1041fc004e409000810507000040eb0010479800ee
:10420c001e4090000080fb000080fa0000000600b9
:10421c001200fa0040479800514798003207980066
:10422c004307980054079800650798007607980094
:10423c000757980010c0b300104798005e409000dc
:10424c0000404000004f78004e409000630407008f
:10425c004e409000710407009e4078004e40900044
:10426c007d0507000004e000bd003a003e00900010
:10427c0010007800804078004e40900076050700d2
:10428c000004e000b1003a003e0090000080e8001d
:10429c0010007800804078004e4090006e050700ba
:1042ac000004e000a4003a003e00900064004000ce
:1042bc0010007800804078004e40900066050700a2
:1042cc000004e00097003a003e00900066004000b9
:1042dc0010007800804078004e4090005e0507008a
:1042ec000004e0008a003a004e4090004b040700a6
:1042fc005e4090000080fb00000040000004a00025
:10430c00004f78009e4078004e4090005205070008
:10431c000004e00079003a000e509000e14f50008c
:10432c0014003a0011c0b3004e4090001b06070069
:10433c0016cebf008080fb004e0090000108780074
:10434c0017cebf008080fb005e0090000108780053
:10435c0018cebf008080fb006e0090000108780032
:10436c0019cebf008080fb007e0090000108780011
:10437c005f0037000040eb00204798002a00370010
:10438c008040eb004e409000040607002e40900049
:10439c000080fb0000004000800078004e00900080
:1043ac008080400016cebf000080fb0080087800a3
:1043bc002e4090000080fb00000040008000780040
:1043cc005e0090008080400017cebf000080fb0094
:1043dc00800878002e4090000080fb000000400018
:1043ec00800078006e0090008080400018cebf00e6
:1043fc000080fb00800878002e4090000080fb00bd
:10440c0000004000800078007e009000808040001a
:10441c0019cebf000080fb00800878002e40900071
:10442c000040e800204798002e4090008080fb0060
:10443c000e5090000080fb000000e900808f5000bf
:10444c00cfff350011c0b3004e409000d3050700dc
:10445c000e5090000080fb000000400080007800af
:10446c004e009000008040008080e90016cebf0016
:10447c000080fb00800878000e5090000080fb004c
:10448c0000004000800078005e009000008040003a
:10449c008080e90017cebf000080fb008008780008
:1044ac000e5090000080fb0000004000800078005f
:1044bc006e009000008040008080e90018cebf00a4
:1044cc000080fb00800878000e5090000080fb00fc
:1044dc0000004000800078007e00900000804000ca
:1044ec008080e90019cebf000080fb0080087800b6
:1044fc004e409000990407001d0037004e4090007c
:10450c00960407000040eb00104798001800370095
:10451c004e409000910407000040eb0010479800bb
:10452c00130037004e4090008c0407000040eb0055
:10453c00104798000e0037004e409000870407008b
:10454c000040eb0010479800090037004e409000e7
:10455c00820407000040eb0010479800040037006d
:10456c004e4090007d0407000040eb00104798007f
:10457c001e4090000080fb000080fa000000060046
:10458c000e00fa00404798005147980032079800f7
:10459c004307980054079800454f980010c0b3008b
:1045ac00104798005e40900000404000004f78009b
:1045bc004e40900089030700be0090004e409000d2
:1045cc00480407009e4078004e409000a20407006b
:1045dc000004e00084003a004e00900010007800c7
:1045ec0000417800be0090004e409000200507006e
:1045fc000004e00076003a004e0090000080e800d5
:10460c001000780000417800be0090004e409000f1
:10461c00170507000004e00067003a004e00900008
:10462c00640040001000780000417800be0090004b
:10463c004e4090000e0507000004e00058003a00c0
:10464c004e00900066004000100078000041780099
:10465c00be0090004e409000050507000004e000ed
:10466c0049003a00be0090004e4090001d04070027
:10467c005e4090000080fb00000040000004a000a1
:10468c00004f78001e417800be0090004e40900014
:10469c00f70407000004e00035003a004e48900093
:1046ac00e14f500008003a0011c0b3004e4090009a
:1046bc003a05070016cebf008080fb005e0090001c
:1046cc0001087800260037000040eb0020479800d6
:1046dc000f0037008040eb004e4090002f05070084
:1046ec002e4090000080fb0000004000800078000d
:1046fc005e0090008080400016cebf000080fb0062
:10470c00800878002e4090000040e8002047980078
:10471c002e4090008080fb004e4890000080fb00f3
:10472c000000e900808f5000eaff350011c0b30093
:10473c004e409000190507004e4890000080fb0089
:10474c0000004000800078005e0090000080400077
:10475c008080e90016cebf000080fb008008780046
:10476c00be0090004e409000240407002300370048
:10477c00be0090004e409000200407000040eb006b
:10478c00104798001d003700be0090004e4090006e
:10479c001a0407000040eb00104798001700370080
:1047ac00be0090004e409000140407000040eb0047
:1047bc001047980011003700be0090004e4090004a
:1047cc000e0407000040eb00104798000b00370068
:1047dc00be0090004e409000080407000040eb0023
:1047ec001047980005003700be0090004e40900026
:1047fc00020407000040eb00104798001e40900098
:10480c000080fb000080fa00000006001800fa008f
:10481c00204f980061079800624f9800030f980092
:10482c0024579800250f9800360f980010c0b3003d
:10483c00104798006e48900000404000004f7800f0
:10484c008e08900000f02f00008060004800de0011
:10485c00504798000e089000604798002e48900032
:10486c00de020700ee0090002e4890009d0307002a
:10487c001e417800ee0090002e4890007c0407004a
:10488c000004e00047003a005e419000ee0090000a
:10489c002e489000760407000004e0003b003a002c
:1048ac006e419000ee0090002e48900070040700be
:1048bc000004e0002f003a000040eb002047980075
:1048cc00240037002e4090008080fb003e089000b2
:1048dc000080400000004000800078002e0890000e
:1048ec000080400090007800410798004e00900036
:1048fc0040479800ce00900000f02f000080600030
:10490c004800de00304798003e419000ee009000d9
:10491c002e489000560407000004e00005003a0001
:10492c004e419000ee0090002e489000500407007d
:10493c0005003700ee0090002e489000af030700f2
:10494c000040eb00104798002e4090000040e8001b
:10495c0020479800ae4090002e50900080cf500021
:10496c00d8ff3900ee0090002e489000a3030700fa
:10497c0011003700ee0090002e4890009f030700b6
:10498c000040eb00104798000b003700ee00900041
:10499c002e489000990307000040eb001047980048
:1049ac0005003700ee0090002e489000930307009e
:1049bc000040eb00104798001e4090000080fb0068
:1049cc000080fa00000006000a00fa004047980038
:1049dc005147980062479800734798004407980025
:1049ec005e4090001047980010c0b300204798001c
:1049fc006e40900000404000004f78004e40900008
:104a0c00760207004e409000840207009e4078001a
:104a1c004e409000900307000004e00028003a008c
:104a2c00fe4090004e4090008b0307000004e00015
:104a3c001e003a004e409000780207006e40900035
:104a4c000080fb00000040000004a000004f780034
:104a5c009e4078004e4090007f0307000004e00069
:104a6c000d003a0011c0b3004e4090004b040700fb
:104a7c001e4090008080fb0060e120000080400020
:104a8c00904078004e009000014878004e40900015
:104a9c00320307000e0037004e4090002f03070032
:104aac000040eb0020479800090037004e40900072
:104abc002a0307000040eb00204798000400370051
:104acc004e409000250307000040eb002047980063
:104adc002e4090000080fb000080fa0000000600d1
:104aec001c00fa00604f9800714f9800020f98005c
:104afc0023579800240f9800350f9800460f980004
:104b0c00570f980010c0b300104798007e489000d3
:104b1c0000404000004f78008e08900000f02f00fd
:104b2c00008060004800de00304798000e089000be
:104b3c00404798006e489000280207006e4890008d
:104b4c00360207009e4078006e4890004203070032
:104b5c000004e0006f013a00be4090006e489000e7
:104b6c003d0307000004e00065013a00ce409000d0
:104b7c006e489000380307000004e0005b013a0027
:104b8c006e489000250207007e4890000080fb00d4
:104b9c00000040000004a000004f78009e40780008
:104bac006e4890002c0307000004e0004a013a0014
:104bbc002e509000e14f50005f003a008040eb0017
:104bcc006e489000f503070061e1200091407800e9
:104bdc00690047000148780071e12000914078009d
:104bec00690047001140980081e120009140780055
:104bfc00690047002140980091e120009140780025
:104c0c00690047003140980011c0b3006e48900015
:104c1c00e203070061e12000914078006500470045
:104c2c000148780071e12000914078006500470050
:104c3c001140980081e12000914078006500470008
:104c4c002140980091e120009140780065004700d8
:104c5c00314098004eb8970000004000800078006a
:104c6c002e08900000814000690047001040780039
:104c7c000080fb00c800dd00650047001040780094
:104c8c000080fb0000807000000978004eb897008f
:104c9c0000004000800078003e0890000081400039
:104cac0069004700104090000080fb00c800dd0048
:104cbc0065004700104090000080fb0000807000f1
:104ccc00000978004eb89700000040008000780082
:104cdc004e08900000814000690047002040900081
:104cec000080fb00c800dd006500470020409000fc
:104cfc000080fb0000807000000978004eb897001f
:104d0c0000004000800078005e08900000814000a8
:104d1c0069004700304090000080fb00c800dd00b7
:104d2c0065004700304090000080fb000080700060
:104d3c0000097800e50037000040eb0020479800a0
:104d4c006d0037008040eb006e4890009303070025
:104d5c0061e120009140780069004700014878002b
:104d6c0071e12000914078006900470011409800e3
:104d7c0081e12000914078006900470021409800b3
:104d8c0091e1200091407800690047003140980083
:104d9c008040eb006e4890008003070061e120002a
:104dac0091407800650047000148780071e12000cf
:104dbc0091407800650047001140980081e1200087
:104dcc0091407800650047002140980091e1200057
:104ddc009140780065004700314098002e409000cb
:104dec008080fb004eb8970000804000000040001f
:104dfc00800078002e089000008140006900470078
:104e0c00104078000080fb00c800dd006500470002
:104e1c00104078000080fb000080700000097800d2
:104e2c002e4090008080fb004eb897000080400020
:104e3c0000004000800078003e0890000081400097
:104e4c0069004700104090000080fb00c800dd00a6
:104e5c0065004700104090000080fb00008070004f
:104e6c00000978002e4090008080fb004eb897001f
:104e7c000080400000004000800078004e08900048
:104e8c000081400069004700204090000080fb003a
:104e9c00c800dd0065004700204090000080fb004a
:104eac0000807000000978002e4090008080fb008c
:104ebc004eb8970000804000000040008000780051
:104ecc005e0890000081400069004700304090006f
:104edc000080fb00c800dd006500470030409000fa
:104eec000080fb0000807000000978002e409000cc
:104efc000040e800204798002e4090008080fb0086
:104f0c002e5090000080fb000000e900808f5000c4
:104f1c008cff35008040eb006e4890001f030700ab
:104f2c0061e1200091407800690047000148780059
:104f3c0071e1200091407800690047001140980011
:104f4c0081e12000914078006900470021409800e1
:104f5c0091e12000914078006900470031409800b1
:104f6c0011c0b3006e4890000c03070061e12000f3
:104f7c0091407800650047000148780071e12000fd
:104f8c0091407800650047001140980081e12000b5
:104f9c0091407800650047002140980091e1200085
:104fac009140780065004700314098002e509000e9
:104fbc008080fb004eb8970000804000000040004d
:104fcc00800078002e089000008040000081e900ed
:104fdc0069004700104078000080fb00c800dd002d
:104fec0065004700104078000080fb0000807000d6
:104ffc00000978002e5090008080fb004eb897007e
:10500c000080400000004000800078003e089000c6
:10501c00008040000081e9006900470010409000ca
:10502c000080fb00c800dd006500470010409000c8
:10503c000080fb0000807000000978002e5090006a
:10504c008080fb004eb897000080400000004000bc
:10505c00800078004e089000008040000081e9003c
:10506c0069004700204090000080fb00c800dd0074
:10507c0065004700204090000080fb00008070001d
:10508c00000978002e5090008080fb004eb89700ed
:10509c000080400000004000800078005e08900016
:1050ac00008040000081e90069004700304090001a
:1050bc000080fb00c800dd00650047003040900018
:1050cc000080fb0000807000000978006e489000a2
:1050dc00a2010700130037006e4890009f010700e3
:1050ec000040eb00104798000e0037006e4890000f
:1050fc009a0107000040eb001047980009003700a8
:10510c006e489000950107000040eb001047980096
:10511c00040037006e489000900107000040eb003f
:10512c00104798001e4090000080fb000080fa00a1
:10513c00000006001200fa00004f9800114f980072
:10514c00224f980063079800644f9800050f980051
:10515c001e4890001047980010c0b30020479800dc
:10516c002e48900000404000004f78006e009000e8
:10517c00604798000e489000980007000e48900079
:10518c00a60007009e4078000e489000b201070070
:10519c000004e00089003a00ee4090000e489000b8
:1051ac00ad0107000004e0007f003a000e489000bb
:1051bc009a0007002e4890000080fb000000400081
:1051cc000004a000004f78009e4078000e4890002c
:1051dc00a10107000004e0006e003a006e48900048
:1051ec00e14f50001c003a008040eb000e4890004c
:1051fc006a0207001e4090008080fb0060e12000e6
:10520c0000804000904078004147980011c0b300e6
:10521c000e489000610207001e4090008080fb0049
:10522c0060e12000008040009040780051479800d9
:10523c004e4090000080fb00c800dd005e409000f6
:10524c000080fb0000807000800078000e08900049
:10525c00010878004c0037000040eb003047980004
:10526c00220037008040eb000e4890004b020700f4
:10527c001e4090008080fb0060e120000080400018
:10528c0090407800414798008040eb000e48900019
:10529c00420207001e4090008080fb0060e120006d
:1052ac000080400090407800514798003e409000ac
:1052bc000080fb0000004000800078000e08900089
:1052cc00008140004e4090000080fb00c800dd00d3
:1052dc005e4090000080fb000080700000097800a8
:1052ec003e4090000040e800304798003e4090005f
:1052fc008080fb006e4890000080fb000000e900fd
:10530c00808f5000d7ff35008040eb000e48900096
:10531c00220207001e4090008080fb0060e120000c
:10532c0000804000904078004147980011c0b300c5
:10533c000e489000190207001e4090008080fb0070
:10534c0060e12000008040009040780051479800b8
:10535c006e4890000080fb00000040008000780048
:10536c000e089000008040000081e9004e40900043
:10537c000080fb00c800dd005e4090000080fb0058
:10538c0000807000000978000e489000f3000700c0
:10539c000e0037000e489000f00007000040eb00b4
:1053ac0020479800090037000e489000eb000700da
:1053bc000040eb0020479800040037000e48900096
:1053cc00e60007000040eb00204798002e409000bc
:1053dc000080fb000080fa00000006000400fa00c8
:1053ec00004f78001e80fb00100798001e009000f4
:1053fc000000e000040032001e009000e10f50009d
:10540c000300320003003700dec2a90001003700a0
:10541c00d822a9000080fa00000006000400fa005f
:10542c00004f78001e80fb00100798001e009000b3
:10543c000000e000040032001e009000e10f50005c
:10544c001800320029003700d202a800d242a8006e
:10545c00d262a800d222a80050002000a4f10700bc
:10546c00e0c2a80050002000a1f10700500020006d
:10547c009ff10700d202a900d242a900d262a90072
:10548c00d222a9000000eb00a016880050002000da
:10549c0097f10700e0c2a9005000200094f107002a
:1054ac0012003700d802a8005000200090f107002d
:1054bc00da22a800500020008df1070050002000d7
:1054cc008bf10700d802a900d0168000e1ff2f0055
:1054dc0001006000d01688005000200084f1070005
:1054ec00da22a9005000200081f107000080fa00a8
:1054fc00000006000600fa00000f78002147980013
:10550c001e007800200798002e009000e10f50003c
:10551c00140032002e009000e10f500007003900fb
:10552c002e009000e20f5000190032002e00900067
:10553c00e30f5000210032002a0037002e4090006b
:10554c006140600061416000212d20009140780095
:10555c00e0cfb30000c0600002407000d2e2b700a0
:10556c00200037002e4090006140600061406000d8
:10557c004201dd00212d200091407800b0cfb30016
:10558c0000c0600002407000d2e2b7001500370086
:10559c002e40900061406000614060004301dd00de
:1055ac00212d20009140780070cfb30000c0600026
:1055bc0002407000d2e2b7000a0037002e40900083
:1055cc00614060006140600000414000212d2000de
:1055dc0091407800d0cfb30000c060000240700052
:1055ec00d2e2b7000080fa00000006000600fa00c4
:1055fc00000f7800214798001e00780020079800c3
:10560c002e009000e10f5000140032002e0090008c
:10561c00e10f5000070039002e009000e20f5000ff
:10562c00190032002e009000e30f500021003200d0
:10563c002a0037002e4090006140600061416000fc
:10564c00412d200091407800e0cfb30000c06000f5
:10565c0002407000d4e2b700200037002e409000ca
:10566c0061406000614060004201dd00412d20007e
:10567c0091407800b0cfb30000c0600002407000d1
:10568c00d4e2b700150037002e4090006140600056
:10569c00614060004301dd00412d20009140780005
:1056ac0070cfb30000c0600002407000d4e2b700bd
:1056bc000a0037002e40900061406000614060009d
:1056cc0000414000412d200091407800d0cfb30024
:1056dc0000c0600002407000d4e2b7000080fa0005
:1056ec00000006000400fa00004f78001107980033
:1056fc001e80fb000000e0000100320015003700a6
:10570c0011c0b3001e0090007aff0700500020006b
:10571c00f7f00700e0c2a80050002000f4f00700ea
:10572c0050002000f2f007008040eb001e009000bb
:10573c0070ff07008040eb001e009000abff0700dd
:10574c0050002000eaf00700e0c2a9005000200041
:10575c00e7f007000080fa00000006000400fa00e1
:10576c00004f78001e80fb00100798001e00900070
:10577c000000e000040032001e009000e10f500019
:10578c00110032001b003700d202a900d242a9003e
:10579c00d262a900d222a9000000eb00a01688005a
:1057ac0050002000d2f00700e0c2a80050002000fa
:1057bc00cff00700d202a800d242a800d262a80003
:1057cc00d222a8000b003700d802a900d016800006
:1057dc00e1ff2f0001006000d0168800500020006f
:1057ec00c3f00700da22a80050002000c0f0070028
:1057fc00d802a8000080fa00000006000400fa009d
:10580c00004f7800110798001e80fb000000e0009c
:10581c00010032000e0037008040eb001e009000ab
:10582c0034ff07008040eb001e0090006fff070064
:10583c0050002000aef00700e0c2a800500020008d
:10584c00abf0070011c0b3001e00900029ff070049
:10585c000080fa00000006000600fa0020479800bd
:10586c00314798000040eb00004f78002e4090002c
:10587c000080fb00200798002e0090000000e00044
:10588c00040032002e009000e10f50004000320066
:10589c0074003700d202a900d242a900d262a9003a
:1058ac00d222a90080c0b300104798002100370015
:1058bc00e0c2a9003e4090000080fb004700de00e3
:1058cc000004e00003003200f0002000a016880065
:1058dc00020037000000eb00a016880050002000ea
:1058ec0083f00700e0c2a8005000200080f0070001
:1058fc00e0c2a9001e409000e14f500005003a00a4
:10590c00d202a800d242a800d262a800d222a800db
:10591c00050037005000200075f007003e40900055
:10592c0000404000304798001e4090000040e900c5
:10593c00104798001e4090000004e000dcff3a0085
:10594c000000eb00a0168800d202a800d242a800ea
:10595c00d262a800d222a800e0c2a9005000200008
:10596c0063f00700e0c2a8000040eb00004f780095
:10597c00500020005ef00700e0c2a900d202a9008e
:10598c00d242a900d262a900d222a9003500370068
:10599c00d802a90080c0b300104798001f00370040
:1059ac00da22a9003e4090000080fb004700de0098
:1059bc000004e00002003200da02a8000400370004
:1059cc00d0168000e1ff2f0001006000d016880087
:1059dc005000200046f00700da22a80050002000fa
:1059ec0043f00700da22a9001e409000e14f50005e
:1059fc0002003a00d802a800050037005000200031
:105a0c003bf007003e4090000040400030479800bb
:105a1c001e4090000040e900104798001e40900086
:105a2c000004e000deff3a00d1168000e0ff2f00fa
:105a3c0000806000d0168800d802a800da22a900e5
:105a4c00500020002af00700da22a8000040eb00ea
:105a5c00004f78005000200025f00700da22a90042
