:020000040000fa
:080000000001040000000000f3
:020000040000fa
:10020000afed20000eff20000e018800000000006e
:100210000c00070000e3230001002000110007008c
:10022000000020000000e000020032000000020098
:1002300000000000be310200000000000040da00b3
:100240000000fe004440a900000c20000000e00077
:100250000300320000002000a00188004440a800f4
:100260000000060091018800800078000000eb008b
:1002700015003700e280400032a0b4009101ba00be
:10028000e280400032a0b4009102ba00e280400057
:1002900032a0b4000002eb00472bde00f507b200ed
:1002a000602ce10004003a000059eb008301e900f2
:1002b000fdff3e00040037006128e100010032002c
:1002c0000082eb00040007001101ba000200e00008
:1002d000e8ff3a00000006003159ba008301e90046
:1002e0000c0032002159ba008301e90008003200f5
:1002f0000400e00003003a00e280400032a0b400b5
:10030000f5ff370011d9ba008301e900faff3a007e
:100310008100e800e180400032a0b4000000060047
:100320009183a80000000600901c8800a11c880092
:1003300000000600e14f500007003200e24f50007d
:10034000070032008000eb000004e00009003a00e2
:100350006ec3bf00030037005ec3bf00010037005b
:100360004ec3bf000080fb004300de000000a2007f
:10037000e10060000100780000000600881f78009e
:10038000401bde0007002000e1cf520003003200d6
:10039000e2cf52000500320008003700801a8800c2
:1003a000961a8800a21a880007003700001a8800f1
:1003b000161a8800221a880003003700001b8800e4
:1003c000161b8800221b88000001eb000480fb0044
:1003d000673520006634200010003700e1cf52005e
:1003e00003003200e2cf5200040032000600370062
:1003f000914178008373790006003700114478003a
:100400000873790003003700633620001144780038
:10041000887179000201e8008100e800800f510036
:10042000eeff3500e1cf520003003200e2cf520070
:100430000c003200160037006f4062004300dd0000
:10044000413520009140780072c8b30082c060003e
:1004500080c070000100780054e3b7005e63a8001c
:10046000150037006f4062004300dd00413420007a
:100470009140780072c8b30082c0600080c07000f4
:100480000100780044e3b7004e63a8000a0037007b
:100490006f4062004300dd0041362000914078004b
:1004a00072c8b30082c0600080c070000100780094
:1004b00064e3b7006e63a8004f04780000000600f4
:1004c000401ade000500200004037800e24f5000cf
:1004d0001300320005003c000004e0000900320077
:1004e000e14f50001e003a0009003700e44f500071
:1004f000130032000e003500e54f500018003a009e
:1005000013003700011888001418880016003700ff
:1005100041188800541888006218880000000600fe
:100520008118880094188800a2188800000006002e
:10053000c1188800d4188800e2188800000006005e
:10054000011988001419880022198800000006008b
:1005500041198800541988006219880000000600bb
:10056000011888001618880022188800000006006c
:10057000401ade00050020000004e0000600320002
:10058000e14f500004003a00c1198800d4198800d6
:10059000e21988000000060081198800941988007b
:1005a000a219880000000600801c880000000600d8
:1005b0000004e00004003200e14f500002003a0065
:1005c000f11b880000000600711c88000000060076
:1005d000e14f500003003200e24f500003003200b0
:1005e00004003700f11a880000000600711a880024
:1005f00000000600711b8800000006009623ef0033
:100600008760a900c01c8800e7c16000c419dd0034
:10061000a1c0bf00f2c8b3000240600003407000f8
:10062000a1e0b700e8806000c308de00c308dd0079
:100630008fc0bf000034a100014070008fe0b70000
:10064000000006008460a900e7416000c419dd00d5
:100650005109200091407800f2c8b30082c06000c8
:1006600083c070008000fd0095e0b7008000fd00b1
:10067000680060004300de004300dd00c108200088
:10068000914078000134a10080c070000100780022
:100690008ce0b7000000060084c0a900e7416000bc
:1006a000710920009140780082cfb30082c06000c1
:1006b00083c070008000fd0097e0b7008000fd005f
:1006c000680060004300de004600dd00c108200035
:1006d000914078000164a10080c0700001007800a2
:1006e0008ce0b700000006000021ef001108880030
:1006f00020088800000006000621ef00610888003d
:10070000800888001061a900000006000008880029
:100710000000060030088800000006003200f800e3
:10072000910188000008bb00410424006210e10030
:1007300004003200000220000010e1000a003a002c
:1007400051042400013b88000500fc0051052000f5
:10075000313b8800a10a2000313b880061e7a800f6
:1007600000000000000000003200f9000000060058
:100770003200f80060042400003b8800f2ff3700dc
:100780003200f8009101880041002400013b8800fc
:100790000208bb00ecff37003200f800910188002e
:1007a00051002400013b8800030120003218bb00e7
:1007b0008301e900fdff3a00e3ff37003200f80053
:1007c000910188008002780062004000e0804800cb
:1007d0003549ba003204e0000410a70010003200ce
:1007e0008301e9000e0032002549ba003204e0001e
:1007f0000410a7000a0032008301e900080032005b
:100800000408a300eeff320015c9ba003204e0006c
:100810000410a700020032008301e900e8ff3a005b
:080820003200f900000006009f
:020000040000fa
:0200000401f009
:04000000febf00003f
:020000040000fa
:0200000401f009
:04000400ff7f00007a
:020000040000fa
:0200000401f009
:04000800efff000006
:020000040000fa
:0200000401f009
:04001400ffff0000ea
:020000040000fa
:10000800ce3f0000303f0000383f0000403f000076
:10001800483f0000ce3f0000ce3f0000ce3f00002a
:10002800ce3f0000ce3f0000ce3f0000ce300000a3
:10003800ce3f0000ce3f0000de300000ce3f000083
:10004800ce3f0000ce3f0000ce3f0000183f00002a
:10005800ce3f0000ce3f0000ce3f0000ce3f000064
:10006800ce3f0000ce3f0000ce3f0000ce3f000054
:10007800ce3f0000ce3f0000ce3f0000ce3f000044
:10008800ce3f0000ce3f0000ce3f0000763100009a
:10009800ce3f0000ce3f0000ce3f0000ce3f000024
:1000a800ce3f0000ce3f0000ce3f0000ce3f000014
:1000b800ce3f0000ce3f0000ce3f0000ce3f000004
:1000c800ce3f0000ce3f0000ce3f0000ce3f0000f4
:1000d800ce3f0000ce3f0000ce3f0000ce3f0000e4
:1000e800ce3f0000ce3f0000ce3f0000ce3f0000d4
:0800f800ce3f0000ce3f0000e6
:020000040000fa
:10010800ce3f0000503f0000583f0000603f000015
:10011800683f0000ce3f0000ce3f0000ce3f000009
:10012800ce3f0000ce3f0000ce3f0000ce300000a2
:10013800ce3f0000ce3f0000de300000ce3f000082
:10014800ce3f0000ce3f0000ce3f0000183f000029
:10015800ce3f0000ce3f0000ce3f0000ce3f000063
:10016800ce3f0000ce3f0000ce3f0000ce3f000053
:10017800ce3f0000ce3f0000ce3f0000ce3f000043
:10018800ce3f0000ce3f0000ce3f00007631000099
:10019800ce3f0000ce3f0000ce3f0000ce3f000023
:1001a800ce3f0000ce3f0000ce3f0000ce3f000013
:1001b800ce3f0000ce3f0000ce3f0000ce3f000003
:1001c800ce3f0000ce3f0000ce3f0000ce3f0000f3
:1001d800ce3f0000ce3f0000ce3f0000ce3f0000e3
:1001e800ce3f0000ce3f0000ce3f0000ce3f0000d3
:0801f800ce3f0000ce3f0000e5
:020000040000fa
:100828002c2d00002e2f00000c0d00000e0f0000d4
:1008380001000000010000000100000001000000ac
:10084800010000000100000001000000010000009c
:10085800010000000100000001000000010000008c
:10086800010000000100000001000000010000007c
:100878000700000007000000070000000700000054
:100888000700000007000000070000000700000044
:100898000700000007000000070000000700000034
:1008a8000700000007000000070000000700000024
:1008b8008000000080000000800000008000000030
:1008c8008000000080000000800000008000000020
:1008d8008000000080000000800000008000000010
:1008e8008000000080000000800000008000000000
:1008f80080000000800000008000000080000000f0
:1009080080000000800000008000000080000000df
:1009180080000000800000008000000080000000cf
:1009280080000000800000008000000080000000bf
:10093800900000009000000090000000900000006f
:10094800900000009000000090000000900000005f
:10095800900000009000000090000000900000004f
:10096800900000009000000090000000900000003f
:10097800000000000000000000000000000000006f
:10098800000000000000000000000000000000005f
:10099800000000000000000000000000000000004f
:020000040000fa
:1009a8000400fa00004f78000000eb00200c8800db
:1009b8000000eb00500c88000000eb00100a8800d3
:1009c8000000eb00300a88001e80fb00100798002a
:1009d8001e0090000000e000040032001e0090009d
:1009e800e10f50000700320008003700dec2a900fe
:1009f800d202a900d242a900d262a900d222a9003b
:100a080002003700d822a900d802a9000080fa0005
:100a1800000006000400fa00004f78001e80fb006a
:100a2800100798001e0090000000e000040032004b
:100a38001e009000e10f5000180032002a00370015
:100a4800d202a900d242a900d262a900d222a900ea
:100a5800e0c2a8005000200086170700e0c2a900e5
:100a6800f0002000a0168800500020008117070021
:100a7800e0c2a800f0002000a01688005000200066
:100a88007c170700e0c2a9000000eb00a016880050
:100a9800500020007717070013003700d802a9007c
:100aa800da22a8005000200072170700da22a900f5
:100ab800da02a800500020006e170700da22a8000a
:100ac800da02a800500020006a170700da22a900fd
:100ad800d0168000e1ff2f0001006000d0168800ca
:100ae80050002000631707000080fa00000006008d
:100af8000800fa004047980051479800624798005c
:100b08007347980010c0b300104798005e409000eb
:100b180000404000004f78006e4090002047980049
:100b28004e409000240607004e4090003206070011
:100b38009e4078004e4090003e0707000004e00009
:100b480012003a00ae4090004e409000390707006e
:100b58000004e00008003a00fe4090004e4090007b
:100b6800340707004e409000f30607000040eb00f2
:100b780010479800090037004e409000ee06070025
:100b88000040eb0010479800040037004e409000ea
:100b9800e90607000040eb00104798001e4090004f
:100ba8000080fb000080fa00000006001400fa0034
:100bb800204f9800314f980062079800634f9800c3
:100bc800040f9800150f980010c0b3001047980044
:100bd8003e48900000404000004f7800ee00900032
:100be80000f02f00008060004800de0050479800a9
:100bf8006e009000604798002e489000ee050700b0
:100c08002e489000fc0507009e4078002e48900072
:100c1800080707000004e0003f003a00de409000ab
:100c28002e489000030707000004e00035003a0052
:100c3800ee4090002e489000fe0607000004e000f9
:100c48002b003a000040eb002047980021003700b5
:100c58002e4090008080fb001e089000008040001d
:100c680000004000800078000e08900000804000de
:100c780090007800410798004e0090004047980087
:100c8800ce00900000f02f00008060004800de00d9
:100c980030479800be4090002e489000e5060700b7
:100ca8000004e00004003a00ce4090002e48900076
:100cb800e0060700040037002e4890009e06070053
:100cc8000040eb00104798002e4090000040e800dc
:100cd80020479800ae4090006e48900080cf5000aa
:100ce800dbff39002e489000930607000e003700fe
:100cf8002e489000900607000040eb00104798002f
:100d0800090037002e4890008b0607000040eb00d2
:100d180010479800040037002e4890008606070008
:100d28000040eb00104798001e4090000080fb0038
:100d38000080fa00000006001200fa004047980000
:100d48005147980032079800034f980054079800bd
:100d58006507980076079800070f980010c0b30041
:100d6800104798005e40900000404000004f780017
:100d78004e409000900507004e4090009e050700e9
:100d88009e4078004e409000aa0607000004e0004c
:100d980096003a003e0090001040780080407800ad
:100da8004e409000a30607000004e0008a003a00c5
:100db8004e409000900507005e4090000080fb00c8
:100dc800000040000004a000004f78009e4078001a
:100dd8004e409000970607000004e00079003a00b2
:100de8000ef89700e14f500014003a0011c0b3000c
:100df8004e40900060070700d4cebf008080fb0003
:100e08005e00900001087800d5cebf008080fb000e
:100e18006e00900001087800d6cebf008080fb00ed
:100e28007e00900001087800d7cebf008080fb00cc
:100e38000e089000010878005f0037000040eb00c2
:100e4800204798002a0037008040eb004e40900071
:100e5800490707002e4090000080fb00000040007a
:100e6800800078005e00900080804000d4cebf00f3
:100e78000080fb00800878002e4090000080fb0076
:100e880000004000800078006e00900080804000e4
:100e9800d5cebf000080fb00800878002e4090006f
:100ea8000080fb0000004000800078007e00900079
:100eb80080804000d6cebf000080fb00800878000c
:100ec8002e4090000080fb00000040008000780069
:100ed8000e08900080804000d7cebf000080fb0045
:100ee800800878002e4090000040e80020479800d5
:100ef8002e4090008080fb000ef897000080fb00d9
:100f08000000e900808f5000cfff350011c0b3000a
:100f18004e409000180707000ef897000080fb006d
:100f280000004000800078005e00900000804000d3
:100f38008080e900d4cebf000080fb0080087800e4
:100f48000ef897000080fb00000040008000780049
:100f58006e009000008040008080e900d5cebf0080
:100f68000080fb00800878000ef897000080fb00e6
:100f780000004000800078007e0090000080400063
:100f88008080e900d6cebf000080fb008008780092
:100f98000ef897000080fb000000400080007800f9
:100fa8000e089000008040008080e900d7cebf0086
:100fb8000080fb00800878004e409000de050700a6
:100fc8000e0037004e409000db0507000040eb00a4
:100fd80010479800090037004e409000d6050700da
:100fe8000040eb0010479800040037004e40900086
:100ff800d10507000040eb00104798001e40900004
:101008000080fb000080fa00000006001000fa00d3
:1010180040479800514798003207980043079800c6
:10102800244f980065079800664f980010c0b300d9
:10103800104798005e40900000404000004f780044
:101048004e409000dc040700be0090004e40900027
:101058009b0507001e417800be0090004e4090009e
:101068007a0607000004e00057003a004e0090009e
:101078001040780000417800be0090004e4090007b
:10108800720607000004e00049003a00be00900024
:101098004e4090008a0507005e4090000080fb00eb
:1010a800000040000004a000004f78001e417800b6
:1010b800be0090004e409000640607000004e00067
:1010c80035003a006e489000e14f500008003a00a1
:1010d80011c0b3004e409000a7060700d4cebf0051
:1010e8008080fb006e009000010878002600370021
:1010f8000040eb00204798000f0037008040eb00cd
:101108004e4090009c0607002e4090000080fb0097
:1011180000004000800078006e0090008080400051
:10112800d4cebf000080fb00800878002e409000dd
:101138000040e800204798002e4090008080fb0087
:101148006e4890000080fb000000e900808f50008e
:10115800eaff350011c0b3004e4090008606070034
:101168006e4890000080fb0000004000800078007e
:101178006e009000008040008080e900d4cebf005f
:101188000080fb0080087800be0090004e40900070
:101198009105070011003700be0090004e409000f6
:1011a8008d0507000040eb00104798000b00370042
:1011b800be0090004e409000870507000040eb00fd
:1011c8001047980005003700be0090004e40900080
:1011d800810507000040eb00104798001e40900072
:1011e8000080fb000080fa00000006001200fa00f0
:1011f80040479800514798003207980043079800e5
:1012080054079800650798007607980007579800d4
:1012180010c0b300104798005e40900000404000a6
:10122800004f78004e409000630407004e40900045
:10123800710407009e4078004e4090007d0507002d
:101248000004e000bd003a003e0090001000780065
:10125800804078004e409000760507000004e000ca
:10126800b1003a003e0090000080e80010007800cd
:10127800804078004e4090006e0507000004e000b2
:10128800a4003a003e00900064004000100078007e
:10129800804078004e409000660507000004e0009a
:1012a80097003a003e009000660040001000780069
:1012b800804078004e4090005e0507000004e00082
:1012c8008a003a004e4090004b0407005e409000b0
:1012d8000080fb00000040000004a000004f7800e0
:1012e8009e4078004e409000520507000004e00040
:1012f80079003a000e509000e14f500014003a0077
:1013080011c0b3004e4090001b060700d4cebf00aa
:101318008080fb004e00900001087800d5cebf0009
:101328008080fb005e00900001087800d6cebf00e8
:101338008080fb006e00900001087800d7cebf00c7
:101348008080fb007e009000010878005f00370075
:101358000040eb00204798002a0037008040eb004f
:101368004e409000040607002e4090000080fb00cd
:1013780000004000800078004e009000808040000f
:10138800d4cebf000080fb00800878002e4090007b
:101398000080fb0000004000800078005e009000a4
:1013a80080804000d5cebf000080fb008008780018
:1013b8002e4090000080fb00000040008000780074
:1013c8006e00900080804000d6cebf000080fb00f9
:1013d800800878002e4090000080fb00000040004c
:1013e800800078007e00900080804000d7cebf004b
:1013f8000080fb00800878002e4090000040e80044
:10140800204798002e4090008080fb000e509000ee
:101418000080fb000000e900808f5000cfff3500fe
:1014280011c0b3004e409000d30507000e50900045
:101438000080fb0000004000800078004e00900013
:10144800008040008080e900d4cebf000080fb000f
:10145800800878000e5090000080fb0000004000db
:10146800800078005e009000008040008080e900e5
:10147800d5cebf000080fb00800878000e50900099
:101488000080fb0000004000800078006e009000a3
:10149800008040008080e900d6cebf000080fb00bd
:1014a800800878000e5090000080fb00000040008b
:1014b800800078007e009000008040008080e90075
:1014c800d7cebf000080fb00800878004e40900017
:1014d800990407001d0037004e409000960407004d
:1014e8000040eb0010479800180037004e4090006d
:1014f800910407000040eb001047980013003700e4
:101508004e4090008c0407000040eb001047980004
:101518000e0037004e409000870407000040eb00a3
:1015280010479800090037004e40900082040700d9
:101538000040eb0010479800040037004e40900030
:101548007d0407000040eb00104798001e40900003
:101558000080fb000080fa00000006000e00fa0080
:101568004047980051479800320798004307980071
:1015780054079800454f980010c0b30010479800d2
:101588005e40900000404000004f78004e409000c0
:1015980089030700be0090004e40900048040700f1
:1015a8009e4078004e409000a20407000004e0002e
:1015b80084003a004e009000100078000041780046
:1015c800be0090004e409000200507000004e00097
:1015d80076003a004e0090000080e8001000780085
:1015e80000417800be0090004e40900017050700ab
:1015f8000004e00067003a004e00900064004000dc
:101608001000780000417800be0090004e40900025
:101618000e0507000004e00058003a004e00900054
:10162800660040001000780000417800be0090007d
:101638004e409000050507000004e00049003a000c
:10164800be0090004e4090001d0407005e409000d0
:101658000080fb00000040000004a000004f78005c
:101668001e417800be0090004e409000f70407002d
:101678000004e00035003a004e489000e14f500069
:1016880008003a0011c0b3004e4090003a05070028
:10169800d4cebf008080fb005e0090000108780077
:1016a800260037000040eb00204798000f00370065
:1016b8008040eb004e4090002f0507002e40900020
:1016c8000080fb0000004000800078005e00900071
:1016d80080804000d4cebf000080fb0080087800e6
:1016e8002e4090000040e800204798002e409000cf
:1016f8008080fb004e4890000080fb000000e9005d
:10170800808f5000eaff350011c0b3004e409000b2
:10171800190507004e4890000080fb0000004000bb
:10172800800078005e009000008040008080e90022
:10173800d4cebf000080fb0080087800be00900077
:101748004e4090002404070023003700be0090009c
:101758004e409000200407000040eb00104798001e
:101768001d003700be0090004e4090001a0407008c
:101778000040eb001047980017003700be009000ab
:101788004e409000140407000040eb0010479800fa
:1017980011003700be0090004e4090000e04070074
:1017a8000040eb00104798000b003700be00900087
:1017b8004e409000080407000040eb0010479800d6
:1017c80005003700be0090004e409000020407005c
:1017d8000040eb00104798001e4090000080fb007e
:1017e8000080fa00000006001800fa00204f980058
:1017f80061079800624f9800030f980024579800db
:10180800250f9800360f980010c0b30010479800b5
:101818006e48900000404000004f78008e0890000d
:1018280000f02f00008060004800de00504798005c
:101838000e089000604798002e489000de020700ce
:10184800ee0090002e4890009d0307001e4178008e
:10185800ee0090002e4890007c0407000004e00091
:1018680047003a005e419000ee0090002e4890003c
:10187800760407000004e0003b003a006e41900047
:10188800ee0090002e489000700407000004e0006d
:101898002f003a000040eb00204798002400370052
:1018a8002e4090008080fb003e08900000804000a1
:1018b80000004000800078002e0890000080400062
:1018c80090007800410798004e009000404798002b
:1018d800ce00900000f02f00008060004800de007d
:1018e800304798003e419000ee0090002e4890004e
:1018f800560407000004e00005003a004e4190003d
:10190800ee0090002e4890005004070005003700b4
:10191800ee0090002e489000af0307000040eb0057
:10192800104798002e4090000040e800204798009b
:10193800ae4090002e50900080cf5000d8ff390064
:10194800ee0090002e489000a30307001100370016
:10195800ee0090002e4890009f0307000040eb0027
:10196800104798000b003700ee0090002e489000ba
:10197800990307000040eb00104798000500370066
:10198800ee0090002e489000930307000040eb0003
:10199800104798001e4090000080fb000080fa006d
:1019a800000006000a00fa004047980051479800d6
:1019b8006247980073479800440798005e4090007b
:1019c8001047980010c0b300204798006e40900060
:1019d80000404000004f78004e409000760207001b
:1019e8004e409000840207009e4078004e409000d0
:1019f800900307000004e00028003a00fe40900031
:101a08004e4090008b0307000004e0001e003a00df
:101a18004e409000780207006e4090000080fb0066
:101a2800000040000004a000004f78009e407800ad
:101a38004e4090007f0307000004e0000d003a00cc
:101a480011c0b3004e4090004b0407001e409000a8
:101a58008080fb0040ed200000804000904078002e
:101a68004e009000014878004e4090003203070075
:101a78000e0037004e4090002f0307000040eb0097
:101a880020479800090037004e4090002a030700bd
:101a98000040eb0020479800040037004e409000bb
:101aa800250307000040eb00204798002e409000d7
:101ab8000080fb000080fa00000006001c00fa000d
:101ac800604f9800714f9800020f980023579800b4
:101ad800240f9800350f9800460f9800570f98006c
:101ae80010c0b300104798007e48900000404000a6
:101af800004f78008e08900000f02f0000806000f2
:101b08004800de00304798000e08900040479800d3
:101b18006e489000280207006e48900036020700c1
:101b28009e4078006e489000420307000004e000e1
:101b38006f013a00be4090006e4890003d030700d8
:101b48000004e00065013a00ce4090006e48900025
:101b5800380307000004e0005b013a006e4890007b
:101b6800250207007e4890000080fb00000040002e
:101b78000004a000004f78009e4078006e48900056
:101b88002c0307000004e0004a013a002e509000a0
:101b9800e14f50005f003a008040eb006e48900033
:101ba800f503070041ed20009140780069004700e7
:101bb8000148780051ed2000914078006900470005
:101bc8001140980061ed20009140780069004700bd
:101bd8002140980071ed200091407800690047008d
:101be8003140980011c0b3006e489000e20307002e
:101bf80041ed2000914078006500470001487800d9
:101c080051ed200091407800650047001140980090
:101c180061ed200091407800650047002140980060
:101c280071ed200091407800650047003140980030
:101c38004eb8970000004000800078002e08900001
:101c48000081400069004700104078000080fb00d8
:101c5800c800dd0065004700104078000080fb00e8
:101c680000807000000978004eb89700000040001e
:101c7800800078003e08900000814000690047001d
:101c8800104090000080fb00c800dd0065004700a0
:101c9800104090000080fb00008070000009780070
:101ca8004eb8970000004000800078004e08900071
:101cb8000081400069004700204090000080fb0040
:101cc800c800dd0065004700204090000080fb0050
:101cd80000807000000978004eb8970000004000ae
:101ce800800078005e08900000814000690047008d
:101cf800304090000080fb00c800dd006500470010
:101d0800304090000080fb000080700000097800df
:101d1800e50037000040eb00204798006d003700d1
:101d28008040eb006e4890009303070041ed2000cf
:101d380091407800690047000148780051ed200083
:101d480091407800690047001140980061ed20003b
:101d580091407800690047002140980071ed20000b
:101d68009140780069004700314098008040eb00be
:101d78006e4890008003070041ed200091407800f4
:101d8800650047000148780051ed20009140780037
:101d9800650047001140980061ed200091407800ef
:101da800650047002140980071ed200091407800bf
:101db80065004700314098002e4090008080fb006d
:101dc8004eb8970000804000000040008000780076
:101dd8002e089000008140006900470010407800fc
:101de8000080fb00c800dd00650047001040780057
:101df8000080fb0000807000000978002e409000f1
:101e08008080fb004eb89700008040000000400032
:101e1800800078003e08900000814000690047007b
:101e2800104090000080fb00c800dd0065004700fe
:101e3800104090000080fb000080700000097800ce
:101e48002e4090008080fb004eb897000080400034
:101e580000004000800078004e089000008140009b
:101e680069004700204090000080fb00c800dd00aa
:101e780065004700204090000080fb000080700053
:101e8800000978002e4090008080fb004eb8970033
:101e98000080400000004000800078005e0890004c
:101ea8000081400069004700304090000080fb003e
:101eb800c800dd0065004700304090000080fb004e
:101ec80000807000000978002e4090000040e80073
:101ed800204798002e4090008080fb002e509000f4
:101ee8000080fb000000e900808f50008cff350067
:101ef8008040eb006e4890001f03070041ed200072
:101f080091407800690047000148780051ed2000b1
:101f180091407800690047001140980061ed200069
:101f280091407800690047002140980071ed200039
:101f380091407800690047003140980011c0b30013
:101f48006e4890000c03070041ed20009140780096
:101f5800650047000148780051ed20009140780065
:101f6800650047001140980061ed2000914078001d
:101f7800650047002140980071ed200091407800ed
:101f880065004700314098002e5090008080fb008b
:101f98004eb89700008040000000400080007800a4
:101fa8002e089000008040000081e9006900470089
:101fb800104078000080fb00c800dd006500470085
:101fc800104078000080fb00008070000009780055
:101fd8002e5090008080fb004eb897000080400093
:101fe80000004000800078003e089000008040001b
:101ff8000081e90069004700104090000080fb0064
:10200800c800dd0065004700104090000080fb001c
:1020180000807000000978002e5090008080fb003e
:102028004eb8970000804000000040008000780013
:102038004e089000008040000081e90069004700d8
:10204800204090000080fb00c800dd0065004700cc
:10205800204090000080fb0000807000000978009c
:102068002e5090008080fb004eb897000080400002
:1020780000004000800078005e089000008040006a
:102088000081e90069004700304090000080fb00b3
:10209800c800dd0065004700304090000080fb006c
:1020a80000807000000978006e489000a2010700c7
:1020b800130037006e4890009f0107000040eb00b6
:1020c800104798000e0037006e4890009a010700ec
:1020d8000040eb0010479800090037006e48900058
:1020e800950107000040eb001047980004003700f6
:1020f8006e489000900107000040eb0010479800e0
:102108001e4090000080fb000080fa0000000600de
:102118001200fa00004f9800114f9800224f9800c3
:1021280063079800644f9800050f98001e489000b8
:102138001047980010c0b300204798002e48900020
:1021480000404000004f78006e0090006047980003
:102158000e489000980007000e489000a60007005f
:102168009e4078000e489000b20107000004e0008d
:1021780089003a00ee4090000e489000ad0107003b
:102188000004e0007f003a000e4890009a00070023
:102198002e4890000080fb00000040000004a000d2
:1021a800004f78009e4078000e489000a10107007b
:1021b8000004e0006e003a006e489000e14f5000c5
:1021c8001c003a008040eb000e4890006a020700ad
:1021d8001e4090008080fb0040ed20000080400001
:1021e800904078004147980011c0b3000e48900015
:1021f800610207001e4090008080fb0040ed200037
:102208000080400090407800514798004e40900070
:102218000080fb00c800dd005e4090000080fb00ed
:1022280000807000800078000e0890000108780097
:102238004c0037000040eb00304798002200370080
:102248008040eb000e4890004b0207001e409000b3
:102258008080fb0040ed2000008040009040780026
:10226800414798008040eb000e489000420207006a
:102278001e4090008080fb0040ed20000080400060
:1022880090407800514798003e4090000080fb0045
:1022980000004000800078000e0890000081400097
:1022a8004e4090000080fb00c800dd005e409000ba
:1022b8000080fb0000807000000978003e4090001c
:1022c8000040e800304798003e4090008080fb00c6
:1022d8006e4890000080fb000000e900808f5000ed
:1022e800d7ff35008040eb000e489000220207001f
:1022f8001e4090008080fb0040ed200000804000e0
:10230800904078004147980011c0b3000e489000f3
:10231800190207001e4090008080fb0040ed20005d
:102328000080400090407800514798006e48900027
:102338000080fb0000004000800078000e0890003c
:10234800008040000081e9004e4090000080fb00c2
:10235800c800dd005e4090000080fb000080700037
:10236800000978000e489000f30007000e003700bf
:102378000e489000f00007000040eb00204798004e
:10238800090037000e489000eb0007000040eb0002
:1023980020479800040037000e489000e600070028
:1023a8000040eb00204798002e4090000080fb0082
:1023b8000080fa00000006000400fa00004f7800d0
:1023c8001e80fb00100798001e0090000000e0002f
:1023d800040032001e009000e10f5000030032009c
:1023e80003003700dec2a90001003700d822a90087
:1023f8000080fa00000006000400fa00004f780090
:102408001e80fb00100798001e0090000000e000ee
:10241800040032001e009000e10f50001800320046
:1024280029003700d202a800d242a800d262a80030
:10243800d222a800500020000e110700e0c2a80018
:10244800500020000b110700500020000911070060
:10245800d202a900d242a900d262a900d222a900c0
:102468000000eb00a01688005000200001110700b2
:10247800e0c2a90050002000fe100700120037003b
:10248800d802a80050002000fa100700da22a8009d
:1024980050002000f710070050002000f51007003a
:1024a800d802a900d0168000e1ff2f0001006000cb
:1024b800d016880050002000ee100700da22a9008c
:1024c80050002000eb1007000080fa000000060012
:1024d8000600fa00000f7800214798001e007800d7
:1024e800200798002e009000e10f500014003200e1
:1024f8002e009000e10f5000070039002e009000d8
:10250800e20f5000190032002e009000e30f500037
:10251800210032002a0037002e4090006140600000
:1025280061416000212d200091407800e0cfb30088
:1025380000c0600002407000d2e2b70020003700ff
:102548002e40900061406000614060004201dd0063
:10255800212d200091407800b0cfb30000c060006a
:1025680002407000d2e2b700150037002e409000fc
:1025780061406000614060004301dd00212d2000c2
:102588009140780070cfb30000c060000240700036
:10259800d2e2b7000a0037002e4090006140600088
:1025a8006140600000414000212d200091407800ea
:1025b800d0cfb30000c0600002407000d2e2b70084
:1025c8000080fa00000006000600fa00000f7800fc
:1025d800214798001e007800200798002e009000e0
:1025e800e10f5000140032002e009000e10f50005f
:1025f800070039002e009000e20f50001900320049
:102608002e009000e30f5000210032002a0037000e
:102618002e4090006140600061416000412d200023
:1026280091407800e0cfb30000c060000240700025
:10263800d4e2b700200037002e40900061406000cf
:10264800614060004201dd00412d2000914078008a
:10265800b0cfb30000c0600002407000d4e2b70001
:10266800150037002e409000614060006140600016
:102678004301dd00412d20009140780070cfb30068
:1026880000c0600002407000d4e2b7000a003700c2
:102698002e409000614060006140600000414000b1
:1026a800412d200091407800d0cfb30000c06000d9
:1026b80002407000d4e2b7000080fa000000060073
:1026c8000400fa00004f7800110798001e80fb00f4
:1026d8000000e000010032001500370011c0b3000f
:1026e8001e0090007aff07005000200061100700cc
:1026f800e0c2a800500020005e1007005000200033
:102708005c1007008040eb001e00900070ff07007f
:102718008040eb001e009000abff07005000200037
:1027280054100700e0c2a900500020005110070013
:102738000080fa00000006000400fa00004f78004c
:102748001e80fb00100798001e0090000000e000ab
:10275800040032001e009000e10f5000110032000a
:102768001b003700d202a900d242a900d262a900f8
:10277800d222a9000000eb00a0168800500020001b
:102788003c100700e0c2a8005000200039100700e4
:10279800d202a800d242a800d262a800d222a80081
:1027a8000b003700d802a900d0168000e1ff2f00e7
:1027b80001006000d0168800500020002d1007008e
:1027c800da22a800500020002a100700d802a8002a
:1027d8000080fa00000006000400fa00004f7800ac
:1027e800110798001e80fb000000e0000100320085
:1027f8000e0037008040eb001e00900034ff0700f9
:102808008040eb001e0090006fff07005000200082
:1028180018100700e0c2a80050002000151007009b
:1028280011c0b3001e00900029ff07000080fa00c5
:10283800000006000600fa0020479800314798007b
:102848000040eb00004f78002e4090000080fb0015
:10285800200798002e0090000000e00004003200dd
:102868002e009000e10f5000400032007400370045
:10287800d202a900d242a900d262a900d222a9009c
:1028880080c0b3001047980021003700e0c2a900bb
:102898003e4090000080fb004700de000004e0009e
:1028a80003003200f0002000a01688000200370064
:1028b8000000eb00a016880050002000ed0f070074
:1028c800e0c2a80050002000ea0f0700e0c2a900fb
:1028d8001e409000e14f500005003a00d202a800c7
:1028e800d242a800d262a800d222a8000500370070
:1028f80050002000df0f07003e40900000404000dd
:10290800304798001e4090000040e90010479800aa
:102918001e4090000004e000dcff3a000000eb00dd
:10292800a0168800d202a800d242a800d262a8004d
:10293800d222a800e0c2a90050002000cd0f070055
:10294800e0c2a8000040eb00004f780050002000d3
:10295800c80f0700e0c2a900d202a900d242a9000c
:10296800d262a900d222a90035003700d802a900f6
:1029780080c0b300104798001f003700da22a90072
:102988003e4090000080fb004700de000004e000ad
:1029980002003200da02a80004003700d0168000d6
:1029a800e1ff2f0001006000d016880050002000d1
:1029b800b00f0700da22a80050002000ad0f070072
:1029c800da22a9001e409000e14f500002003a00b0
:1029d800d802a8000500370050002000a50f070006
:1029e8003e40900000404000304798001e40900054
:1029f8000040e900104798001e4090000004e000e5
:102a0800deff3a00d1168000e0ff2f000080600052
:102a1800d0168800d802a800da22a90050002000a9
:102a2800940f0700da22a8000040eb00004f78005e
:102a3800500020008f0f0700da22a900d802a90051
:102a48001e80fb000080fa00000006000800fa0063
:102a58002047980021079800624798000040eb0043
:102a6800004f78002e4090000080fb000000e0003e
:102a7800010032003d0037008040eb002e0090003e
:102a880093fe070080c0b30010479800220037006b
:102a9800e0c2a9006e4090000080fb004700de0005
:102aa8000004e0000400320011c0b3002e009000c2
:102ab800c5fe0700030037008040eb002e009000a1
:102ac800c1fe0700500020006a0f0700e0c2a800fe
:102ad80050002000670f0700e0c2a9001e409000c8
:102ae800e14f500004003a0011c0b3002e009000de
:102af80077fe070005003700500020005d0f070033
:102b08006e40900000404000604798001e409000d2
:102b18000040e900104798001e4090000004e000c3
:102b2800dbff3a008040eb002e009000a6fe070075
:102b380011c0b3002e00900065fe0700e0c2a90096
:102b4800500020004b0f0700e0c2a8000040eb0037
:102b5800004f780050002000460f0700e0c2a9008f
:102b68008040eb002e00900059fe07001e80fb00fd
:102b78000080fa00000006000600fa0020479800ce
:102b8800314798002e4090000080fb0020079800f5
:102b98002e0090000000e000040032002e0090009b
:102ba800e10f50004d0032008c003700d202a8001f
:102bb800d242a800d262a800d222a800e0c2a9008e
:102bc80080c0b300004f78002f003700500020006d
:102bd800280f0700d4cebf0000404000d4eeb70055
:102be800d5cebf0000404000d5eeb700d6cebf001e
:102bf80000404000d6eeb700d7cebf0000404000ee
:102c0800d7eeb700e0c2a80041ed2000914078005f
:102c1800d4c2bf006140600000c07000d4eeb700ad
:102c280051ed200091407800d4c2bf000080fb0025
:102c38004200de006140600000c07000d5eeb700c1
:102c480061ed200091407800d4c2bf000080fb00f5
:102c58004300de006140600000c07000d6eeb7009f
:102c680071ed200091407800d4c2bf000080fb00c5
:102c78000000d1006140600000c07000d7eeb700ce
:102c8800e0c2a9001e4fe9001e04e000cfff3a0091
:102c9800d202a900d242a900d262a900d222a90078
:102ca8003e409000e14f500003003a00f000200041
:102cb800a0168800020037000000eb00a01688006c
:102cc80050002000eb0e0700e0c2a80050002000d2
:102cd800e80e0700e0c2a90040003700d802a800ab
:102ce800da22a90080c0b300004f7800290037001d
:102cf80050002000df0e0700d4cebf000040400087
:102d0800d4eeb700d5cebf0000404000d5eeb700e6
:102d1800d6cebf0000404000d6eeb700d7cebf00e9
:102d280000404000d7eeb700da22a80041ed2000ad
:102d380091407800dac2bf006140600000c07000b6
:102d4800d4eeb70051ed200091407800dac2bf0000
:102d58006140600000c07000d5eeb70061ed200052
:102d680091407800dac2bf006140600000c0700086
:102d7800d6eeb70071ed200091407800dac2bf00ae
:102d88006140600000c07000d7eeb700da22a900e9
:102d98001e4fe9001e04e000d5ff3a00d802a90042
:102da8003e409000e14f500002003a00da02a800cd
:102db80004003700d0168000e1ff2f0001006000fa
:102dc800d016880050002000aa0e0700da22a800ba
:102dd80050002000a70e0700da22a9000080fa00a0
:102de800000006000000fa008f60a90000c0200063
:102df800ebf5070090c3bf000080fb004500de0034
:102e08000080fb00e30f5000faff34003dcebf0006
:102e18008080fb000020200080807000007c200063
:102e2800008060004201dd003dcebf008080fb00d5
:102e38000020200080807000f003200000806000e7
:102e48004200dd00000071000000a0008000780052
:102e5800c0ff2100808060006011b8000040eb00d6
:102e680095f507003dcebf008080fb000070200074
:102e780080807000007c2000008060004201dd003e
:102e88003dcebf008080fb00007020008080700075
:102e9800f0032000008060004200dd0000007100a7
:102ea8000000a00080007800c0ff21008080600042
:102eb8006011b80020c0b3007ff507006011b800aa
:102ec800c1c3210010c0b3007bf507006011b80032
:102ed800d1c321000040eb00a3f507006011b80042
:102ee800d1c3210010c0b3009ff507000af5070001
:102ef80000802000aaf507008f60a8000080fa0073
:102f0800000006000600fa000040eb004047980069
:102f18000000eb00100798000000eb00000f78009d
:102f28008f60a900a1ff2f0070002000b1f50700f5
:102f38000080eb00c06688000000eb00d0668800c7
:102f48000000eb00e06688000000eb001007980026
:102f5800190037000000eb00000f78000900370067
:102f68001e0090001e0178006e00b900820040002b
:102f780060df2000808040000040eb00804878003f
:102f88001e0fe800700020009e0f1000f4ff3600ae
:102f98001e009000527380006e00b900e8004000e7
:102fa80060df200000804000020878001e009000ca
:102fb8000000e800100798001e009000e30f500082
:102fc800e4ff360000c0200075f5070090c3bf007d
:102fd8000080fb004500de000080fb00e30f50008e
:102fe800faff3400014920000000eb00ccf4070090
:102ff8007cff0700310020004e40900072f507006a
:10300800410020004e40900067f507000040eb00ab
:10301800c6f407000004e000fcff32000080200036
:103028005ff507008f60a9000080fa000000060025
:103038000a00fa0010079800414798005247980084
:10304800330798000040eb00004f78008f60a9001c
:10305800c0668000f20f500030003c00c06680005f
:103068000000e800c0668800c06680006e00b900f5
:10307800e8004000e0cd2000008040009e00900065
:1030880001087800c06680006e00b900ec004000be
:10309800e0cd200000804000de409000014878002c
:1030a8000040eb00004f78000d003700c26680003a
:1030b8009e81fb001e80fb00800078003e0090008f
:1030c80000804000104278006e10b9008300400074
:1030d800e0cd200000804000044878001e4fe80042
:1030e8005e4090009e4f1000f0ff3900c0668000df
:1030f8000000e00005003a000040eb008bf40700f8
:103108000004e000fcff32009643a8008f60a8008e
:103118000000eb0040079800250037000080eb0016
:10312800c066880000702000100798005073800067
:10313800c400dd001e009000010070001007980018
:103148001e0090005000b300100798000040eb00ec
:1031580076f407000004e000fcff32009e009000b7
:10316800007c2000008060004501dd009e0090008a
:10317800f0032000008060004200dd0000007100c4
:10318800800078003100b300c08f2f0000806000fd
:103198008042eb000042eb00be009000821f20003e
:1031a8000300200073f40700f10f20004107980086
:1031b8004e0090000080fa00000006000200fa00ad
:1031c8000040eb00004f7800c0668000e10f40002f
:1031d8002c0032001e417800c06680006e00b900e5
:1031e800ec004000e0cd20000080400090417800d5
:1031f800c06680006e00b90080007800e0cd200035
:1032080000834000c06680006e00b900e8004000fe
:10321800e0cd20000080400090007800007c200075
:10322800008060004502dd00c06680006e00b900c5
:10323800e8004000e0cd20000080400090007800c9
:10324800f0032000008060004200dd0000007200f2
:10325800800078003100b300c08f2f00008060002c
:10326800824278000342780086007800821f20009e
:10327800030020003ff40700c06680000000e9005a
:10328800c066880090c3bf006e406000e84f5000e1
:1032980001003a009643a9000080fa0000000600e9
:1032a8000600fa000000eb002007980096c3bf0054
:1032b800614060000004e000040032009603a900a9
:1032c8000000eb00200798000700370096c3bf00f6
:1032d800624060000004e000030032009623a90069
:1032e8001000200020079800d0668000e30f5000ef
:1032f80003003c00d06680000000e800d06688002b
:1033080080002000000f78000000eb0010079800f4
:103318004b0037002e0090000000e00023003a0028
:10332800d06680000001e9009e0190009e00900098
:103338006038200000804000104278006e10b9000c
:103348008300400060df20000080400004487800cf
:10335800d06680000001e900001c80004200de0009
:10336800f17f200001006000800178006e10b90034
:10337800e800400060df200000804000030878007b
:10338800d06680008000e90084c3bf006f40600001
:10339800004178006e08b900ec00400060df2000b2
:1033a800008040000248780022003700d066800084
:1033b8000001e9009e0190009e0090006037200007
:1033c80000804000104278006e10b9008300400071
:1033d80060df20000080400004487800d06680004c
:1033e8000001e900801b80004200de00f17f200020
:1033f80001006000800178006e10b900e80040000c
:1034080060df20000080400003087800d06680005c
:103418008000e90074c3bf006f406000004178007d
:103428006e08b900ec00400060df2000008040001a
:10343800024878001e0090000000e800100798007d
:103448001e0090009e0f5000b2ff39008ee3a900c5
:103458007ee3a9000080fa00000006002200fa00be
:10346800400f98000000eb00200f9800e804370098
:10347800d06680000000e9006e00b900e800400056
:1034880060df20000080400090007800007020007d
:1034980000806000300f980050738000c400dd0089
:1034a8003e08900001007000300f9800d066800040
:1034b8000000e9006e00b900e800400060df20006d
:1034c80000804000100078004400de00ef0060003b
:1034d8003e08900001007000300f9800d066800010
:1034e8000000e9006e00b900e800400060df20003d
:1034f800008040009000780000702000808060000c
:1035080000702000808f50000b003a00d0668000c9
:103518000000e9006e00b900e800400060df20000c
:103528000080400010007800ef00600050738000b9
:10353800808f50000a003200d06680000000e90049
:103548006e00b900e800400060df20000080400005
:10355800100078006f006000ef0f5000fa003a008a
:103568008c60a9008cc0a900d06680000000e9002a
:103578006e00b9008000780060df20000080400005
:10358800104078000080fb00001798000e10900093
:10359800ec0f5000cd0032008e109000ec8f5000e0
:1035a80007003c000e1090000000e00067003200a9
:1035b8008e109000e48f50003d003200e20037008a
:1035c8000e109000ed0f500088003200f00f200020
:1035d8008e109000808f500001003200da00370012
:1035e800d06680000000e9006e00b9008000780015
:1035f80060df20008080400000c0eb008048780039
:10360800d06680000000e9006e00b9008000e80084
:1036180060df20008080400050c0b3008048780000
:10362800d06680000000e9006e00b9008080e800e4
:1036380060df20008080400020c0b3008048780010
:10364800d06680000000e9006e00b900e300400089
:1036580060df20008080400010c1b30080487800ff
:10366800d06680000000e9006e00b900e400400068
:1036780060df2000808040000040eb008048780038
:10368800d06680000000e9006e00b9008000780074
:1036980060df2000008040008001780052c0b30045
:1036a80011c0b3003e08900061fe0700a600370075
:1036b800d06680000000e9006e00b900e800400014
:1036c80060df20000080400010007800ef006000fc
:1036d80050738000808f50009b003a00d0668000b5
:1036e8000000e9006e00b9008000780060df20006b
:1036f8008080400040c0b30080487800d0668000d9
:103708000000e9006e00b9008000e80060df2000da
:103718008080400010c0b30080487800d0668000e8
:103728000000e9006e00b9008000780060df20002a
:10373800008040008001780022c0b30011c0b300af
:103748003e0890003afe07007f003700d0668000f0
:103758000000e9006e00b9008000780060df2000fa
:10376800808040000040eb0080487800d0668000f0
:103778000000e9006e00b9008000e80060df20006a
:103788008080400010c0b30080487800d066800078
:103798000000e9006e00b9008000780060df2000ba
:1037a800008040008001780022c0b30011c0b3003f
:1037b8003e0890001efe0700d06680000000e90069
:1037c8006e00b900e800400060df20000080400083
:1037d80010007800ef00600050738000808f500068
:1037e80059003a000000fe0057003700d0668000fc
:1037f8000000e9006e00b900e800400060df20002a
:103808000080400010007800ef00600050738000d6
:10381800808f50004c003a000000eb00200f980009
:103828001c003700d06680000000e9006e00b90077
:103838008000e80060df2000008040001040780031
:103848000080fb004200dd00800078002e08900018
:1038580080814000d06680008000e9002e0890003a
:103868000081e8006e08b9008200400060df200097
:103878000080400010417800e4804100c0e320004f
:1038880000804000024878002e0890000000e80000
:10389800200f98002e089000e30f5000e1ff36003b
:1038a800d6ccbf00e74f500004003a000040eb00c0
:1038b800d6ecb7008c10070023003700d6ccbf0029
:1038c8000040e800d6ecb7001f003700d066800043
:1038d8000000e9006e00b900e800400060df200049
:1038e8000080400010007800ef00600050738000f6
:1038f800808f500014003a000000eb00200f980061
:103908000d0037002e0990002e089000e4004000ba
:10391800c0e320000080400010407800804078001c
:10392800e0e6200000004100014878002e089000e1
:103938000000e800200f98002e089000ff0f5000ac
:10394800f0ff3600c7030700d06680000000e900da
:103958006e00b900e800400060df200000804000f1
:1039680090007800f0702000008160003dcebf001c
:103978008080fb000020200000807000800f510034
:103988009e033a00d06680000000e9006e00b9008e
:103998008000780060df2000008040001040780040
:1039a8000080fb00700f9800c0042000fe08900003
:1039b800808f50002e003200c0042000fe089000c6
:1039c800808f50000b003c007e089000fc0f5000d8
:1039d8002903320020032000fe089000808f500049
:1039e800150032007e089000e70f50000b033200ec
:1039f80082033700e0042000fe089000808f50000a
:103a080067013200e0042000fe089000808f50001b
:103a180040023500f0042000fe089000808f50001e
:103a2800c901320000052000fe089000808f500078
:103a38007902320071033700d06680000000e90087
:103a48006e00b9008000e80060df200000804000c0
:103a5800104078003deeb7003dcebf000080fb006f
:103a68005073880020100700defc0700630337004e
:103a7800d06680000000e9006e00b9008000e80010
:103a880060df200000804000104078006f40600038
:103a98006deeb700d06680000000e9006e00b90046
:103aa8008000e80060df20000080400010407800bf
:103ab8008080fb00000f2000008060004480de0052
:103ac8004075880040758000600f9800ee089000ef
:103ad800e18f5000380032006e089000e10f50006e
:103ae80007003900ee089000e28f50008d00320088
:103af8006e089000e40f50005c003200b6003700fa
:103b0800d06680000000e9006e00b9008080e800ff
:103b180060df200000804000104078000080fb003b
:103b28006f006000e10f500004003a00000b200015
:103b380070748800c0d1230080748800d06680002b
:103b48000000e9006e00b9008080e80060df200016
:103b580000804000104078000080fb006f0060008b
:103b6800e20f500004003a00001b20007074880027
:103b780000d0220080748800d06680000000e90030
:103b88006e00b9008080e80060df200000804000ff
:103b9800104078000080fb006f006000e30f5000c9
:103ba8008d003a00002b20007074880000a02100ce
:103bb8008074880088003700d06680000000e90023
:103bc8006e00b9008080e80060df200000804000bf
:103bd800104078000080fb006f006000e10f50008b
:103be80004003a00000220007074880000a022003f
:103bf80080748800d06680000000e9006e00b9007b
:103c08008080e80060df20000080400010407800dd
:103c18000080fb006f006000e20f500004003a00d3
:103c2800001220007074880000a0220080748800b0
:103c3800d06680000000e9006e00b9008080e800ce
:103c480060df200000804000104078000080fb000a
:103c58006f006000e30f500004003a0000222000cb
:103c68007074880000a0220080748800d0668000ec
:103c78000000e9006e00b9008080e80060df2000e5
:103c880000804000104078000080fb006f0060005a
:103c9800e10f500004003a00000120007074880011
:103ca800c0d1230080748800d06680000000e9003d
:103cb8006e00b9008080e80060df200000804000ce
:103cc800104078000080fb006f006000e20f500099
:103cd80004003a00001120007074880000d022000f
:103ce80080748800d06680000000e9006e00b9008a
:103cf8008080e80060df20000080400010407800ed
:103d08000080fb006f006000e30f500032003a00b3
:103d18000021200070748800c0d1230080748800be
:103d28002d003700d06680000000e9006e00b90061
:103d38008080e80060df20000080400010407800ac
:103d48000080fb006f006000e10f500004003a00a3
:103d58000000eb007074880000a0210080748800c7
:103d6800d06680000000e9006e00b9008080e8009d
:103d780060df200000804000104078000080fb00d9
:103d88006f006000e20f500004003a0000102000ad
:103d98007074880000a0210080748800d0668000bc
:103da8000000e9006e00b9008080e80060df2000b4
:103db80000804000104078000080fb006f00600029
:103dc800e30f500004003a000020200070748800bf
:103dd80000a021008074880080748000100888008a
:103de800d06680000000e9006e00b900e3004000e2
:103df80060df200000804000104078000080fb0059
:103e08006f006000e30f500015003a00d066800094
:103e18000000e9006e00b900e600400060df200005
:103e280000804000104078000081fb00d0668000d0
:103e38000000e9006e00b900e700400060df2000e4
:103e480000804000104078000080fb004800dd0042
:103e58000000710080748800807480001008880059
:103e6800d06680000000e9006e00b900e400400060
:103e780060df200000804000104078000081fb00d7
:103e8800d06680000000e9006e00b900e50040003f
:103e980060df200000804000104078000080fb00b8
:103ea8004800dd000000710050758800d066800071
:103eb8000000e9006e00b900e400400060df200067
:103ec80000804000104078000081fb00d066800030
:103ed8000000e9006e00b900e500400060df200046
:103ee80000804000104078000080fb004800dd00a2
:103ef80000007100607588000040eb0030579800a2
:103f0800130037003e5090000080fb00527580007f
:103f18006600b900e40040000080200000804000f6
:103f2800020878003e5090000080fb006600b9004f
:103f38008080e800008020008080400010c0b3002e
:103f4800904098003e5090000040e800305798009c
:103f58003e509000ef4f5000eaff360030c0b300eb
:103f68006ceeb70010c0b300a1eeb70010c0b300ec
:103f78009c02070098cebf000004e00006003a004b
:103f88009ecebf000004e00003003a009ecebf00b2
:103f98000004e000190232008cc0a80017023700a4
:103fa800d06680000000e9006e00b9008000e800db
:103fb80060df200000804000104078006f40600003
:103fc80094eeb7000040eb00205798000c00370033
:103fd8002e5090000080fb0042e92000124178003a
:103fe8006600b90080007800008020000080400052
:103ff800024878002e5090000040e80020579800b2
:104008002e509000f04f5000f1ff3600d06680002f
:104018000000e9006e00b9008080e80060df200041
:1040280000804000104078006f40600095eeb700b7
:10403800d06680000000e9006e00b9008080e800ca
:1040480060df200000804000104078008080fb0086
:10405800000f2000008060004480de0096eeb7006c
:10406800d06680000000e9006e00b900e30040005f
:1040780060df2000008040001040780097eeb70015
:10408800d06680000000e9006e00b900e40040003e
:1040980060df200000804000104078000080fb00b6
:1040a800680060004380de009feeb700d0668000a5
:1040b8000000e9006e00b900e400400060df200065
:1040c80000804000104078000080fb006300600022
:1040d80020758800d06680000000e9006e00b900f5
:1040e800e600400060df20000080400010407800bb
:1040f8000080fb004801dd00d06680000000e90078
:104108006e00b900e500400060df2000008040003c
:10411800104078000080fb000000710030758800b6
:1041280030c0b3006ceeb70010c0b300a0eeb7000b
:10413800a0cebf000004e000b001320010c0b30000
:1041480028020700ad013700d06680000000e900b2
:104158006e00b9008000e80060df200000804000a9
:10416800104078006140600098eeb700d06680008b
:104178000000e9006e00b9008000e80060df200060
:1041880000804000104078000080fb006200600062
:104198000080d1009eeeb700d06680000000e900e4
:1041a8006e00b9008000e80060df20000080400059
:1041b800104078000080fb00640060004280de0050
:1041c8009ceeb700d06680000000e9006e00b900e0
:1041d8008000e80060df2000008040001040780088
:1041e8000080fb00680060004380de009deeb700a1
:1041f800d06680000000e9006e00b9008080e80009
:1042080060df200000804000104078000004e000db
:104218000b003200d06680000000e9006e00b90093
:104228008080e80060df20000080400010407800b7
:104238008080fb00201320000088b900907488005b
:1042480098cebf000004e0000d0032008cc0a8002a
:1042580090748000440f070020502000d07488001c
:104268003dcebf000080fb004400dd0080007800e8
:10427800d074800000807000d0748800bc0e0700e5
:104288009ccebf000004e00006003a009ecebf00ae
:104298000004e00003003a009dcebf000004e000e7
:1042a800070032008cc0a800907480002e0f070011
:1042b8005066800061668000726680008e0d07007f
:1042c8009ecebf000004e000080032000042eb0070
:1042d80013c0b3008066800091668000a2668000eb
:1042e800e00c07000040eb009deeb7009dcebf003c
:1042f8000004e0004101320024c0b3008041eb001b
:104308008066800091668000a2668000d50c070058
:104318003a01370010c0b300a2eeb700d0668000a3
:104328000000e9006e00b9008000e80060df2000ae
:1043380000804000104078000080fb006f006000a3
:1043480020758800d06680000000e9006e00b90082
:104358008080e80060df2000008040001040780086
:104368000080fb000100200070079800010f9800f2
:10437800fe009000102720000009b8007e00900081
:104388006000b90003027800000242008e08900025
:10439800102720000088b90000024200840178003c
:1043a8008300d1000280d30050079800610798006d
:1043b8005e009000ee00900020768800317688003c
:1043c80080748000100888005e0090008074880067
:1043d80080748000100888000000eb0030758800a9
:1043e800d06680000000e9006e00b900e3004000dc
:1043f80060df2000008040001040780097eeb70092
:10440800a0cebf000004e000fc00320010c0b300e2
:1044180074010700f900370010c0b300a2eeb7001e
:10442800d06680000000e9006e00b9008000e80056
:1044380060df20000080400090407800114f980015
:10444800d06680000000e9006e00b9008080e800b6
:1044580060df20000080400090407800014f980005
:104468001e489000ef4f5000e4003e000e489000b8
:10447800ef4f5000e1003e009e4890000e4890002b
:1044880080cf5000dd003e00d06680000000e900cb
:104498006e00b900e300400060df200000804000ab
:1044a8009040780061479800d06680000000e900dd
:1044b8006e00b900e500400060df20000080400089
:1044c800104078000081fb00d06680000000e90001
:1044d8006e00b900e600400060df20000080400068
:1044e800104078000080fb004800dd0000007100eb
:1044f80020079800d06680000000e9006e00b9002f
:10450800e400400060df2000008040001040780098
:1045180061406000204798001e489000704798004e
:10452800300037007e4090000080fb006600b90034
:10453800800078000080200000804000ee4090005d
:10454800014878007e4090000080fb006600b900ba
:10455800e40040000080200000804000ae00900091
:10456800010878002e4090000004e00009003200a5
:104578007e4090008080fb00100020000100dd00dc
:1045880080007800307580000080700030758800e9
:10459800090037007e4090008080fb00100020005a
:1045a8000100dd000080ea0080007800307580009e
:1045b80000806000307588007e4090000080fb001d
:1045c8006600b9008080e8000080200080804000fc
:1045d80010c0b300904098007e4090000040e80072
:1045e80070479800fe4090000e48900080cf500021
:1045f800ccff36006ccebf006deeb70030c0b30004
:104608006ceeb7000040eb00a1eeb700a1cebf00f2
:10461800f40007008c60a80078003700d06680009e
:104628000000e9006e00b9008000e80060df2000ab
:104638000080400090407800114798001e4090008c
:104648000004e00002003a0010c0b300a2eeb70078
:104658000040eb00205f98001e4090000004e0003e
:1046680002003a0011c0b300215f98002e58900054
:10467800dc00070061003700d06680000000e90018
:104688006e00b9008000e80060df20000080400074
:1046980010407800e14f50000c003a00d0668000ce
:1046a8000000e9006e00b9008080e80060df2000ab
:1046b80000804000104078000004e00003003a0049
:1046c80010c0b300004f7800020037000040eb0034
:1046d800004f7800d06680000000e9006e00b90045
:1046e8008000780060df200080804000c0c1b300f7
:1046f80080487800d06680000000e9006e00b900ac
:104708008000e80060df20008080400050c0b300d7
:1047180080487800d06680000000e9006e00b9008b
:104728008080e80060df20008080400020c0b30067
:1047380080487800d06680000000e9006e00b9006b
:10474800e300400060df20008080400010c1b3001b
:1047580080487800d06680000000e9006e00b9004b
:10476800e400400060df2000808040000040eb0053
:1047780080487800d06680000000e9006e00b9002b
:10478800e500400060df20008080400010c0b300da
:1047980080487800d06680000000e9006e00b9000b
:1047a800e600400060df2000808040000040eb0011
:1047b80080487800d06680000000e9006e00b900eb
:1047c800e700400060df2000008040001e487800bd
:1047d800d06680000000e9006e00b9008000780013
:1047e80060df2000008040008001780082c0b300b4
:1047f80011c0b3003e0890000dfa07008f60a900b1
:10480800d06680000000e900d06688008f60a800ac
:10481800050007000000e00015fb3c000000eb006d
:104828000080fa00000006000000fa00d066800050
:104838000080fa00000006000000fa008f60a9005e
:10484800d06680000000e00003003400d0668000dd
:104858000000e900d06688008f60a8000080fa0098
:10486800000006000e00fa000000eb002007980088
:104878000000eb001007980066004700c14b2800b5
:1048880007000900315878008000b1000000eb00f3
:10489800000f7800507380004400dd001e0f700088
:1048a800007020001e0f7000e6004700c0c0b30073
:1048b800804878000000eb001007980023003700bc
:1048c8001e00900080407800660047001140980064
:1048d8000000eb0020079800100037002e00900021
:1048e8000081e8001e009000c200dd002e0090004c
:1048f80080804000e0e62000008040001040780002
:1049080080407800660047000000410001487800b8
:104918002e0090000000e800200798002e0090006c
:10492800e30f5000edff3600660047008001780075
:1049380062c0b30011c0b3001e007800bcf90700c4
:104948001e0090000000e800100798001e0090006c
:10495800e70f5000daff36000080fa00000006007a
:104968001400fa000000eb00100798000000eb00ac
:10497800000f780064004700414c28000700090038
:10498800311878000001b1006400470090009000e1
:10499800110798000000eb00000f78000c003700aa
:1049a8001e0090004200dd001e0140001e80e8004d
:1049b800e4004700000040006080780080407800f4
:1049c800e0e6200000004100014878001e0fe800e2
:1049d800300020009e0f1000f1ff36000080fa0022
:1049e800000006000200fa00004f78001e04e000f4
:1049f8000400320010c0b300a0eeb7008c60a8001d
:104a0800030037000040eb00a0eeb7008c60a9005f
:104a18000080fa00000006002000fa00005f9800fd
:104a2800510f9800620f9800730f98002000200023
:104a3800000f780000002100100798007e08900001
:104a48001000780020079800606222003007980064
:104a580020032000400798002003200050079800fa
:104a68004006200060079800400620007007980064
:104a7800de08900040412800e14078008002eb0009
:104a88000e02780083c0b300020820000e58900080
:104a980046f0070080002000000f78000000210089
:104aa800100798007e0890001000780020079800f2
:104ab8006062220030079800200320004007980019
:104ac8002003200050079800400620006007980047
:104ad8004006200070079800de089000404128003a
:104ae800e14078008002eb000e02780083c0b3003a
:104af800820820000e5890002cf0070000022000c9
:104b0800000f780000002100100798007e08900030
:104b18001000780020079800606222003007980093
:104b28002003200040079800200320005007980029
:104b38004006200060079800400620007007980093
:104b4800de08900040412800e14078008002eb0038
:104b58000e02780083c0b300020920000e589000ae
:104b680012f0070000082000000f78000000210064
:104b7800100798007e089000100078002007980021
:104b88006062220030079800200320004007980048
:104b98002003200050079800400620006007980076
:104ba8004006200070079800de0890004041280069
:104bb800e14078008002eb000e02780083c0b30069
:104bc800820920000e589000f8ef0700002020000e
:104bd800000f780000002100100798007e08900060
:104be80010007800200798006062220030079800c3
:104bf8002003200040079800200320005007980059
:104c080040062000600798004006200070079800c2
:104c1800de08900040412800e14078008002eb0067
:104c28000e02780083c0b300020a20000e589000dc
:104c3800deef070000802000000f78000000210050
:104c4800100798007e089000100078002007980050
:104c58006062220030079800200320004007980077
:104c680020032000500798004006200060079800a5
:104c78004006200070079800de0890004041280098
:104c8800e14078008002eb000e02780083c0b30098
:104c9800820a20000e589000c4ef0700000022008e
:104ca800000f780000002100100798007e0890008f
:104cb80010007800200798006062220030079800f2
:104cc8002003200040079800200320005007980088
:104cd80040062000600798004006200070079800f2
:104ce800de08900040412800e14078008002eb0097
:104cf8000e02780083c0b300020b20000e5890000b
:104d0800aaef07000000eb00000f78002000210048
:104d1800100798007e08900010007800200798007f
:104d280060622200300798002003200040079800a6
:104d380020032000500798004006200060079800d4
:104d48004006200070079800de08900040412800c7
:104d5800e14078008002eb000e02780083c0b300c7
:104d6800820b20000e58900090ef07000000eb0027
:104d7800000f780080002100100798007e0890003e
:104d88001000780020079800606222003007980021
:104d980020032000400798002003200050079800b7
:104da8004006200060079800400620007007980021
:104db800de08900040412800e14078008002eb00c6
:104dc8000e02780083c0b300020c20000e58900039
:104dd80076ef07000000eb00000f780000022100ca
:104de800100798007e0890001000780020079800af
:104df80060622200300798002003200040079800d6
:104e08002003200050079800400620006007980003
:104e18004006200070079800de08900040412800f6
:104e2800e14078008002eb000e02780083c0b300f6
:104e3800820c20000e5890005cef07000000eb0089
:104e4800000f780000082100100798007e089000e5
:104e58001000780020079800606222003007980050
:104e680020032000400798002003200050079800e6
:104e78004006200060079800400620007007980050
:104e8800de08900040412800e14078008002eb00f5
:104e98000e02780083c0b300020d20000e58900067
:104ea80042ef07000000eb00000f7800002021000f
:104eb800100798007e0890001000780020079800de
:104ec8006062220030079800200320004007980005
:104ed8002003200050079800400620006007980033
:104ee8004006200070079800de0890004041280026
:104ef800e14078008002eb000e02780083c0b30026
:104f0800820d20000e58900028ef07006e089000d0
:104f1800000f78000000eb00200798000000eb006d
:104f2800300798000000eb00400798000000eb00f5
:104f3800500798000000eb00600798000040200030
:104f4800700798000000eb00000f98000000eb00cd
:104f5800100f9800f0ff2000200f9800de08900046
:104f680040412800e14078008002eb000e02780002
:104f7800b3c0b3000001eb000e5890000bef070020
:104f8800f0ff200010079800de089000404128003c
:104f9800e1407800150020000e02780013c0b3002d
:104fa800120020000e58900000ef07000080fa0061
:104fb800000006002000fa00005f9800510f9800da
:104fc800620f9800730f9800e0ff2f00000f780021
:104fd800f0ff2100100798007e089000100078006c
:104fe8002007980060622200300798002003200004
:104ff8004007980020032000500798004006200032
:10500800600798004006200070079800de089000ae
:1050180040412800e14078008002eb000e02780051
:1050280083c0b300020820000e589000dfee07008e
:10503800b0ff2f00000f7800f0ff21001007980044
:105048007e08900010007800200798006062220017
:105058003007980020032000400798002003200014
:10506800500798004006200060079800400620007e
:1050780070079800de08900040412800e140780061
:105088008002eb000e02780083c0b3008208200083
:105098000e589000c5ee0700f0fe2f00000f7800b4
:1050a800f0ff2100100798007e089000100078009b
:1050b8002007980060622200300798002003200033
:1050c8004007980020032000500798004006200061
:1050d800600798004006200070079800de089000de
:1050e80040412800e14078008002eb000e02780081
:1050f80083c0b300020920000e589000abee0700f1
:10510800f0fb2f00000f7800f0ff21001007980037
:105118007e08900010007800200798006062220046
:105128003007980020032000400798002003200043
:1051380050079800400620006007980040062000ad
:1051480070079800de08900040412800e140780090
:105158008002eb000e02780083c0b30082092000b1
:105168000e58900091ee0700f0ef2f00000f780026
:10517800f0ff2100100798007e08900010007800ca
:105188002007980060622200300798002003200062
:105198004007980020032000500798004006200090
:1051a800600798004006200070079800de0890000d
:1051b80040412800e14078008002eb000e027800b0
:1051c80083c0b300020a20000e58900077ee070053
:1051d800f0bf2f00000f7800f0ff210010079800a3
:1051e8007e08900010007800200798006062220076
:1051f8003007980020032000400798002003200073
:1052080050079800400620006007980040062000dc
:1052180070079800de08900040412800e1407800bf
:105228008002eb000e02780083c0b300820a2000df
:105238000e5890005dee0700f0ff2e00000f78007a
:10524800f0ff2100100798007e08900010007800f9
:105258002007980060622200300798002003200091
:1052680040079800200320005007980040062000bf
:10527800600798004006200070079800de0890003c
:1052880040412800e14078008002eb000e027800df
:1052980083c0b300020b20000e58900043ee0700b5
:1052a8000080eb00000f7800e0ff21001007980055
:1052b8007e089000100078002007980060622200a5
:1052c80030079800200320004007980020032000a2
:1052d800500798004006200060079800400620000c
:1052e80070079800de08900040412800e1407800ef
:1052f8008002eb000e02780083c0b300820b20000e
:105308000e58900029ee07000080eb00000f78008f
:10531800b0ff2100100798007e0890001000780068
:1053280020079800606222003007980020032000c0
:1053380040079800200320005007980040062000ee
:10534800600798004006200070079800de0890006b
:1053580040412800e14078008002eb000e0278000e
:1053680083c0b300020c20000e5890000fee070017
:105378000080eb00000f7800f0fe21001007980075
:105388007e089000100078002007980060622200d4
:1053980030079800200320004007980020032000d1
:1053a800500798004006200060079800400620003b
:1053b80070079800de08900040412800e14078001e
:1053c8008002eb000e02780083c0b300820c20003c
:1053d8000e589000f5ed07000080eb00000f7800f4
:1053e800f0fb2100100798007e089000100078005c
:1053f80020079800606222003007980020032000f0
:10540800400798002003200050079800400620001d
:10541800600798004006200070079800de0890009a
:1054280040412800e14078008002eb000e0278003d
:1054380083c0b300020d20000e589000dbed07007a
:105448000080eb00000f7800f0ef210010079800b3
:105458007e08900010007800200798006062220003
:105468003007980020032000400798002003200000
:10547800500798004006200060079800400620006a
:1054880070079800de08900040412800e14078004d
:105498008002eb000e02780083c0b300820d20006a
:1054a8000e589000c1ed07006e089000000f7800bc
:1054b8000000eb00200798000000eb003007980080
:1054c8000000eb00400798000000eb005007980030
:1054d8000000eb006007980000402000700798006b
:1054e8000000eb00000f98000000eb00100f980080
:1054f800f0ff2000200f9800de08900040412800af
:10550800e14078008002eb000e027800b3c0b300df
:105518000001eb000e589000a4ed0700f0ff2000fa
:1055280010079800de08900040412800e14078000c
:10553800150020000e02780013c0b30012002000ee
:105548000e58900099ed07000080fa000000060050
:105558002200fa00205f9800315f9800425f9800af
:10556800730f9800041798003e5890000080fb00c5
:10557800000f78008e80e800e0ff2f008008780098
:105588008e80e800f0ff2100900098000e80e8006f
:105598008e109000210098008e80e8006062220042
:1055a800b00098008e80e80020032000c00098001a
:1055b8008e80e80020032000d00098008e80e8004c
:1055c80040062000e00098008e80e8004006200099
:1055d800f00098004e5890008080fb004041280061
:1055e800614178000e80e8000003eb00800278003b
:1055f80084c0b300030820009e0078002e58900055
:1056080079f007008e80e800b0ff2f00800878004e
:105618008e80e800f0ff2100900098000e80e800de
:105628008e109000210098008e80e80060622200b1
:10563800b00098008e80e80020032000c000980089
:105648008e80e80020032000d00098008e80e800bb
:1056580040062000e00098008e80e8004006200008
:10566800f00098004e5890008080fb0040412800d0
:10567800614178000e80e8000003eb0080027800aa
:1056880084c0b300830820009e0078002e58900044
:1056980055f007008e80e800f0fe2f0080087800a3
:1056a8008e80e800f0ff2100900098000e80e8004e
:1056b8008e109000210098008e80e8006062220021
:1056c800b00098008e80e80020032000c0009800f9
:1056d8008e80e80020032000d00098008e80e8002b
:1056e80040062000e00098008e80e8004006200078
:1056f800f00098004e5890008080fb004041280040
:10570800614178000e80e8000003eb008002780019
:1057180084c0b300030920009e0078002e58900032
:1057280031f007008e80e800f0fb2f008008780039
:105738008e80e800f0ff2100900098000e80e800bd
:105748008e109000210098008e80e8006062220090
:10575800b00098008e80e80020032000c000980068
:105768008e80e80020032000d00098008e80e8009a
:1057780040062000e00098008e80e80040062000e7
:10578800f00098004e5890008080fb0040412800af
:10579800614178000e80e8000003eb008002780089
:1057a80084c0b300830920009e0078002e58900022
:1057b8000df007008e80e800f0ef2f0080087800d9
:1057c8008e80e800f0ff2100900098000e80e8002d
:1057d8008e109000210098008e80e8006062220000
:1057e800b00098008e80e80020032000c0009800d8
:1057f8008e80e80020032000d00098008e80e8000a
:1058080040062000e00098008e80e8004006200056
:10581800f00098004e5890008080fb00404128001e
:10582800614178000e80e8000003eb0080027800f8
:1058380084c0b300030a20009e0078002e58900010
:10584800e9ef07008e80e800f0bf2f00800878009d
:105858008e80e800f0ff2100900098000e80e8009c
:105868008e109000210098008e80e800606222006f
:10587800b00098008e80e80020032000c000980047
:105888008e80e80020032000d00098008e80e80079
:1058980040062000e00098008e80e80040062000c6
:1058a800f00098004e5890008080fb00404128008e
:1058b800614178000e80e8000003eb008002780068
:1058c80084c0b300830a20009e0078002e58900000
:1058d800c5ef07008e80e800f0ff2e0080087800f2
:1058e8008e80e800f0ff2100900098000e80e8000c
:1058f8008e109000210098008e80e80060622200df
:10590800b00098008e80e80020032000c0009800b6
:105918008e80e80020032000d00098008e80e800e8
:1059280040062000e00098008e80e8004006200035
:10593800f00098004e5890008080fb0040412800fd
:10594800614178000e80e8000003eb0080027800d7
:1059580084c0b300030b20009e0078002e589000ee
:10596800a1ef07008e80e8000080eb008008780037
:105978008e80e800e0ff2100900098000e80e8008b
:105988008e109000210098008e80e800606222004e
:10599800b00098008e80e80020032000c000980026
:1059a8008e80e80020032000d00098008e80e80058
:1059b80040062000e00098008e80e80040062000a5
:1059c800f00098004e5890008080fb00404128006d
:1059d800614178000e80e8000003eb008002780047
:1059e80084c0b300830b20009e0078002e589000de
:1059f8007def07008e80e8000080eb0080087800cb
:105a08008e80e800b0ff2100900098000e80e8002a
:105a18008e109000210098008e80e80060622200bd
:105a2800b00098008e80e80020032000c000980095
:105a38008e80e80020032000d00098008e80e800c7
:105a480040062000e00098008e80e8004006200014
:105a5800f00098004e5890008080fb0040412800dc
:105a6800614178000e80e8000003eb0080027800b6
