:020000040000fa
:080000000001040000000000f3
:020000040000fa
:10020000cfc920000eff20000e0188000000000072
:100210000c00070000ae24000100200011000700c0
:10022000000020000000e000020032000000020098
:10023000000000002e060200000000000040da006e
:100240000000fe004440a900000d20000000e00076
:100250000300320000002000a00188004440a800f4
:100260000000060091018800800078000000eb008b
:1002700015003700e280400032a0b4009101ba00be
:10028000e280400032a0b4009102ba00e280400057
:1002900032a0b4000002eb00472bde00f507b200ed
:1002a000602ce10004003a000059eb008301e900f2
:1002b000fdff3e00040037006128e100010032002c
:1002c0000082eb00040007001101ba000200e00008
:1002d000e8ff3a00000006003159ba008301e90046
:1002e0000c0032002159ba008301e90008003200f5
:1002f0000400e00003003a00e280400032a0b400b5
:10030000f5ff370011d9ba008301e900faff3a007e
:100310008100e800e180400032a0b4000000060047
:100320009183a80000000600901c8800a11c880092
:1003300000000600e14f500007003200e24f50007d
:10034000070032008000eb000004e00009003a00e2
:100350006ec3bf00030037005ec3bf00010037005b
:100360004ec3bf000080fb004300de000000a2007f
:10037000e10060000100780000000600881f78009e
:10038000401bde0007002000e1cf520003003200d6
:10039000e2cf52000500320008003700801a8800c2
:1003a000961a8800a21a880007003700001a8800f1
:1003b000161a8800221a880003003700001b8800e4
:1003c000161b8800221b88000001eb000480fb0044
:1003d000673520006634200010003700e1cf52005e
:1003e00003003200e2cf5200040032000600370062
:1003f000914178008373790006003700114478003a
:100400000873790003003700633620001144780038
:10041000887179000201e8008100e800800f510036
:10042000eeff3500e1cf520003003200e2cf520070
:100430000c003200160037006f4062004300dd0000
:10044000413520009140780072c8b30082c060003e
:1004500080c070000100780054e3b7005e63a8001c
:10046000150037006f4062004300dd00413420007a
:100470009140780072c8b30082c0600080c07000f4
:100480000100780044e3b7004e63a8000a0037007b
:100490006f4062004300dd0041362000914078004b
:1004a00072c8b30082c0600080c070000100780094
:1004b00064e3b7006e63a8004f04780000000600f4
:1004c000401ade000500200004037800e24f5000cf
:1004d0001300320005003c000004e0000900320077
:1004e000e14f50001e003a0009003700e44f500071
:1004f000130032000e003500e54f500018003a009e
:1005000013003700011888001418880016003700ff
:1005100041188800541888006218880000000600fe
:100520008118880094188800a2188800000006002e
:10053000c1188800d4188800e2188800000006005e
:10054000011988001419880022198800000006008b
:1005500041198800541988006219880000000600bb
:10056000011888001618880022188800000006006c
:10057000401ade00050020000004e0000600320002
:10058000e14f500004003a00c1198800d4198800d6
:10059000e21988000000060081198800941988007b
:1005a000a219880000000600801c880000000600d8
:1005b0000004e00004003200e14f500002003a0065
:1005c000f11b880000000600711c88000000060076
:1005d000e14f500003003200e24f500003003200b0
:1005e00004003700f11a880000000600711a880024
:1005f00000000600711b8800000006009623ef0033
:100600008760a900c01c8800e7c16000c419dd0034
:10061000a1c0bf00f2c8b3000240600003407000f8
:10062000a1e0b700e8806000c308de00c308dd0079
:100630008fc0bf000034a100014070008fe0b70000
:10064000000006008460a900e7416000c419dd00d5
:100650005109200091407800f2c8b30082c06000c8
:1006600083c070008000fd0095e0b7008000fd00b1
:10067000680060004300de004300dd00c108200088
:10068000914078000134a10080c070000100780022
:100690008ce0b7000000060084c0a900e7416000bc
:1006a000710920009140780082cfb30082c06000c1
:1006b00083c070008000fd0097e0b7008000fd005f
:1006c000680060004300de004600dd00c108200035
:1006d000914078000164a10080c0700001007800a2
:1006e0008ce0b700000006000021ef001108880030
:1006f00020088800000006000621ef00610888003d
:10070000800888001061a900000006000008880029
:100710000000060030088800000006003200f800e3
:10072000910188000008bb00410424006210e10030
:1007300004003200000220000010e1000a003a002c
:1007400051042400013b88000500fc0051052000f5
:10075000313b8800a10a2000313b880061e7a800f6
:1007600000000000000000003200f9000000060058
:100770003200f80060042400003b8800f2ff3700dc
:100780003200f8009101880041002400013b8800fc
:100790000208bb00ecff37003200f800910188002e
:1007a00051002400013b8800030120003218bb00e7
:1007b0008301e900fdff3a00e3ff37003200f80053
:1007c000023b8800910188000008bb000500fc0086
:1007d00051052000313b8800a10a2000313b8800f0
:1007e00061e7a80000000000000000003200f900ee
:1007f000000006000400a100010037000400a00072
:100800003200f8009101880011002400013b8800ab
:10081000f10f20003208bb000400a700b2007800ee
:100820000198bb008301e900faff3a00680151001a
:100830000400a70068015100680050001208bb00c6
:10084000e2ff3700f30f20003200f800910188002a
:1008500031002400013b88000208bb000388bb0074
:10086000daff37003200f800003b8800d7ff37007e
:100870003200f80091018800800278006200400098
:10088000e08048003549ba003204e0000410a700b7
:10089000100032008301e9000e0032002549ba0041
:1008a0003204e0000410a7000a0032008301e900ce
:1008b000080032000408a300eeff320015c9ba0098
:1008c0003204e0000410a700020032008301e900b6
:0c08d000e8ff3a003200f90000000600ca
:020000040000fa
:0200000401f009
:04000000febf00003f
:020000040000fa
:0200000401f009
:04000400ff7f00007a
:020000040000fa
:0200000401f009
:04000800efff000006
:020000040000fa
:0200000401f009
:04001400ffff0000ea
:020000040000fa
:100008007c450000e24b0000ea4b0000f24b000088
:10001800fa4b00007c4500007c4500007c45000050
:100028007c4500007c4500007c4500003e05000042
:100038007c4500007c4500004e0500007c45000022
:100048007c4500007c4500007c450000ca4b000050
:100058007c4500007c4500007c4500007c45000094
:100068007c4500007c4500007c4500007c45000084
:100078007c4500007c4500007c4500007c45000074
:100088007c4500007c4500007c450000e60500003a
:100098007c4500007c4500007c4500007c45000054
:1000a8007c4500007c4500007c4500007c45000044
:1000b8007c4500007c4500007c4500007c45000034
:1000c8007c4500007c4500007c4500007c45000024
:1000d8007c4500007c4500007c4500007c45000014
:1000e8007c4500007c4500007c4500007c45000004
:0800f8007c4500007c4500007e
:020000040000fa
:100108007c450000024c00000a4c0000124c000024
:100118001a4c00007c4500007c4500007c4500002e
:100128007c4500007c4500007c4500003e05000041
:100138007c4500007c4500004e0500007c45000021
:100148007c4500007c4500007c450000ca4b00004f
:100158007c4500007c4500007c4500007c45000093
:100168007c4500007c4500007c4500007c45000083
:100178007c4500007c4500007c4500007c45000073
:100188007c4500007c4500007c450000e605000039
:100198007c4500007c4500007c4500007c45000053
:1001a8007c4500007c4500007c4500007c45000043
:1001b8007c4500007c4500007c4500007c45000033
:1001c8007c4500007c4500007c4500007c45000023
:1001d8007c4500007c4500007c4500007c45000013
:1001e8007c4500007c4500007c4500007c45000003
:0801f8007c4500007c4500007d
:020000040000fa
:1008dc002c2d00002e2f00000c0d00000e0f000020
:1008ec00804500000000000098450000000000005a
:1008fc00b045000000000000c845000000000000ea
:10090c00e045000000000000f84500000000000079
:10091c001046000000000000284600000000000007
:10092c004046000000000000584600000000000097
:10093c007046000000000000884600000000000027
:10094c00a046000000000000b846000000000000b7
:10095c00d046000000000000e84600000000000047
:10096c0000470000000000000647000000000000e7
:10097c000c470000000000001247000000000000bf
:10098c0018470000000000001e4700000000000097
:10099c0024470000000000002a470000000000006f
:1009ac003047000000000000364700000000000047
:1009bc003c4700000000000042470000000000001f
:1009cc0048470000000000004e47000000000000f7
:1009dc0054470000000000005a47000000000000cf
:1009ec0000000000000000000000000000000000fb
:1009fc0000000000000000000000000000000000eb
:100a0c0000000000000000000000000000000000da
:100a1c0046000000600000005300000026000000ab
:100a2c002600000046000000000000002d00000021
:100a3c004d000000a4000000000000004d0000006c
:100a4c00000000000000000000000000000000009a
:100a5c00000000000000000000000000000000008a
:100a6c00000000000000000000000000000000007a
:020000040000fa
:100a7c00801f78000000fa0010c0b300a0e8b70097
:100a8c008460a9000080fa004f0078000040060046
:100a9c003600f800809fbe00829fbe00849fbe007f
:100aac00869fbe000000fa0010c0b300a1e8b7009a
:100abc0058ccbf000004e000390032000064800014
:100acc008000780000f02f00008060004800de00fd
:100adc0070ecb700006480008040780000c0eb0030
:100aec0000c0600071ecb7001064800080007800da
:100afc0000f02f00008060004800de0072ecb700b0
:100b0c00106480008040780000c0eb0000c06000e2
:100b1c0073ecb700206480008000780000f02f0098
:100b2c00008060004800de0074ecb7002064800098
:100b3c008040780000c0eb0000c0600075ecb7008e
:100b4c0010c0b300f8fd07000004e000fcff320009
:100b5c00d1628000007c2000008060004501dd0037
:100b6c00d1628000f0032000008060004200dd00b4
:100b7c0000007100800078003100b300c08f2f009e
:100b8c000080600015c0b30064c0b30001c7200032
:100b9c00821f200003002000f5fd0700a022a80002
:100bac0084c0a9000080fa004f03be004f02be00b3
:100bbc004f01be004f00be003600f9000040060099
:100bcc003600f800809fbe00829fbe00849fbe004e
:100bdc00869fbe000000fa0096c3bf006440600010
:100bec000004e00008003a0096c3bf0068406000b3
:100bfc000004e00004003a0096c3bf00704060009f
:100c0c000004e00001003200c213070096c3bf00cd
:100c1c00614060000004e00004003a0096c3bf008d
:100c2c00624060000004e00001003200f213070093
:100c3c008760a9000080fa004f03be004f02be007f
:100c4c004f01be004f00be003600f9000040060008
:100c5c001c00fa000000eb00700798000000eb008d
:100c6c00600798000000eb00500798000000eb00b4
:100c7c00400798000000eb00300798000000eb00e4
:100c8c00200798000000eb00100798000000eb0014
:100c9c00000f78003c220700fdcbbf000080fb005a
:100cac005061880080628000fc2207000040eb004d
:100cbc000b090700e0220700e812070058ccbf0020
:100ccc000004e0000c00320090628000fe2207005d
:100cdc0000502000d0628800fdcbbf000080fb00dc
:100cec004400dd0080007800d0628000008070003d
:100cfc00d0628800762207005cccbf000004e000c4
:100d0c0006003a005eccbf000004e00003003a008d
:100d1c005dccbf000004e000020032009062800055
:100d2c00e92207000040eb00405798000300370011
:100d3c004e5090000040e800405798004e509000f4
:100d4c00e34f5000faff36000040eb00305798009c
:100d5c000040eb00405798000000eb00000f98009b
:100d6c000040eb0020579800280037002e509000d0
:100d7c000080fb0042c52000124178006600b900db
:100d8c008000780000842000008040000248780039
:100d9c002e5090000080fb00626380006600b9005a
:100dac00e40040000084200000804000020878002d
:100dbc002e5090008080fb002e5090000080fb0095
:100dcc004200de00004178006608b9008080e8002f
:100ddc000084200000804000024878002e509000d3
:100dec008080fb002e509000634160006608b900c3
:100dfc0080007800008420000080400012409800a1
:100e0c002e5090000040e800205798002e50900083
:100e1c00ef4f5000d5ff36000040eb0040579800d4
:100e2c000f0037004e5090008080fb0020472800b8
:100e3c0061407800860707004e5090008080fb00d0
:100e4c00204728006140780017080700c0d129000e
:100e5c00210207004e5090000040e80040579800d7
:100e6c004e509000e34f5000eeff36000000eb00b8
:100e7c0070079800e2a2a8008f60a8008c60a900ff
:100e8c008cc0a9000040eb00a0e8b700a1c8bf00cf
:100e9c005cccbf000004e00006003a005eccbf0052
:100eac000004e00003003a005dccbf000004e00049
:100ebc0005003200a1c8bf000004e00002003200af
:100ecc000040eb00a1e8b700a0c8bf00e14f500004
:100edc0014013a000000eb00000f78000040eb001a
:100eec00a0e8b7000040eb00405798007e0090004f
:100efc00f40f500009003a00e2c2bf000042b200f9
:100f0c000004e00002003200e2a2a9000100370058
:100f1c00e2a2a8000000eb00700798007e00900091
:100f2c000000e800700798002cccbf000080fb008c
:100f3c00500f98005e089000e10f50000400320042
:100f4c005e089000e30f500052003200f5003700ad
:100f5c0068ccbf000080fb00400f98004e0890004a
:100f6c00e10f5000370032004e089000e20f5000a5
:100f7c003e0032004e0890000000e00001003200fc
:100f8c00e80037000040eb00405798001d00370088
:100f9c004e5090000080fb00d053880022c22000ed
:100fac004e5090008080fb0020472800e1407800e4
:100fbc0076c0b30025a3200024a2200013c0b300e8
:100fcc000040eb00e10907000040eb0020579800bf
:100fdc0006003700ae5090000040eb009206070070
:100fec002e5090000040e800205798002e509000a2
:100ffc00e14f5000f7ff36004e5090000040e800e3
:10100c00405798004e509000e34f5000e0ff3600e0
:10101c0060ccbf000004e000c20032000040eb00d6
:10102c0040579800030037004e5090000040e800f5
:10103c00405798004e509000ef4f5000faff36008a
:10104c00b80037000040eb00405798000300370011
:10105c004e5090000040e800405798004e509000d1
:10106c00ef4f5000faff3600ae0037000040eb00a7
:10107c0040579800030037004e5090000040e800a5
:10108c00405798004e509000ef4f5000faff36003a
:10109c00a400370010c0b3002cecb70068ccbf0024
:1010ac000080fb00300f98003e089000e10f5000cc
:1010bc00490032003e089000e10f500004003c0053
:1010cc003e0890000000e000080032009500370058
:1010dc003e089000e20f5000770032003e0890006e
:1010ec00e40f5000580032008e0037000040eb0037
:1010fc00405798001d0037004e5090000080fb00b8
:10110c006600b9008080e800008420000080400068
:10111c00104090000004e000110032004e5090008e
:10112c000080fb006600b900e40040000084200051
:10113c000080400010007800ce509000530407004f
:10114c004e5090000080fb006600b9008080e800e3
:10115c0000842000808040000040eb00904098000c
:10116c004e5090000040e800405798004e509000c0
:10117c00ef4f5000e0ff36000040eb00a0e8b70056
:10118c000040eb00505798000000eb005cfd07009e
:10119c000000eb00000f9800a0c8bf000004e000a6
:1011ac00fdff32000040eb00a0e8b7000000eb00b0
:1011bc0053fd0700a0c8bf000004e000fdff320093
:1011cc0061ccbf000004e00056003a0010c0b30030
:1011dc005a180700530037000040eb0040579800a6
:1011ec00030037004e5090000040e8004057980034
:1011fc004e509000e34f5000faff36000040eb00d9
:10120c00a0e8b7000040eb00505798000000eb003e
:10121c003bfd07000000eb00000f9800a0c8bf00ca
:10122c000004e000fdff32000040eb00a0e8b70036
:10123c000000eb0032fd0700a0c8bf000004e00076
:10124c00fdff3200370037000040eb00405798009c
:10125c00030037004e5090000040e80040579800c3
:10126c004e509000e34f5000faff36000040eb0068
:10127c00a0e8b7000040eb00505798000000eb00ce
:10128c001ffd07000000eb00000f9800a0c8bf0076
:10129c000004e000fdff32000040eb00a0e8b700c6
:1012ac000000eb0016fd0700a0c8bf000004e00022
:1012bc00fdff32001b0037000040eb004057980048
:1012cc00030037004e5090000040e8004057980053
:1012dc004e509000e34f5000faff36000040eb00f8
:1012ec00a0e8b7000040eb00505798000000eb005e
:1012fc0003fd07000000eb00000f9800a0c8bf0022
:10130c000004e000fdff32000040eb00a0e8b70055
:10131c000000eb00fafc0700a0c8bf000004e000ce
:10132c00fdff320050618000a2120700d8fe37008a
:10133c000600fa00404798000000eb0010079800e8
:10134c0040002000000f7800e40047000000280057
:10135c00800878000000eb00100798002800370088
:10136c001e0090007800b90080007800209c2000be
:10137c0000804000800378001e0090007800b900c7
:10138c0080007800209620000080400080017800ca
:10139c001e0090007800b90080007800209020009a
:1013ac0000804000000278001e0090007800b90018
:1013bc0080007800208a2000008040000001780026
:1013cc009e009000e0462800e14078000000eb0011
:1013dc00801f7800030378008402780002027800f2
:1013ec00c3c0b300b20020000040eb00090c0700a2
:1013fc008f87e9001e0090000000e800100798009d
:10140c001e0090009e0f5000d5ff39000000eb002d
:10141c0010079800030037001e0090000000e80041
:10142c00100798001e0090009e0f5000faff390024
:10143c000080fa00000006001e00fa00405f9800d1
:10144c000000eb001007980040002000000f78000f
:10145c00e400470000002800a00098000000eb000a
:10146c0010079800280037001e0090007800b90083
:10147c0080007800209c20000080400080037800d1
:10148c001e0090007800b9008000780020962000a3
:10149c0000804000800178001e0090007800b900a8
:1014ac00800078002090200000804000000278002e
:1014bc001e0090007800b90080007800208a20007f
:1014cc0000804000000178009e009000e04628005b
:1014dc00e14078000000eb00801f780003037800e7
:1014ec00840278000202780013c0b300b20020001e
:1014fc000040eb00c70b07008f87e9001e0090002f
:10150c000000e800100798001e0090009e0f50008d
:10151c00d5ff39000080fa00000006000600fa0032
:10152c00404798000000eb00100798004000200096
:10153c00000f78000000eb0010079800280037001f
:10154c001e0090007800b90080007800209c2000dc
:10155c0000804000800378001e0090007800b900e5
:10156c0080007800209620000080400080017800e8
:10157c001e0090007800b9008000780020902000b8
:10158c0000804000000278001e0090007800b90036
:10159c0080007800208a2000008040000001780044
:1015ac009e009000e0462800e14078000000eb002f
:1015bc00801f780003037800840278000202780010
:1015cc0033c0b300b20020000040eb00910b0700c9
:1015dc008f87e9001e0090000000e80010079800bb
:1015ec001e0090009e0f5000d5ff39000080fa00bd
:1015fc00000006000600fa00404798000000eb00cf
:10160c001007980040002000000f7800e40047000d
:10161c0000002800800878000000eb0010079800fc
:10162c00280037001e0090007800b9008000780078
:10163c00209c200000804000800378001e00900059
:10164c007800b900800078002096200000804000cf
:10165c00800178001e0090007800b90080007800ae
:10166c002090200000804000000278001e009000b6
:10167c007800b90080007800208a200000804000ab
:10168c00000178009e009000e0462800e1407800c0
:10169c000000eb00801f78000303780084027800c0
:1016ac000202780023c0b300b20020000040eb001f
:1016bc00580b07008f87e9001e0090000000e8001f
:1016cc00100798001e0090009e0f5000d5ff3900a7
:1016dc000080fa00000006000200fa00000f7800fb
:1016ec00010037001e0fe9001e00e000fdff3a006c
:1016fc000080fa00000006004e00fa0040cf98006f
:10170c000000eb00000f78000058240001002000be
:10171c0010079800210798000000eb005007980074
:10172c000d003700120424001e009000ae00900043
:10173c001ffc07001e009000ae0090000004b000db
:10174c000180b00010079800210798005e009000ff
:10175c000000e800500798005e009000e50f500074
:10176c00f0ff34000000eb00400798000058240004
:10177c000100200010079800210798000000eb00e2
:10178c0050079800520037005e0090004200dd00c8
:10179c008080e80000802000808040000000eb008a
:1017ac00800878000000eb00300798002f0037000d
:1017bc00ce0190005e0090003e0190006c00b900dc
:1017cc000200400080004000208a20000080400081
:1017dc001000780000017800ec0047000380410005
:1017ec0002b078004e0090000000e800400798001e
:1017fc00ce00900000022000808f50000d003a00b7
:10180c006c014700030220001e009000ae00900007
:10181c00f5fb07001e009000ae0090000004b00025
:10182c000180b00010079800210798000000eb0021
:10183c00400798005e0090003e0190006c00b900db
:10184c000200400080004000208a20000080400000
:10185c0010007800e10f400001003a001e0fe80074
:10186c003e0090000000e800300798003e00900019
:10187c00eb0f5000ceff3400c00020009e0f100074
:10188c000e003a00de0190005e0090004200dd0088
:10189c008080e8000080200000804000100078006c
:1018ac00000178000210a0004218dd008080e800e2
:1018bc000080200000804000020878000000eb004f
:1018cc00000f78005e0090000000e80050079800c0
:1018dc005e009000ef0f5000abff34000080fa0068
:1018ec00000006004c00fa0020cf98000070240085
:1018fc0001002000008fbe000000eb0040079800a4
:10190c000a003700120424001e00be00a8fb0700ca
:10191c0000042000010020001e0f40005e974800cc
:10192c004e0090000000e800400798004e00900028
:10193c00e20f5000f3ff34000000eb00300798007a
:10194c000070240001002000008fbe000000eb009e
:10195c00400798002a0037000000eb002007980091
:10196c0021003700be0190004e0090002e01900027
:10197c006c00b9000200400080004000208a20006a
:10198c00008040001000780000017800ea00470059
:10199c000380410002b078003e0090000000e80097
:1019ac0030079800be00900000022000808f50008d
:1019bc000a003a006a014700030220001e00be0024
:1019cc0089fb070000042000010020001e0f4000ce
:1019dc005e9748000000eb00300798002e00900046
:1019ec000000e800200798002e009000e20f500045
:1019fc00dcff34004e0090000000e8004007980027
:101a0c004e009000ef0f5000d3ff34006a014700e6
:101a1c00030220001e00be0073fb07000004200020
:101a2c00010020001e0f40005e9748000080fa0065
:101a3c00000006006000fa0040df980051df9800bb
:101a4c000000eb0020079800c00220000e004000b0
:101a5c00e15028000b000900311878008001b1001a
:101a6c00400420000e004000614f28000b000900cc
:101a7c00311878008001b10057ccbf008080fb008a
:101a8c00f00f2000010150005ed890000080fb0098
:101a9c006600b900800078000084200000804000bf
:101aac00104078000080fb000010dd00100798004b
:101abc0057ccbf000081fb005ed890000080fb007b
:101acc006600b9008000780000842000008040008f
:101adc00104078000080fb000010dd00000f780043
:101aec005ed890000080fb00c200dd00604728003b
:101afc00008040001000be006c004000e0804800f8
:101b0c00a201800000f0a4008180d200a101880015
:101b1c0010007800a2018800f05388005ed8900075
:101b2c000080fb007800b900ec004000208a200007
:101b3c000080400010007800005488005ed89000af
:101b4c000080fb00c200dd006047280000804000e0
:101b5c001000be0076004000e0804800a20180002a
:101b6c0000f0a4008180d200a10188001000780050
:101b7c00a2018800105488005ed890000080fb0001
:101b8c007800b900f6004000208a20000080400058
:101b9c0010007800205488005ed890000080fb0074
:101bac004200dd008080e800008020008080400042
:101bbc000000eb00800878005ed890000080fb00ed
:101bcc00c200dd0000802000808040000000eb009f
:101bdc00800878000000eb00200798000000eb0064
:101bec0050079800fe0037005ed890000080fb0084
:101bfc00c200dd0060472800008040001001be00dc
:101c0c005e00900001002000000040008180480030
:101c1c000000410081804900a201800000f0a40076
:101c2c008180d200a101880010007800a2018800f8
:101c3c000000e0001b0032005ed890000080fb002a
:101c4c005e0190006c00b900020040008000400072
:101c5c00208a200000804000100078000000e00086
:101c6c0010003a005ed890008081fb005ed8900096
:101c7c000080fb004200dd008080e8000080200036
:101c8c000080400010007800000178000200a000e5
:101c9c004218dd008080e8000080200000804000b9
:101cac00020878005fccbf00e14f500052003a00b0
:101cbc0020638000702f9800fe2890000100e00047
:101ccc00040032007e289000e10f50002400320006
:101cdc004600370001548000f0538000808f500084
:101cec000e00340001548000f0538000008050003e
:101cfc004280de00000178005e009000c1022000ee
:101d0c008e80400000004000608078000090b90098
:101d1c004500de00305488000e003700f15380007f
:101d2c0000548000008050004280de0000017800ea
:101d3c005e009000c10220008e8040000000400038
:101d4c00608078000090b9004500de000000ea00d9
:101d5c0030548800305480004061880028003700df
:101d6c002154800010548000808f50000e003400ed
:101d7c002154800010548000008050004280de000e
:101d8c00000178005e009000410420008e8040002d
:101d9c0000004000608078000090b9004500de0033
:101dac00305488000e0037001154800020548000fd
:101dbc00008050004280de00000178005e00900040
:101dcc00410420008e8040000000400060807800bc
:101ddc000090b9004500de000000ea003054880095
:101dec003054800040618800050037000000eb0093
:101dfc0030548800020037000000eb00305488009b
:101e0c005ed890000080fb005e0190006c00b90071
:101e1c000200400080004000208a2000008040002a
:101e2c00100278005ed890000080fb00c200dd003c
:101e3c0060472800008040001001be005e0090004a
:101e4c00010020000000400081804800000041009b
:101e5c0081804900a201800000f0a4008180d200a2
:101e6c00a101880010007800a201880080005200b7
:101e7c003054800000805000300798001e00900005
:101e8c008000ea003e009000808f50000500350075
:101e9c005e0090007401470080004000f00f2000ad
:101eac00803079003e0090009e0f500005003500f8
:101ebc005e00900074014700800040000000eb00c1
:101ecc00803079001e0090008000ea003e009000f7
:101edc00808f500015003d003e0090009e0f50007a
:101eec0012003d00de01900057ccbf000081fb00ca
:101efc005ed890000080fb006600b900800078007e
:101f0c000084200000804000104078008080fb009e
:101f1c003e0090000180de000000510000017800be
:101f2c00f40047000380410002b078001e009000ce
:101f3c00000040008000ea003e009000808f5000be
:101f4c0006003d001e007800000040008000780074
:101f5c003e009000808f500010003c005ed8900036
:101f6c008081fb005ed890000080fb00c200dd0089
:101f7c00008020000080400010017800de009000fe
:101f8c00100020000100dd0000017100c218dd000e
:101f9c000080200000804000020878005ed890008d
:101fac000080fb005e0190006c00b9000200400054
:101fbc0080004000208a2000008040001000780043
:101fcc00e10f400003003a002e0090000000e800f2
:101fdc00200798005e0090000000e8005007980071
:101fec005e009000eb0f5000fffe36002e009000bc
:101ffc00ec0f500008003a005ed890000080fb0007
:10200c004200dd008080e8000080200080804000dd
:10201c00200020008008780062ccbf000004e000a3
:10202c0003003200004020004054880002003700ba
:10203c0000302000405488005ed890008080fb0067
:10204c00fdcbbf000080fb004400dd000080700071
:10205c00800078004054800000807000405488005c
:10206c00ec00470000c4b30080487800100020004a
:10207c00500798000d0037005e0190005e00900044
:10208c000000e900f4004700000040006080780088
:10209c00804078006c004700000041000148780047
:1020ac005e0090000000e800500798005e00900071
:1020bc00e70f5000f0ff3600445480006c004700de
:1020cc008001780082c0b30011c0b3000400780016
:1020dc002d0e0700ec00470000ccb30080487800c0
:1020ec0010002000500798000d0037005e01900092
:1020fc005e00900066004000f400470000004000c5
:10210c0060807800804078006c004700000041003f
:10211c00014878005e0090000000e800500798002d
:10212c005e009000e50f5000f0ff36005ed8900086
:10213c000080fb00c200dd00008020000080400019
:10214c009000780000ff2000008060004400de005a
:10215c00804078006c004700614098005ed8900089
:10216c000080fb00c200dd000080200000804000e9
:10217c00100078006f4060004401dd005ed89000d4
:10218c000080fb004200dd008080e8000080200021
:10219c000080400010007800804071006c00470007
:1021ac0071409800445480006c0047008001780016
:1021bc0082c0b30011c0b30004007800f20d070018
:1021cc005ed890000080fb004200dd008080e800bb
:1021dc000080200000804000100078000000e0002b
:1021ec00190032005ed890000080fb004200dd0038
:1021fc008080e80000802000008040001000780003
:10220c00e20f5000100032005ed890000080fb00fe
:10221c004200de000080fb00400798005ed8900072
:10222c000080fb004200dd008080e8000080200080
:10223c00808040000000eb008008780069ccbf0073
:10224c000040e80069ecb70069ccbf00e54f5000d6
:10225c000c003a005ed890000080fb006600b900cc
:10226c008080e800008420008080400010c0b30013
:10227c009040980030c0b3002cecb7000040eb004d
:10228c0069ecb7000080fa00000006000400fa00b8
:10229c00000f780021479800726280002e40900059
:1022ac000080fb006600b9008000780000842000ec
:1022bc0000804000904290002e4090000080fb0077
:1022cc006600b9008080e800008420000080400097
:1022dc00904078001e027800820178000541780059
:1022ec000040eb00f01607000080fa00000006002a
:1022fc000600fa00200798002e00900010079800a6
:10230c000040eb00004f780007003700726280003d
:10231c009e80fb000e80e800800178000040eb00fe
:10232c007a1507001e4fe80030c0b3009e4f100016
:10233c00f6ff36000080fa00000006000a00fa00e2
:10234c00004f9800114f98000070200040548800f6
:10235c001e4890008080fb00fdcbbf000080fb007e
:10236c004400dd0000807000800078004054800044
:10237c0000807000405488001e4890000080fb00d4
:10238c006600b9008080e8000084200000804000d6
:10239c00104090000044b000004f78001e489000a0
:1023ac000080fb006600b9008080e80000842000fb
:1023bc000080400010407800104798001e489000a4
:1023cc000080fb006600b9008000780000842000cb
:1023dc000080400010409000204798001e4890005c
:1023ec000080fb006600b900e4004000008420007f
:1023fc000080400010007800304798001e48900084
:10240c000080fb006600b900e4004000008420005e
:10241c00008040009000780000f02f0000806000e9
:10242c004800de00404798001e4890000080fb00ea
:10243c006600b90080007800008420000080400015
:10244c001040780050479800306380006047980037
:10245c003163800000f02f00008060004800de0037
:10246c0070479800405480008e01780082c0b30001
:10247c0011c0b300440d070000ccb300004f78002e
:10248c0000cab3001047980000cbb3002047980057
:10249c0050ccb3003047980020ccb3004047980094
:1024ac0000c0eb0050479800d0ceb30060479800b6
:1024bc000040eb0070479800405480008e0178007b
:1024cc0082c0b30011c0b3002f0d07000080fa00ca
:1024dc00000006002600fa0040679800516798003b
:1024ec000000eb00100798005e6090000080fb007d
:1024fc00c200dd00604b2800008040001001be00cf
:10250c001e00900001002000000040008180480067
:10251c000000410081804900a201800000f0a4006d
:10252c008180d200a101880010007800a2018800ef
:10253c00800178005e6090000080fb001e0190001e
:10254c006c00b9000200400080004000208a20008e
:10255c000080400010007800808f5100310039005d
:10256c005e6090000080fb00c200dd00604b280024
:10257c00008040001001be001e00900001002000f1
:10258c00000040008180480000004100818049002b
:10259c00a201800000f0a4008180d200a10188007b
:1025ac0010007800a2018800800178005e60900025
:1025bc000080fb001e0190006c00b900020040007e
:1025cc0080004000208a200000804000100078002d
:1025dc008080510056ccbf000080fb000008de005c
:1025ec00000f7800900020009e0f100006003600af
:1025fc001e0090006c01470080004000f00f20008e
:10260c0080307900360037001e009000410f20000a
:10261c001e814000ec0047000000400002b0780032
:10262c002f0037005e6090000080fb001e019000c0
:10263c006c00b9000200400080004000208a20009d
:10264c0000804000100278005e6090000080fb006b
:10265c00c200dd00604b2800008040001001be006d
:10266c001e00900001002000000040008180480006
:10267c000000410081804900a201800000f0a4000c
:10268c008180d200a101880010007800a20188008e
:10269c008000520056ccbf000080fb000008de001a
:1026ac00000f7800200f20009e0f1000060036004f
:1026bc001e0090006c0147008000400010002000bc
:1026cc0080307900060037001e019000400f20007a
:1026dc009e015000ec0047000200410003b078005e
:1026ec0000302000405488005e6090008080fb0029
:1026fc00fdcbbf000080fb004400dd0000807000bb
:10270c0080007800405480000080700040548800a5
:10271c00e400470000c4b300804878006c00470018
:10272c001000780080407800640047001140980049
:10273c0044548000640047008001780022c0b3003c
:10274c0011c0b300040078008f0c07000080fa0061
:10275c00000006002600fa004067980051679800b8
:10276c000000eb0010079800810037005e609000bd
:10277c000080fb00c200dd00604b280000804000a0
:10278c001001be001e00900001002000000040005f
:10279c00818048000000410081804900a201800036
:1027ac0000f0a4008180d200a10188001000780004
:1027bc00a2018800800178005e6090000080fb0020
:1027cc001e0190006c00b900020040008000400027
:1027dc00208a20000080400010007800808f51007b
:1027ec00310039005e6090000080fb00c200dd000b
:1027fc00604b2800008040001001be001e009000bd
:10280c0001002000000040008180480000004100d1
:10281c0081804900a201800000f0a4008180d200d8
:10282c00a101880010007800a201880080017800c6
:10283c005e6090000080fb001e0190006c00b900ef
:10284c000200400080004000208a200000804000f0
:10285c00100078008080510055ccbf000080fb0038
:10286c000008de00000f7800900020009e0f100082
:10287c00060036001e0090006c01470080004000ee
:10288c00f00f200080307900360037001e009000d9
:10289c00410f20001e814000ec004700000040006a
:1028ac0002b078002f0037005e6090000080fb00c3
:1028bc001e0190006c00b900020040008000400036
:1028cc00208a200000804000100278005e6090009a
:1028dc000080fb00c200dd00604b2800008040003f
:1028ec001001be001e0090000100200000004000fe
:1028fc00818048000000410081804900a2018000d5
:10290c0000f0a4008180d200a101880010007800a2
:10291c00a20188008000520055ccbf000080fb0053
:10292c000008de00000f7800200f20009e0f100022
:10293c00060036001e0090006c014700800040002d
:10294c001000200080307900060037001e01900036
:10295c00400f20009e015000ec0047000200410097
:10296c0003b078001e0090000000e80010079800eb
:10297c001e009000e20f50007cff3600003020005b
:10298c00405488005e6090008080fb00fdcbbf004f
:10299c000080fb004400dd000080700080007800a7
:1029ac00405480000080700040548800e4004700d0
:1029bc0000c4b30080487800100020001007980075
:1029cc000d0037001e0190001e0090000000e90071
:1029dc00ec004700000040006080780080407800e8
:1029ec006400470000004100014878001e00900080
:1029fc000000e800100798001e009000e30f500044
:102a0c00f0ff3600445480006400470080017800d9
:102a1c0042c0b30011c0b30004007800da0b070009
:102a2c000080fa00000006000e00fa00404f9800eb
:102a3c00514f980000702000405488005e48900070
:102a4c000080fb004200dd0080007800d053800045
:102a5c0080807000fdcbbf000080fb004400dd00d7
:102a6c0080807000405480000080700040548800ca
:102a7c005e4890000004e00019003a000000eb00f2
:102a8c00100798000d0037001e0190001e009000ea
:102a9c008000400020a22000008040001000780040
:102aac008040780064004700000041000148780035
:102abc001e0090000000e800100798001e00900017
:102acc00e60f5000f0ff36005e4890000040e80032
:102adc008040780064004700714098005300370034
:102aec005e489000e14f500019003a000000eb00e6
:102afc00100798000d0037001e0190001e0090007a
:102b0c008000400020a320000080400010007800ce
:102b1c0080407800640047000000410001487800c4
:102b2c001e0090000000e800100798001e009000a6
:102b3c00e60f5000f0ff36005e4890000040e800c1
:102b4c0080407800640047007140980037003700df
:102b5c005e489000e24f500019003a000000eb0074
:102b6c00100798000d0037001e0190001e00900009
:102b7c008000400020a4200000804000100078005d
:102b8c008040780064004700000041000148780054
:102b9c001e0090000000e800100798001e00900036
:102bac00e60f5000f0ff36005e4890000040e80051
:102bbc008040780064004700714098001b0037008b
:102bcc005e489000e34f500018003a000000eb0004
:102bdc00100798000d0037001e0190001e00900099
:102bec008000400020a520000080400010007800ec
:102bfc0080407800640047000000410001487800e4
:102c0c001e0090000000e800100798001e009000c5
:102c1c00e60f5000f0ff36005e4890000040e800e0
:102c2c008040780064004700714098004454800054
:102c3c00640047008001780082c0b30011c0b3006b
:102c4c0004007800500b07000080fa00000006001a
:102c5c002e00fa00406f98000000eb00500f980017
:102c6c0000072000400f9800c0002000300f980093
:102c7c000000eb00200f980000002600100f9800b9
:102c8c000000eb00000f98000000eb0070079800ac
:102c9c000040200060079800003c2000500798007e
:102cac000000eb00400798000000eb003007980094
:102cbc000002200020079800400120001007980017
:102ccc000000eb00000f7800de0890004e0890002a
:102cdc00808070003e089000808070007e0047006d
:102cec0001087800ae0890001e08900080807000eb
:102cfc000e089000808070007e0090008080700034
:102d0c006e009000808070005e00900080807000eb
:102d1c004e009000808070007e00470011009800eb
:102d2c00be0090002e009000808070001e0090006d
:102d3c00008070009e0070007e004700210098000b
:102d4c000000eb00600f98002700370021a720003f
:102d5c0000062000800878006e089000fe004700f6
:102d6c0000004000e080780000f02f000080600040
:102d7c004800de008000780020a720001100980099
:102d8c006e089000fe004700000040006080780054
:102d9c0080007800f00f20008080600020a72000c9
:102dac00210098006e0890004200dd008000780041
:102dbc0020a720003100980017c0b30026a52000e2
:102dcc0025a4200024a3200023a2200022a7200059
:102ddc00ce6890000040eb005a0307006e0890008c
:102dec000000e800600f98006e089000e20f5000a1
:102dfc00d6ff360040002000600f98001a00370004
:102e0c0021a72000000620008008780021a72000c0
:102e1c000000eb009000980021a720000000eb00c0
:102e2c00a00098006e0890004200dd008000780041
:102e3c0020a720003100980017c0b30026a5200061
:102e4c0025a4200024a3200023a2200022a72000d8
:102e5c00ce6890000040eb003a0307006e0890002b
:102e6c000000e800600f98006e089000e60f50001c
:102e7c00e3ff360042c2200016c0b30025a3200099
:102e8c0024a2200013c0b300ce6890000040eb00d9
:102e9c002e0207008040eb000040eb00e2fe070032
:102eac000080fa00000006002200fa00006798007b
:102ebc000000eb00400798001000370022c22000f1
:102ecc0076c0b30025a3200024a2200013c0b300b9
:102edc00c1c0b3000040eb001c0207008040eb00b7
:102eec000040eb00d0fe0700c0d12900faf9070022
:102efc004e0090000000e80040079800ce009000c3
:102f0c0030062000808f5000ecff360020518000ee
:102f1c00c800dd0030518000008070002007980050
:102f2c0040518000c800dd005051800000807000ce
:102f3c001007980060518000c800dd0070518000bf
:102f4c00008f70008040eb000040eb00b6fe0700e5
:102f5c00c0d12900e0f90700ea0047000000280072
:102f6c00c0009800ea00470000002800d00098003c
:102f7c00ea00470000002500e00098004000200017
:102f8c0040079800490037004e009000ea004700c7
:102f9c0000004000608178003207980021a72000d3
:102fac000006200080087800be00900000f02f0082
:102fbc00008060004800de008000780020a7200020
:102fcc0011009800be009000f00f2000808060007f
:102fdc0020a72000210098004e0090004200dd0048
:102fec008000780020a720003100980017c0b300a3
:102ffc0026a5200025a4200024a3200023a2200025
:10300c0022a720008e6090000040eb00cd0207004c
:10301c00105180008040780078004700014878000b
:10302c0020a7200010009000804078007800470016
:10303c001140980020a720002000900080407800cc
:10304c007800470021409800f80047000040eb0052
:10305c00b0409800f80047000040eb00c0409800da
:10306c00f80047000040eb00d0409800f800470003
:10307c000040eb00e04098004e009000804078004b
:10308c007800470071409800780047008001780074
:10309c0082c0b30011c0b300007020003a0a0700d0
:1030ac004e0090000000e800400798004e00900091
:1030bc00e60f5000b4ff360042c2200016c0b30029
:1030cc0025a3200024a2200013c0b3008e60900022
:1030dc000040eb009d0107000080fa000000060094
:1030ec000400fa00004f78000000eb00200c880070
:1030fc000000eb00500c88000000eb00100a880068
:10310c000000eb00300a88001e80fb0010079800be
:10311c001e0090000000e000040032001e00900031
:10312c00e10f50000700320008003700dec2a90092
:10313c00d202a900d242a900d262a900d222a900cf
:10314c0002003700d822a900d802a9000080fa009a
:10315c00000006000400fa00004f78001e80fb00ff
:10316c00100798001e0090000000e00004003200e0
:10317c001e009000e10f5000180032002a003700aa
:10318c00d202a900d242a900d262a900d222a9007f
:10319c00e0c2a800500020004ff90700e0c2a900cf
:1031ac00f0002000a0168800500020004af907000b
:1031bc00e0c2a800f0002000a016880050002000fb
:1031cc0045f90700e0c2a9000000eb00a01688003a
:1031dc005000200040f9070013003700d802a90066
:1031ec00da22a800500020003bf90700da22a900df
:1031fc00da02a8005000200037f90700da22a800f4
:10320c00da02a8005000200033f90700da22a900e6
:10321c00d0168000e1ff2f0001006000d01688005e
:10322c00500020002cf907000080fa000000060076
:10323c000800fa00404798005147980062479800f0
:10324c007347980010c0b300104798005e40900080
:10325c0000404000004f78006e40900020479800de
:10326c004e409000aa0607004e409000b80607009a
:10327c009e4078004e409000c40707000004e00018
:10328c0012003a00ae4090004e409000bf0707007d
:10329c000004e00008003a00fe4090004e40900010
:1032ac00ba0707004e409000790707000040eb007a
:1032bc0010479800090037004e4090007407070033
:1032cc000040eb0010479800040037004e4090007f
:1032dc006f0707000040eb00104798001e4090005d
:1032ec000080fb000080fa00000006001400fa00c9
:1032fc00204f9800314f980062079800634f980058
:10330c00040f9800150f980010c0b30010479800d8
:10331c003e48900000404000004f7800ee009000c6
:10332c0000f02f00008060004800de00504798003d
:10333c006e009000604798002e48900074060700bd
:10334c002e489000820607009e4078002e48900080
:10335c008e0707000004e0003f003a00de409000ba
:10336c002e489000890707000004e00035003a0061
:10337c00ee4090002e489000840707000004e00007
:10338c002b003a000040eb0020479800210037004a
:10339c002e4090008080fb001e08900000804000b2
:1033ac0000004000800078000e0890000080400073
:1033bc0090007800410798004e009000404798001c
:1033cc00ce00900000f02f00008060004800de006e
:1033dc0030479800be4090002e4890006b070700c5
:1033ec000004e00004003a00ce4090002e4890000b
:1033fc0066070700040037002e48900024070700da
:10340c000040eb00104798002e4090000040e80070
:10341c0020479800ae4090006e48900080cf50003e
:10342c00dbff39002e489000190707000e0037000b
:10343c002e489000160707000040eb00104798003c
:10344c00090037002e489000110707000040eb00e0
:10345c0010479800040037002e4890000c07070016
:10346c000040eb00104798001e4090000080fb00cd
:10347c000080fa00000006001200fa004047980095
:10348c005147980032079800034f98005407980052
:10349c006507980076079800070f980010c0b300d6
:1034ac00104798005e40900000404000004f7800ac
:1034bc004e409000160607004e4090002406070070
:1034cc009e4078004e409000300707000004e0005a
:1034dc0096003a003e009000104078008040780042
:1034ec004e409000290707000004e0008a003a00d3
:1034fc004e409000160607005e4090000080fb00d6
:10350c00000040000004a000004f78009e407800ae
:10351c004e4090001d0707000004e00079003a00bf
:10352c000ef89700e14f500014003a0011c0b300a0
:10353c004e409000e607070096ccbf008080fb0051
:10354c005e0090000108780097ccbf008080fb00e3
:10355c006e0090000108780098ccbf008080fb00c2
:10356c007e0090000108780099ccbf008080fb00a1
:10357c000e089000010878005f0037000040eb0057
:10358c00204798002a0037008040eb004e40900006
:10359c00cf0707002e4090000080fb000000400089
:1035ac00800078005e0090008080400096ccbf00c8
:1035bc000080fb00800878002e4090000080fb000b
:1035cc0000004000800078006e0090008080400079
:1035dc0097ccbf000080fb00800878002e40900044
:1035ec000080fb0000004000800078007e0090000e
:1035fc008080400098ccbf000080fb0080087800e1
:10360c002e4090000080fb000000400080007800fd
:10361c000e0890008080400099ccbf000080fb0019
:10362c00800878002e4090000040e8002047980069
:10363c002e4090008080fb000ef897000080fb006d
:10364c000000e900808f5000cfff350011c0b3009f
:10365c004e4090009e0707000ef897000080fb007c
:10366c0000004000800078005e0090000080400068
:10367c008080e90096ccbf000080fb0080087800b9
:10368c000ef897000080fb000000400080007800de
:10369c006e009000008040008080e90097ccbf0055
:1036ac000080fb00800878000ef897000080fb007b
:1036bc0000004000800078007e00900000804000f8
:1036cc008080e90098ccbf000080fb008008780067
:1036dc000ef897000080fb0000004000800078008e
:1036ec000e089000008040008080e90099ccbf005b
:1036fc000080fb00800878004e40900064060700b4
:10370c000e0037004e409000610607000040eb00b1
:10371c0010479800090037004e4090005c060700e7
:10372c000040eb0010479800040037004e4090001a
:10373c00570607000040eb00104798001e40900011
:10374c000080fb000080fa00000006001000fa0068
:10375c00404798005147980032079800034f980053
:10376c005407980065079800664f980010c0b30086
:10377c00104798005e40900000404000004f7800d9
:10378c004e409000620507004e4090007005070007
:10379c009e4078004e4090007c0607000004e0003c
:1037ac0068003a003e00900010407800804078009d
:1037bc004e409000750607000004e0005c003a00e3
:1037cc004e409000620507005e4090000080fb00b8
:1037dc00000040000004a000004f78009e407800dc
:1037ec004e409000690607000004e0004b003a00d0
:1037fc006e489000e14f50000c003a0011c0b3002d
:10380c004e4090003207070096ccbf008080fb0032
:10381c005e0090000108780097ccbf008080fb0010
:10382c006e00900001087800390037000040eb0072
:10383c0020479800180037008040eb004e40900065
:10384c00230707002e4090000080fb000000400082
:10385c00800078005e0090008080400096ccbf0015
:10386c000080fb00800878002e4090000080fb0058
:10387c0000004000800078006e00900080804000c6
:10388c0097ccbf000080fb00800878002e40900091
:10389c000040e800204798002e4090008080fb00fc
:1038ac006e4890000080fb000000e900808f500003
:1038bc00e1ff350011c0b3004e4090000407070033
:1038cc006e4890000080fb000000400080007800f3
:1038dc005e009000008040008080e90096ccbf0024
:1038ec000080fb00800878006e4890000080fb0090
:1038fc0000004000800078006e00900000804000c6
:10390c008080e90097ccbf000080fb008008780025
:10391c004e409000de0507000e0037004e40900030
:10392c00db0507000040eb0010479800090037004a
:10393c004e409000d60507000040eb001047980061
:10394c00040037004e409000d10507000040eb000a
:10395c00104798001e4090000080fb000080fa0089
:10396c00000006001000fa004047980051479800ec
:10397c003207980043079800244f98006507980079
:10398c00664f980010c0b300104798005e4090003e
:10399c0000404000004f78004e409000dc040700cf
:1039ac00be0090004e4090009b0507001e41780021
:1039bc00be0090004e4090007a0607000004e00024
:1039cc0057003a004e0090001040780000417800fb
:1039dc00be0090004e409000720607000004e0000c
:1039ec0049003a00be0090004e4090008a05070046
:1039fc005e4090000080fb00000040000004a0002e
:103a0c00004f78001e417800be0090004e409000a0
:103a1c00640607000004e00035003a006e48900090
:103a2c00e14f500008003a0011c0b3004e40900026
:103a3c00a706070096ccbf008080fb006e009000ac
:103a4c0001087800260037000040eb002047980062
:103a5c000f0037008040eb004e4090009c060700a2
:103a6c002e4090000080fb00000040008000780099
:103a7c006e0090008080400096ccbf000080fb0060
:103a8c00800878002e4090000040e8002047980005
:103a9c002e4090008080fb006e4890000080fb0060
:103aac000000e900808f5000eaff350011c0b30020
:103abc004e409000860607006e4890000080fb0088
:103acc0000004000800078006e00900000804000f4
:103adc008080e90096ccbf000080fb008008780055
:103aec00be0090004e409000910507001100370079
:103afc00be0090004e4090008d0507000040eb008a
:103b0c00104798000b003700be0090004e4090000c
:103b1c00870507000040eb001047980005003700b0
:103b2c00be0090004e409000810507000040eb0065
:103b3c00104798001e4090000080fb000080fa00a7
:103b4c00000006001200fa00404798005147980008
:103b5c0032079800430798005407980065079800af
:103b6c00760798000757980010c0b30010479800cc
:103b7c005e40900000404000004f78004e409000a6
:103b8c00630407004e409000710407009e407800cb
:103b9c004e4090007d0507000004e000bd003a0097
:103bac003e00900010007800804078004e4090005d
:103bbc00760507000004e000b1003a003e009000da
:103bcc000080e80010007800804078004e409000a3
:103bdc006e0507000004e000a4003a003e009000cf
:103bec006400400010007800804078004e40900047
:103bfc00660507000004e00097003a003e009000c4
:103c0c006600400010007800804078004e40900024
:103c1c005e0507000004e0008a003a004e40900068
:103c2c004b0407005e4090000080fb000000400049
:103c3c000004a000004f78009e4078004e40900099
:103c4c00520507000004e00079003a000e50900085
:103c5c00e14f500014003a0011c0b3004e409000e8
:103c6c001b06070096ccbf008080fb004e00900026
:103c7c000108780097ccbf008080fb005e009000ac
:103c8c000108780098ccbf008080fb006e0090008b
:103c9c000108780099ccbf008080fb007e0090006a
:103cac00010878005f0037000040eb0020479800c7
:103cbc002a0037008040eb004e40900004060700bd
:103ccc002e4090000080fb00000040008000780037
:103cdc004e0090008080400096ccbf000080fb001e
:103cec00800878002e4090000080fb00000040000f
:103cfc00800078005e0090008080400097ccbf0070
:103d0c000080fb00800878002e4090000080fb00b3
:103d1c0000004000800078006e0090008080400021
:103d2c0098ccbf000080fb00800878002e409000eb
:103d3c000080fb0000004000800078007e009000b6
:103d4c008080400099ccbf000080fb008008780088
:103d5c002e4090000040e800204798002e40900034
:103d6c008080fb000e5090000080fb000000e900fa
:103d7c00808f5000cfff350011c0b3004e40900033
:103d8c00d30507000e5090000080fb00000040009f
:103d9c00800078004e009000008040008080e90098
:103dac0096ccbf000080fb00800878000e5090007d
:103dbc000080fb0000004000800078005e00900056
:103dcc00008040008080e90097ccbf000080fb00a1
:103ddc00800878000e5090000080fb00000040002e
:103dec00800078006e009000008040008080e90028
:103dfc0098ccbf000080fb00800878000e5090002b
:103e0c000080fb0000004000800078007e009000e5
:103e1c00008040008080e90099ccbf000080fb004e
:103e2c00800878004e409000990407001d00370070
:103e3c004e409000960407000040eb00104798009d
:103e4c00180037004e409000910407000040eb0032
:103e5c0010479800130037004e4090008c04070068
:103e6c000040eb00104798000e0037004e409000c9
:103e7c00870407000040eb0010479800090037004a
:103e8c004e409000820407000040eb001047980061
:103e9c00040037004e4090007d0407000040eb000a
:103eac00104798001e4090000080fb000080fa0034
:103ebc00000006000e00fa00404798005147980099
:103ecc00320798004307980054079800454f980014
:103edc0010c0b300104798005e40900000404000b6
:103eec00004f78004e40900089030700be00900000
:103efc004e409000480407009e4078004e409000d1
:103f0c00a20407000004e00084003a004e00900078
:103f1c001000780000417800be0090004e409000e8
:103f2c00200507000004e00076003a004e009000e7
:103f3c000080e8001000780000417800be0090007e
:103f4c004e409000170507000004e00067003a009f
:103f5c004e00900064004000100078000041780092
:103f6c00be0090004e4090000e0507000004e000db
:103f7c0058003a004e009000660040001000780097
:103f8c0000417800be0090004e40900005050700ef
:103f9c000004e00049003a00be0090004e40900042
:103fac001d0407005e4090000080fb0000004000f4
:103fbc000004a000004f78001e417800be00900065
:103fcc004e409000f70407000004e00035003a0072
:103fdc004e489000e14f500008003a0011c0b30069
:103fec004e4090003a05070096ccbf008080fb0045
:103ffc005e00900001087800260037000040eb00be
:10400c00204798000f0037008040eb004e40900096
:10401c002f0507002e4090000080fb0000004000a0
:10402c00800078005e0090008080400096ccbf003d
:10403c000080fb00800878002e4090000040e800d3
:10404c00204798002e4090008080fb004e48900046
:10405c000080fb000000e900808f5000eaff350073
:10406c0011c0b3004e409000190507004e48900057
:10407c000080fb0000004000800078005e00900093
:10408c00008040008080e90096ccbf000080fb00df
:10409c0080087800be0090004e4090002404070079
:1040ac0023003700be0090004e4090002004070013
:1040bc000040eb00104798001d003700be00900038
:1040cc004e4090001a0407000040eb001047980087
:1040dc0017003700be0090004e40900014040700fb
:1040ec000040eb001047980011003700be00900014
:1040fc004e4090000e0407000040eb001047980063
:10410c000b003700be0090004e40900008040700e2
:10411c000040eb001047980005003700be009000ef
:10412c004e409000020407000040eb00104798003e
:10413c001e4090000080fb000080fa00000006008a
:10414c001800fa00204f980061079800624f980001
:10415c00030f980024579800250f9800360f9800ed
:10416c0010c0b300104798006e489000004040000b
:10417c00004f78008e08900000f02f000080600047
:10418c004800de00504798000e08900060479800e9
:10419c002e489000de020700ee0090002e489000a2
:1041ac009d0307001e417800ee0090002e48900001
:1041bc007c0407000004e00047003a005e419000d8
:1041cc00ee0090002e489000760407000004e000fa
:1041dc003b003a006e419000ee0090002e4890009b
:1041ec00700407000004e0002f003a000040eb00d0
:1041fc0020479800240037002e4090008080fb0060
:10420c003e089000008040000000400080007800d4
:10421c002e08900000804000900078004107980024
:10422c004e00900040479800ce00900000f02f0008
:10423c00008060004800de00304798003e4190004e
:10424c00ee0090002e489000560407000004e00099
:10425c0005003a004e419000ee0090002e48900070
:10426c005004070005003700ee0090002e48900027
:10427c00af0307000040eb00104798002e40900061
:10428c000040e80020479800ae4090002e5090006f
:10429c0080cf5000d8ff3900ee0090002e489000df
:1042ac00a303070011003700ee0090002e48900089
:1042bc009f0307000040eb00104798000b003700ed
:1042cc00ee0090002e489000990307000040eb0090
:1042dc001047980005003700ee0090002e48900023
:1042ec00930307000040eb00104798001e4090001d
:1042fc000080fb000080fa00000006000a00fa00b3
:10430c0040479800514798006247980073479800bf
:10431c00440798005e4090001047980010c0b3000e
:10432c00204798006e40900000404000004f7800fd
:10433c004e409000760207004e4090008402070029
:10434c009e4078004e409000900307000004e0006f
:10435c0028003a00fe4090004e4090008b0307006e
:10436c000004e0001e003a004e4090007802070066
:10437c006e4090000080fb00000040000004a00094
:10438c00004f78009e4078004e4090007f0307005d
:10439c000004e0000d003a0011c0b3004e40900044
:1043ac004b0407001e4090008080fb0060c9200079
:1043bc0000804000904078004e009000014878004a
:1043cc004e409000320307000e0037004e40900024
:1043dc002f0307000040eb0020479800090037002e
:1043ec004e4090002a0307000040eb002047980045
:1043fc00040037004e409000250307000040eb00fe
:10440c00204798002e4090000080fb000080fa00ae
:10441c00000006001c00fa00604f9800714f9800d5
:10442c00020f980023579800240f9800350f98001e
:10443c00460f9800570f980010c0b3001047980013
:10444c007e48900000404000004f78008e0890009d
:10445c0000f02f00008060004800de00304798001c
:10446c000e089000404798006e4890002802070004
:10447c006e489000360207009e4078006e4890000f
:10448c00420307000004e0006f013a00be409000b8
:10449c006e4890003d0307000004e00065013a00ff
:1044ac00ce4090006e489000380307000004e000f6
:1044bc005b013a006e489000250207007e48900090
:1044cc000080fb00000040000004a000004f7800ba
:1044dc009e4078006e4890002c0307000004e0001a
:1044ec004a013a002e509000e14f50005f003a0014
:1044fc008040eb006e489000f503070061c9200076
:10450c0091407800690047000148780071c920008b
:10451c0091407800690047001140980081c9200043
:10452c0091407800690047002140980091c9200013
:10453c0091407800690047003140980011c0b300e9
:10454c006e489000e203070061c92000914078009a
:10455c00650047000148780071c92000914078003f
:10456c00650047001140980081c9200091407800f7
:10457c00650047002140980091c9200091407800c7
:10458c0065004700314098004eb89700000040008d
:10459c00800078002e0890000081400069004700e0
:1045ac00104078000080fb00c800dd00650047006b
:1045bc00104078000080fb0000807000000978003b
:1045cc004eb8970000004000800078003e08900034
:1045dc000081400069004700104090000080fb0003
:1045ec00c800dd0065004700104090000080fb0013
:1045fc0000807000000978004eb897000000400061
:10460c00800078004e08900000814000690047004f
:10461c00204090000080fb00c800dd0065004700d2
:10462c00204090000080fb000080700000097800a2
:10463c004eb8970000004000800078005e089000a3
:10464c000081400069004700304090000080fb0072
:10465c00c800dd0065004700304090000080fb0082
:10466c000080700000097800e50037000040eb0086
:10467c00204798006d0037008040eb006e4890009a
:10468c009303070061c9200091407800690047003e
:10469c000148780071c920009140780069004700fa
:1046ac001140980081c920009140780069004700b2
:1046bc002140980091c92000914078006900470082
:1046cc00314098008040eb006e489000800307005a
:1046dc0061c92000914078006500470001487800ce
:1046ec0071c9200091407800650047001140980086
:1046fc0081c9200091407800650047002140980056
:10470c0091c9200091407800650047003140980025
:10471c002e4090008080fb004eb897000080400037
:10472c0000004000800078002e08900000814000be
:10473c0069004700104078000080fb00c800dd00d5
:10474c0065004700104078000080fb00008070007e
:10475c00000978002e4090008080fb004eb8970036
:10476c000080400000004000800078003e0890006f
:10477c000081400069004700104090000080fb0061
:10478c00c800dd0065004700104090000080fb0071
:10479c0000807000000978002e4090008080fb00a3
:1047ac004eb8970000804000000040008000780068
:1047bc004e089000008140006900470020409000a6
:1047cc000080fb00c800dd00650047002040900021
:1047dc000080fb0000807000000978002e409000e3
:1047ec008080fb004eb89700008040000000400025
:1047fc00800078005e08900000814000690047004e
:10480c00304090000080fb00c800dd0065004700d0
:10481c00304090000080fb000080700000097800a0
:10482c002e4090000040e800204798002e40900059
:10483c008080fb002e5090000080fb000000e900ff
:10484c00808f50008cff35008040eb006e4890004c
:10485c001f03070061c920009140780069004700e0
:10486c000148780071c92000914078006900470028
:10487c001140980081c920009140780069004700e0
:10488c002140980091c920009140780069004700b0
:10489c003140980011c0b3006e4890000c03070023
:1048ac0061c92000914078006500470001487800fc
:1048bc0071c92000914078006500470011409800b4
:1048cc0081c9200091407800650047002140980084
:1048dc0091c9200091407800650047003140980054
:1048ec002e5090008080fb004eb897000080400056
:1048fc0000004000800078002e08900000804000ee
:10490c000081e90069004700104078000080fb003e
:10491c00c800dd0065004700104078000080fb00f7
:10492c0000807000000978002e5090008080fb0001
:10493c004eb89700008040000000400080007800d6
:10494c003e089000008040000081e90069004700ab
:10495c00104090000080fb00c800dd00650047009f
:10496c00104090000080fb0000807000000978006f
:10497c002e5090008080fb004eb8970000804000c5
:10498c0000004000800078004e089000008040003d
:10499c000081e90069004700204090000080fb0086
:1049ac00c800dd0065004700204090000080fb003f
:1049bc0000807000000978002e5090008080fb0071
:1049cc004eb8970000804000000040008000780046
:1049dc005e089000008040000081e90069004700fb
:1049ec00304090000080fb00c800dd0065004700ef
:1049fc00304090000080fb000080700000097800bf
:104a0c006e489000a2010700130037006e4890001a
:104a1c009f0107000040eb00104798000e00370084
:104a2c006e4890009a0107000040eb001047980078
:104a3c00090037006e489000950107000040eb001c
:104a4c0010479800040037006e4890009001070052
:104a5c000040eb00104798001e4090000080fb00c7
:104a6c000080fa00000006001200fa00004f9800c7
:104a7c00114f9800224f980063079800644f9800dc
:104a8c00050f98001e4890001047980010c0b30006
:104a9c00204798002e48900000404000004f7800be
:104aac006e009000604798000e4890009800070038
:104abc000e489000a60007009e4078000e4890001b
:104acc00b20107000004e00089003a00ee409000bb
:104adc000e489000ad0107000004e0007f003a0092
:104aec000e4890009a0007002e4890000080fb00b2
:104afc00000040000004a000004f78009e407800a9
:104b0c000e489000a10107000004e0006e003a007e
:104b1c006e489000e14f50001c003a008040eb00c2
:104b2c000e4890006a0207001e4090008080fb0037
:104b3c0060c92000008040009040780041479800f8
:104b4c0011c0b3000e489000610207001e40900097
:104b5c008080fb0060c920000080400090407800fd
:104b6c00514798004e4090000080fb00c800dd00cb
:104b7c005e4090000080fb00008070008000780098
:104b8c000e089000010878004c0037000040eb0044
:104b9c0030479800220037008040eb000e48900010
:104bac004b0207001e4090008080fb0060c9200073
:104bbc000080400090407800414798008040eb0016
:104bcc000e489000420207001e4090008080fb00bf
:104bdc0060c9200000804000904078005147980048
:104bec003e4090000080fb000000400080007800f8
:104bfc000e089000008140004e4090000080fb00a9
:104c0c00c800dd005e4090000080fb00008070005a
:104c1c00000978003e4090000040e80030479800c2
:104c2c003e4090008080fb006e4890000080fb00ae
:104c3c000000e900808f5000d7ff35008040eb006a
:104c4c000e489000220207001e4090008080fb005e
:104c5c0060c92000008040009040780041479800d7
:104c6c0011c0b3000e489000190207001e409000be
:104c7c008080fb0060c920000080400090407800dc
:104c8c00514798006e4890000080fb0000004000e7
:104c9c00800078000e089000008040000081e90040
:104cac004e4090000080fb00c800dd005e4090008c
:104cbc000080fb0000807000000978000e48900016
:104ccc00f30007000e0037000e489000f0000700bc
:104cdc000040eb0020479800090037000e48900078
:104cec00eb0007000040eb00204798000400370061
:104cfc000e489000e60007000040eb0020479800ab
:104d0c002e4090000080fb000080fa00000006009e
:104d1c000400fa00004f78001e80fb00100798007a
:104d2c001e0090000000e000040032001e00900005
:104d3c00e10f50000300320003003700dec2a9006f
:104d4c0001003700d822a9000080fa0000000600fc
:104d5c000400fa00004f78001e80fb00100798003a
:104d6c001e0090000000e000040032001e009000c5
:104d7c00e10f50001800320029003700d202a800c1
:104d8c00d242a800d262a800d222a8005000200073
:104d9c0051f20700e0c2a800500020004ef20700bc
:104dac00500020004cf20700d202a900d242a90008
:104dbc00d262a900d222a9000000eb00a016880044
:104dcc005000200044f20700e0c2a900500020006f
:104ddc0041f2070012003700d802a8005000200052
:104dec003df20700da22a800500020003af207003a
:104dfc005000200038f20700d802a900d01680001d
:104e0c00e1ff2f0001006000d01688005000200048
:104e1c0031f20700da22a900500020002ef2070020
:104e2c000080fa00000006000600fa00000f78006f
:104e3c00214798001e007800200798002e00900053
:104e4c00e10f5000140032002e009000e10f5000d2
:104e5c00070039002e009000e20f500019003200bc
:104e6c002e009000e30f5000210032002a00370082
:104e7c002e4090006140600061416000212d2000b7
:104e8c0091407800e0cfb30000c060000240700099
:104e9c00d2e2b700200037002e4090006140600045
:104eac00614060004201dd00212d2000914078001e
:104ebc00b0cfb30000c0600002407000d2e2b70077
:104ecc00150037002e40900061406000614060008a
:104edc004301dd00212d20009140780070cfb300fc
:104eec0000c0600002407000d2e2b7000a00370038
:104efc002e40900061406000614060000041400025
:104f0c00212d200091407800d0cfb30000c060006c
:104f1c0002407000d2e2b7000080fa0000000600e8
:104f2c000600fa00000f7800214798001e00780058
:104f3c00200798002e009000e10f50001400320062
:104f4c002e009000e10f5000070039002e00900059
:104f5c00e20f5000190032002e009000e30f5000b9
:104f6c00210032002a0037002e4090006140600082
:104f7c0061416000412d200091407800e0cfb300ea
:104f8c0000c0600002407000d4e2b700200037007f
:104f9c002e40900061406000614060004201dd00e5
:104fac00412d200091407800b0cfb30000c06000cc
:104fbc0002407000d4e2b700150037002e4090007c
:104fcc0061406000614060004301dd00412d200024
:104fdc009140780070cfb30000c0600002407000b8
:104fec00d4e2b7000a0037002e4090006140600008
:104ffc006140600000414000412d2000914078004c
:10500c00d0cfb30000c0600002407000d4e2b70003
:10501c000080fa00000006000400fa00004f78003f
:10502c00110798001e80fb000000e0000100320018
:10503c001500370011c0b3001e0090007aff070066
:10504c0050002000a4f10700e0c2a800500020008e
:10505c00a1f10700500020009ff107008040eb00f9
:10506c001e00900070ff07008040eb001e009000b7
:10507c00abff07005000200097f10700e0c2a90029
:10508c005000200094f107000080fa000000060098
:10509c000400fa00004f78001e80fb0010079800f7
:1050ac001e0090000000e000040032001e00900082
:1050bc00e10f5000110032001b003700d202a90092
:1050cc00d242a900d262a900d222a9000000eb00b2
:1050dc00a0168800500020007ff10700e0c2a80055
:1050ec00500020007cf10700d202a800d242a80098
:1050fc00d262a800d222a8000b003700d802a90067
:10510c00d0168000e1ff2f0001006000d01688004f
:10511c005000200070f10700da22a8005000200097
:10512c006df10700d802a8000080fa00000006000c
:10513c000400fa00004f7800110798001e80fb0055
:10514c000000e000010032000e0037008040eb0050
:10515c001e00900034ff07008040eb001e00900002
:10516c006fff0700500020005bf10700e0c2a800b1
:10517c005000200058f1070011c0b3001e00900031
:10518c0029ff07000080fa00000006000600fa0064
:10519c0020479800314798000040eb00004f780002
:1051ac002e4090000080fb00200798002e009000fd
:1051bc000000e000040032002e009000e10f5000cf
:1051cc004000320074003700d202a900d242a9007c
:1051dc00d262a900d222a90080c0b3001047980067
:1051ec0021003700e0c2a9003e4090000080fb0087
:1051fc004700de000004e00003003200f000200055
:10520c00a0168800020037000000eb00a0168800f2
:10521c005000200030f10700e0c2a8005000200030
:10522c002df10700e0c2a9001e409000e14f500094
:10523c0005003a00d202a800d242a800d262a8000f
:10524c00d222a800050037005000200022f10700f0
:10525c003e40900000404000304798001e409000b7
:10526c000040e900104798001e4090000004e00048
:10527c00dcff3a000000eb00a0168800d202a80068
:10528c00d242a800d262a800d222a800e0c2a90093
:10529c005000200010f10700e0c2a8000040eb0015
:1052ac00004f7800500020000bf10700e0c2a9006d
:1052bc00d202a900d242a900d262a900d222a9002e
:1052cc0035003700d802a90080c0b3001047980001
:1052dc001f003700da22a9003e4090000080fb003e
:1052ec004700de000004e00002003200da02a800f1
:1052fc0004003700d0168000e1ff2f000100600091
:10530c00d016880050002000f3f00700da22a80025
:10531c0050002000f0f00700da22a9001e40900097
:10532c00e14f500002003a00d802a80005003700f7
:10533c0050002000e8f007003e4090000040400084
:10534c00304798001e4090000040e900104798003c
:10535c001e4090000004e000deff3a00d1168000f1
:10536c00e0ff2f0000806000d0168800d802a80053
:10537c00da22a90050002000d7f00700da22a8009a
:10538c000040eb00004f780050002000d2f00700e6
:10539c00da22a900d802a9001e80fb000080fa00c6
:1053ac00000006000800fa0020479800210798002a
:1053bc00624798000040eb00004f78002e409000b0
:1053cc000080fb000000e000010032003d003700cf
:1053dc008040eb002e00900093fe070080c0b300cd
:1053ec001047980022003700e0c2a9006e409000e0
:1053fc000080fb004700de000004e00004003200e7
:10540c0011c0b3002e009000c5fe0700030037004a
:10541c008040eb002e009000c1fe070050002000e1
:10542c00adf00700e0c2a80050002000aaf0070071
:10543c00e0c2a9001e409000e14f500004003a0069
:10544c0011c0b3002e00900077fe07000500370056
:10545c0050002000a0f007006e409000004040007b
:10546c00604798001e4090000040e90010479800eb
:10547c001e4090000004e000dbff3a008040eb008f
:10548c002e009000a6fe070011c0b3002e00900065
:10549c0065fe0700e0c2a900500020008ef0070056
:1054ac00e0c2a8000040eb00004f78005000200044
:1054bc0089f00700e0c2a9008040eb002e009000ac
:1054cc0059fe07001e80fb000080fa000000060059
:1054dc000600fa0020479800314798002e409000b3
:1054ec000080fb00200798002e0090000000e000d8
:1054fc00040032002e009000e10f50004d003200ed
:10550c008c003700d202a800d242a800d262a800b8
:10551c00d222a800e0c2a90080c0b300004f7800de
:10552c002f003700500020006bf0070096ccbf0016
:10553c000040400096ecb70097ccbf000040400004
:10554c0097ecb70098ccbf000040400098ecb70037
:10555c0099ccbf000040400099ecb700e0c2a80015
:10556c0061c9200091407800d4c2bf006140600046
:10557c0000c0700096ecb70071c920009140780013
:10558c00d4c2bf000080fb004200de00614060001e
:10559c0000c0700097ecb70081c9200091407800e2
:1055ac00d4c2bf000080fb004300de0061406000fd
:1055bc0000c0700098ecb70091c9200091407800b1
:1055cc00d4c2bf000080fb000000d100614060002d
:1055dc0000c0700099ecb700e0c2a9001e4fe900b2
:1055ec001e04e000cfff3a00d202a900d242a9006b
:1055fc00d262a900d222a9003e409000e14f500097
:10560c0003003a00f0002000a016880002003700ca
:10561c000000eb00a0168800500020002ef00700c0
:10562c00e0c2a800500020002bf00700e0c2a90047
:10563c0040003700d802a800da22a90080c0b300cd
:10564c00004f7800290037005000200022f007009e
:10565c0096ccbf000040400096ecb70097ccbf0042
:10566c000040400097ecb70098ccbf0000404000d1
:10567c0098ecb70099ccbf000040400099ecb70003
:10568c00da22a80061c9200091407800dac2bf007c
:10569c006140600000c0700096ecb70071c920003a
:1056ac0091407800dac2bf006140600000c0700019
:1056bc0097ecb70081c9200091407800dac2bf0096
:1056cc006140600000c0700098ecb70091c92000e8
:1056dc0091407800dac2bf006140600000c07000e9
:1056ec0099ecb700da22a9001e4fe9001e04e00075
:1056fc00d5ff3a00d802a9003e409000e14f50007f
:10570c0002003a00da02a80004003700d01680002c
:10571c00e1ff2f0001006000d0168800500020002f
:10572c00edef0700da22a80050002000eaef070096
:10573c00da22a9000080fa00000006000000fa003e
:10574c008f60a90000c0200094eb070090c3bf003d
:10575c000080fb004500de000080fb00e30f5000e2
:10576c00faff3400fdcbbf008080fb00002020003e
:10577c0080807000007c2000008060004201dd0011
:10578c00fdcbbf008080fb000020200080807000db
:10579c00f0032000008060004200dd00000071007a
:1057ac000000a00080007800c0ff21008080600015
:1057bc006011b8000040eb003eeb0700fdcbbf00d2
:1057cc008080fb000070200080807000007c200036
:1057dc00008060004201dd00fdcbbf008080fb003b
:1057ec000070200080807000f003200000806000ba
:1057fc004200dd00000071000000a0008000780075
:10580c00c0ff2100808060006011b80020c0b30090
:10581c0028eb07006011b800c1c3210010c0b30011
:10582c0024eb07006011b800d1c321000040eb004d
:10583c004ceb07006011b800d1c3210010c0b300bd
:10584c0048eb0700b3ea07000080200053eb070089
:10585c008f60a8000080fa00000006000600fa0025
:10586c000040eb00404798000000eb001007980048
:10587c000000eb00000f78008f60a900a1ff2f0043
:10588c00700020005aeb07000080eb00c054880029
:10589c000000eb00d05488000000eb00e0548800be
:1058ac000000eb0010079800190037000000eb0017
:1058bc00000f7800090037001e0090001e017800d0
:1058cc006e00b9008200400060bb20008080400068
:1058dc000040eb00804878001e0fe80070002000ac
:1058ec009e0f1000f4ff36001e00900052618000e5
:1058fc006e00b900e800400060bb20000080400052
:10590c00020878001e0090000000e80010079800c4
:10591c001e009000e30f5000e4ff360000c0200092
:10592c001eeb070090c3bf000080fb004500de00ab
:10593c000080fb00e30f5000faff34000149200007
:10594c000000eb0075ea07007cff07003100200027
:10595c004e4090001beb0700410020004e40900091
:10596c0010eb07000040eb006fea07000004e000ba
:10597c00fcff32000080200008eb07008f60a900bc
:10598c000080fa00000006000a00fa0010079800d8
:10599c004147980052479800330798000040eb00ad
:1059ac00004f78008f60a900c0548000f20f5000a7
:1059bc0030003c00c05480000000e800c054880057
:1059cc00c05480006e00b900e8004000e0a920003f
:1059dc00008040009e00900001087800c0548000b8
:1059ec006e00b900ec004000e0a9200000804000ef
:1059fc00de409000014878000040eb00004f78003a
:105a0c000d003700c25480009e81fb001e80fb00fd
:105a1c00800078003e00900000804000104278002a
:105a2c006e10b90083004000e0a920000080400007
:105a3c00044878001e4fe8005e4090009e4f100016
:105a4c00f0ff3900c05480000000e00005003a006f
:105a5c000040eb0034ea07000004e000fcff3200d9
